{
	"data": {
		"bytecode": {
			"linkReferences": {},
			"object": "60c06040523480156200001157600080fd5b506040516200163938038062001639833981810160405281019062000037919062000247565b828073ffffffffffffffffffffffffffffffffffffffff1660808173ffffffffffffffffffffffffffffffffffffffff16815250508073ffffffffffffffffffffffffffffffffffffffff1663026b1d5f6040518163ffffffff1660e01b8152600401602060405180830381865afa158015620000b8573d6000803e3d6000fd5b505050506040513d601f19601f82011682018060405250810190620000de9190620002a3565b73ffffffffffffffffffffffffffffffffffffffff1660a08173ffffffffffffffffffffffffffffffffffffffff168152505050336000806101000a81548173ffffffffffffffffffffffffffffffffffffffff021916908373ffffffffffffffffffffffffffffffffffffffff16021790555081600260006101000a81548173ffffffffffffffffffffffffffffffffffffffff021916908373ffffffffffffffffffffffffffffffffffffffff16021790555080600160006101000a81548173ffffffffffffffffffffffffffffffffffffffff021916908373ffffffffffffffffffffffffffffffffffffffff160217905550505050620002d5565b600080fd5b600073ffffffffffffffffffffffffffffffffffffffff82169050919050565b60006200020f82620001e2565b9050919050565b620002218162000202565b81146200022d57600080fd5b50565b600081519050620002418162000216565b92915050565b600080600060608486031215620002635762000262620001dd565b5b6000620002738682870162000230565b9350506020620002868682870162000230565b9250506040620002998682870162000230565b9150509250925092565b600060208284031215620002bc57620002bb620001dd565b5b6000620002cc8482850162000230565b91505092915050565b60805160a05161132962000310600039600081816102cb015281816104ff0152818161076c01526109d5015260006102a501526113296000f3fe60806040526004361061008a5760003560e01c806351cff8d91161005957806351cff8d9146101e45780637535d2461461020d5780638da5cb5b1461023857806390386bbf14610263578063d54ba9541461027a57610091565b80630542975c146101265780631b11d0ff146101515780633fc8cef31461018e578063438031c3146101b957610091565b3661009157005b600080369050146100a157600080fd5b600160009054906101000a900473ffffffffffffffffffffffffffffffffffffffff1673ffffffffffffffffffffffffffffffffffffffff1663d0e30db0346040518263ffffffff1660e01b81526004016000604051808303818588803b15801561010b57600080fd5b505af115801561011f573d6000803e3d6000fd5b5050505050005b34801561013257600080fd5b5061013b6102a3565b6040516101489190610aee565b60405180910390f35b34801561015d57600080fd5b5061017860048036038101906101739190610bec565b6102c7565b6040516101859190610ca1565b60405180910390f35b34801561019a57600080fd5b506101a361058f565b6040516101b09190610cdd565b60405180910390f35b3480156101c557600080fd5b506101ce6105b5565b6040516101db9190610d19565b60405180910390f35b3480156101f057600080fd5b5061020b60048036038101906102069190610d34565b6105db565b005b34801561021957600080fd5b5061022261076a565b60405161022f9190610d82565b60405180910390f35b34801561024457600080fd5b5061024d61078e565b60405161025a9190610dbe565b60405180910390f35b34801561026f57600080fd5b506102786107b2565b005b34801561028657600080fd5b506102a1600480360381019061029c9190610dd9565b610920565b005b7f000000000000000000000000000000000000000000000000000000000000000081565b60007f000000000000000000000000000000000000000000000000000000000000000073ffffffffffffffffffffffffffffffffffffffff163373ffffffffffffffffffffffffffffffffffffffff1614610357576040517f08c379a000000000000000000000000000000000000000000000000000000000815260040161034e90610e76565b60405180910390fd5b600160009054906101000a900473ffffffffffffffffffffffffffffffffffffffff1673ffffffffffffffffffffffffffffffffffffffff16632e1a7d4d876040518263ffffffff1660e01b81526004016103b29190610ea5565b600060405180830381600087803b1580156103cc57600080fd5b505af11580156103e0573d6000803e3d6000fd5b50505050600260009054906101000a900473ffffffffffffffffffffffffffffffffffffffff1673ffffffffffffffffffffffffffffffffffffffff16633853682c876040518263ffffffff1660e01b815260040161043e90610f0c565b6000604051808303818588803b15801561045757600080fd5b505af115801561046b573d6000803e3d6000fd5b50505050506000858761047e9190610f5b565b90508773ffffffffffffffffffffffffffffffffffffffff1663d0e30db0826040518263ffffffff1660e01b81526004016000604051808303818588803b1580156104c857600080fd5b505af11580156104dc573d6000803e3d6000fd5b50505050508773ffffffffffffffffffffffffffffffffffffffff1663095ea7b37f0000000000000000000000000000000000000000000000000000000000000000836040518363ffffffff1660e01b815260040161053c929190610fc0565b6020604051808303816000875af115801561055b573d6000803e3d6000fd5b505050506040513d601f19601f8201168201806040525081019061057f9190611015565b5060019150509695505050505050565b600160009054906101000a900473ffffffffffffffffffffffffffffffffffffffff1681565b600260009054906101000a900473ffffffffffffffffffffffffffffffffffffffff1681565b60008054906101000a900473ffffffffffffffffffffffffffffffffffffffff1673ffffffffffffffffffffffffffffffffffffffff163373ffffffffffffffffffffffffffffffffffffffff1614610669576040517f08c379a0000000000000000000000000000000000000000000000000000000008152600401610660906110b4565b60405180910390fd5b60008190508073ffffffffffffffffffffffffffffffffffffffff1663a9059cbb338373ffffffffffffffffffffffffffffffffffffffff166370a08231306040518263ffffffff1660e01b81526004016106c491906110d4565b602060405180830381865afa1580156106e1573d6000803e3d6000fd5b505050506040513d601f19601f820116820180604052508101906107059190611104565b6040518363ffffffff1660e01b8152600401610722929190610fc0565b6020604051808303816000875af1158015610741573d6000803e3d6000fd5b505050506040513d601f19601f820116820180604052508101906107659190611015565b505050565b7f000000000000000000000000000000000000000000000000000000000000000081565b60008054906101000a900473ffffffffffffffffffffffffffffffffffffffff1681565b60008054906101000a900473ffffffffffffffffffffffffffffffffffffffff1673ffffffffffffffffffffffffffffffffffffffff163373ffffffffffffffffffffffffffffffffffffffff1614610840576040517f08c379a0000000000000000000000000000000000000000000000000000000008152600401610837906110b4565b60405180910390fd5b6000479050600081111561091d5760008060009054906101000a900473ffffffffffffffffffffffffffffffffffffffff1673ffffffffffffffffffffffffffffffffffffffff168260405161089590611162565b60006040518083038185875af1925050503d80600081146108d2576040519150601f19603f3d011682016040523d82523d6000602084013e6108d7565b606091505b505090508061091b576040517f08c379a0000000000000000000000000000000000000000000000000000000008152600401610912906111c3565b60405180910390fd5b505b50565b60008054906101000a900473ffffffffffffffffffffffffffffffffffffffff1673ffffffffffffffffffffffffffffffffffffffff163373ffffffffffffffffffffffffffffffffffffffff16146109ae576040517f08c379a00000000000000000000000000000000000000000000000000000000081526004016109a5906110b4565b60405180910390fd5b600030905060008390506000839050600060405180602001604052806000815250905060007f000000000000000000000000000000000000000000000000000000000000000073ffffffffffffffffffffffffffffffffffffffff166342b0b77c86868686866040518663ffffffff1660e01b8152600401610a34959493929190611299565b600060405180830381600087803b158015610a4e57600080fd5b505af1158015610a62573d6000803e3d6000fd5b5050505050505050505050565b600073ffffffffffffffffffffffffffffffffffffffff82169050919050565b6000819050919050565b6000610ab4610aaf610aaa84610a6f565b610a8f565b610a6f565b9050919050565b6000610ac682610a99565b9050919050565b6000610ad882610abb565b9050919050565b610ae881610acd565b82525050565b6000602082019050610b036000830184610adf565b92915050565b600080fd5b600080fd5b6000610b1e82610a6f565b9050919050565b610b2e81610b13565b8114610b3957600080fd5b50565b600081359050610b4b81610b25565b92915050565b6000819050919050565b610b6481610b51565b8114610b6f57600080fd5b50565b600081359050610b8181610b5b565b92915050565b600080fd5b600080fd5b600080fd5b60008083601f840112610bac57610bab610b87565b5b8235905067ffffffffffffffff811115610bc957610bc8610b8c565b5b602083019150836001820283011115610be557610be4610b91565b5b9250929050565b60008060008060008060a08789031215610c0957610c08610b09565b5b6000610c1789828a01610b3c565b9650506020610c2889828a01610b72565b9550506040610c3989828a01610b72565b9450506060610c4a89828a01610b3c565b935050608087013567ffffffffffffffff811115610c6b57610c6a610b0e565b5b610c7789828a01610b96565b92509250509295509295509295565b60008115159050919050565b610c9b81610c86565b82525050565b6000602082019050610cb66000830184610c92565b92915050565b6000610cc782610abb565b9050919050565b610cd781610cbc565b82525050565b6000602082019050610cf26000830184610cce565b92915050565b6000610d0382610abb565b9050919050565b610d1381610cf8565b82525050565b6000602082019050610d2e6000830184610d0a565b92915050565b600060208284031215610d4a57610d49610b09565b5b6000610d5884828501610b3c565b91505092915050565b6000610d6c82610abb565b9050919050565b610d7c81610d61565b82525050565b6000602082019050610d976000830184610d73565b92915050565b6000610da882610a6f565b9050919050565b610db881610d9d565b82525050565b6000602082019050610dd36000830184610daf565b92915050565b60008060408385031215610df057610def610b09565b5b6000610dfe85828601610b3c565b9250506020610e0f85828601610b72565b9150509250929050565b600082825260208201905092915050565b7f43616c6c6572206d75737420626520706f6f6c00000000000000000000000000600082015250565b6000610e60601383610e19565b9150610e6b82610e2a565b602082019050919050565b60006020820190508181036000830152610e8f81610e53565b9050919050565b610e9f81610b51565b82525050565b6000602082019050610eba6000830184610e96565b92915050565b7f4120626172626552000000000000000000000000000000000000000000000000600082015250565b6000610ef6600883610e19565b9150610f0182610ec0565b602082019050919050565b60006020820190508181036000830152610f2581610ee9565b9050919050565b7f4e487b7100000000000000000000000000000000000000000000000000000000600052601160045260246000fd5b6000610f6682610b51565b9150610f7183610b51565b9250827fffffffffffffffffffffffffffffffffffffffffffffffffffffffffffffffff03821115610fa657610fa5610f2c565b5b828201905092915050565b610fba81610b13565b82525050565b6000604082019050610fd56000830185610fb1565b610fe26020830184610e96565b9392505050565b610ff281610c86565b8114610ffd57600080fd5b50565b60008151905061100f81610fe9565b92915050565b60006020828403121561102b5761102a610b09565b5b600061103984828501611000565b91505092915050565b7f4f6e6c792074686520636f6e7472616374206f776e65722063616e2063616c6c60008201527f20746869732066756e6374696f6e000000000000000000000000000000000000602082015250565b600061109e602e83610e19565b91506110a982611042565b604082019050919050565b600060208201905081810360008301526110cd81611091565b9050919050565b60006020820190506110e96000830184610fb1565b92915050565b6000815190506110fe81610b5b565b92915050565b60006020828403121561111a57611119610b09565b5b6000611128848285016110ef565b91505092915050565b600081905092915050565b50565b600061114c600083611131565b91506111578261113c565b600082019050919050565b600061116d8261113f565b9150819050919050565b7f4661696c656420746f2073656e64204574686572000000000000000000000000600082015250565b60006111ad601483610e19565b91506111b882611177565b602082019050919050565b600060208201905081810360008301526111dc816111a0565b9050919050565b600081519050919050565b600082825260208201905092915050565b60005b8381101561121d578082015181840152602081019050611202565b8381111561122c576000848401525b50505050565b6000601f19601f8301169050919050565b600061124e826111e3565b61125881856111ee565b93506112688185602086016111ff565b61127181611232565b840191505092915050565b600061ffff82169050919050565b6112938161127c565b82525050565b600060a0820190506112ae6000830188610fb1565b6112bb6020830187610fb1565b6112c86040830186610e96565b81810360608301526112da8185611243565b90506112e9608083018461128a565b969550505050505056fea2646970667358221220f018c73d7b71efebe63afd7b8935ba38d50f79098ffe11f41894ad16be68438664736f6c634300080a0033",
			"opcodes": "PUSH1 0xC0 PUSH1 0x40 MSTORE CALLVALUE DUP1 ISZERO PUSH3 0x11 JUMPI PUSH1 0x0 DUP1 REVERT JUMPDEST POP PUSH1 0x40 MLOAD PUSH3 0x1639 CODESIZE SUB DUP1 PUSH3 0x1639 DUP4 CODECOPY DUP2 DUP2 ADD PUSH1 0x40 MSTORE DUP2 ADD SWAP1 PUSH3 0x37 SWAP2 SWAP1 PUSH3 0x247 JUMP JUMPDEST DUP3 DUP1 PUSH20 0xFFFFFFFFFFFFFFFFFFFFFFFFFFFFFFFFFFFFFFFF AND PUSH1 0x80 DUP2 PUSH20 0xFFFFFFFFFFFFFFFFFFFFFFFFFFFFFFFFFFFFFFFF AND DUP2 MSTORE POP POP DUP1 PUSH20 0xFFFFFFFFFFFFFFFFFFFFFFFFFFFFFFFFFFFFFFFF AND PUSH4 0x26B1D5F PUSH1 0x40 MLOAD DUP2 PUSH4 0xFFFFFFFF AND PUSH1 0xE0 SHL DUP2 MSTORE PUSH1 0x4 ADD PUSH1 0x20 PUSH1 0x40 MLOAD DUP1 DUP4 SUB DUP2 DUP7 GAS STATICCALL ISZERO DUP1 ISZERO PUSH3 0xB8 JUMPI RETURNDATASIZE PUSH1 0x0 DUP1 RETURNDATACOPY RETURNDATASIZE PUSH1 0x0 REVERT JUMPDEST POP POP POP POP PUSH1 0x40 MLOAD RETURNDATASIZE PUSH1 0x1F NOT PUSH1 0x1F DUP3 ADD AND DUP3 ADD DUP1 PUSH1 0x40 MSTORE POP DUP2 ADD SWAP1 PUSH3 0xDE SWAP2 SWAP1 PUSH3 0x2A3 JUMP JUMPDEST PUSH20 0xFFFFFFFFFFFFFFFFFFFFFFFFFFFFFFFFFFFFFFFF AND PUSH1 0xA0 DUP2 PUSH20 0xFFFFFFFFFFFFFFFFFFFFFFFFFFFFFFFFFFFFFFFF AND DUP2 MSTORE POP POP POP CALLER PUSH1 0x0 DUP1 PUSH2 0x100 EXP DUP2 SLOAD DUP2 PUSH20 0xFFFFFFFFFFFFFFFFFFFFFFFFFFFFFFFFFFFFFFFF MUL NOT AND SWAP1 DUP4 PUSH20 0xFFFFFFFFFFFFFFFFFFFFFFFFFFFFFFFFFFFFFFFF AND MUL OR SWAP1 SSTORE POP DUP2 PUSH1 0x2 PUSH1 0x0 PUSH2 0x100 EXP DUP2 SLOAD DUP2 PUSH20 0xFFFFFFFFFFFFFFFFFFFFFFFFFFFFFFFFFFFFFFFF MUL NOT AND SWAP1 DUP4 PUSH20 0xFFFFFFFFFFFFFFFFFFFFFFFFFFFFFFFFFFFFFFFF AND MUL OR SWAP1 SSTORE POP DUP1 PUSH1 0x1 PUSH1 0x0 PUSH2 0x100 EXP DUP2 SLOAD DUP2 PUSH20 0xFFFFFFFFFFFFFFFFFFFFFFFFFFFFFFFFFFFFFFFF MUL NOT AND SWAP1 DUP4 PUSH20 0xFFFFFFFFFFFFFFFFFFFFFFFFFFFFFFFFFFFFFFFF AND MUL OR SWAP1 SSTORE POP POP POP POP PUSH3 0x2D5 JUMP JUMPDEST PUSH1 0x0 DUP1 REVERT JUMPDEST PUSH1 0x0 PUSH20 0xFFFFFFFFFFFFFFFFFFFFFFFFFFFFFFFFFFFFFFFF DUP3 AND SWAP1 POP SWAP2 SWAP1 POP JUMP JUMPDEST PUSH1 0x0 PUSH3 0x20F DUP3 PUSH3 0x1E2 JUMP JUMPDEST SWAP1 POP SWAP2 SWAP1 POP JUMP JUMPDEST PUSH3 0x221 DUP2 PUSH3 0x202 JUMP JUMPDEST DUP2 EQ PUSH3 0x22D JUMPI PUSH1 0x0 DUP1 REVERT JUMPDEST POP JUMP JUMPDEST PUSH1 0x0 DUP2 MLOAD SWAP1 POP PUSH3 0x241 DUP2 PUSH3 0x216 JUMP JUMPDEST SWAP3 SWAP2 POP POP JUMP JUMPDEST PUSH1 0x0 DUP1 PUSH1 0x0 PUSH1 0x60 DUP5 DUP7 SUB SLT ISZERO PUSH3 0x263 JUMPI PUSH3 0x262 PUSH3 0x1DD JUMP JUMPDEST JUMPDEST PUSH1 0x0 PUSH3 0x273 DUP7 DUP3 DUP8 ADD PUSH3 0x230 JUMP JUMPDEST SWAP4 POP POP PUSH1 0x20 PUSH3 0x286 DUP7 DUP3 DUP8 ADD PUSH3 0x230 JUMP JUMPDEST SWAP3 POP POP PUSH1 0x40 PUSH3 0x299 DUP7 DUP3 DUP8 ADD PUSH3 0x230 JUMP JUMPDEST SWAP2 POP POP SWAP3 POP SWAP3 POP SWAP3 JUMP JUMPDEST PUSH1 0x0 PUSH1 0x20 DUP3 DUP5 SUB SLT ISZERO PUSH3 0x2BC JUMPI PUSH3 0x2BB PUSH3 0x1DD JUMP JUMPDEST JUMPDEST PUSH1 0x0 PUSH3 0x2CC DUP5 DUP3 DUP6 ADD PUSH3 0x230 JUMP JUMPDEST SWAP2 POP POP SWAP3 SWAP2 POP POP JUMP JUMPDEST PUSH1 0x80 MLOAD PUSH1 0xA0 MLOAD PUSH2 0x1329 PUSH3 0x310 PUSH1 0x0 CODECOPY PUSH1 0x0 DUP2 DUP2 PUSH2 0x2CB ADD MSTORE DUP2 DUP2 PUSH2 0x4FF ADD MSTORE DUP2 DUP2 PUSH2 0x76C ADD MSTORE PUSH2 0x9D5 ADD MSTORE PUSH1 0x0 PUSH2 0x2A5 ADD MSTORE PUSH2 0x1329 PUSH1 0x0 RETURN INVALID PUSH1 0x80 PUSH1 0x40 MSTORE PUSH1 0x4 CALLDATASIZE LT PUSH2 0x8A JUMPI PUSH1 0x0 CALLDATALOAD PUSH1 0xE0 SHR DUP1 PUSH4 0x51CFF8D9 GT PUSH2 0x59 JUMPI DUP1 PUSH4 0x51CFF8D9 EQ PUSH2 0x1E4 JUMPI DUP1 PUSH4 0x7535D246 EQ PUSH2 0x20D JUMPI DUP1 PUSH4 0x8DA5CB5B EQ PUSH2 0x238 JUMPI DUP1 PUSH4 0x90386BBF EQ PUSH2 0x263 JUMPI DUP1 PUSH4 0xD54BA954 EQ PUSH2 0x27A JUMPI PUSH2 0x91 JUMP JUMPDEST DUP1 PUSH4 0x542975C EQ PUSH2 0x126 JUMPI DUP1 PUSH4 0x1B11D0FF EQ PUSH2 0x151 JUMPI DUP1 PUSH4 0x3FC8CEF3 EQ PUSH2 0x18E JUMPI DUP1 PUSH4 0x438031C3 EQ PUSH2 0x1B9 JUMPI PUSH2 0x91 JUMP JUMPDEST CALLDATASIZE PUSH2 0x91 JUMPI STOP JUMPDEST PUSH1 0x0 DUP1 CALLDATASIZE SWAP1 POP EQ PUSH2 0xA1 JUMPI PUSH1 0x0 DUP1 REVERT JUMPDEST PUSH1 0x1 PUSH1 0x0 SWAP1 SLOAD SWAP1 PUSH2 0x100 EXP SWAP1 DIV PUSH20 0xFFFFFFFFFFFFFFFFFFFFFFFFFFFFFFFFFFFFFFFF AND PUSH20 0xFFFFFFFFFFFFFFFFFFFFFFFFFFFFFFFFFFFFFFFF AND PUSH4 0xD0E30DB0 CALLVALUE PUSH1 0x40 MLOAD DUP3 PUSH4 0xFFFFFFFF AND PUSH1 0xE0 SHL DUP2 MSTORE PUSH1 0x4 ADD PUSH1 0x0 PUSH1 0x40 MLOAD DUP1 DUP4 SUB DUP2 DUP6 DUP9 DUP1 EXTCODESIZE ISZERO DUP1 ISZERO PUSH2 0x10B JUMPI PUSH1 0x0 DUP1 REVERT JUMPDEST POP GAS CALL ISZERO DUP1 ISZERO PUSH2 0x11F JUMPI RETURNDATASIZE PUSH1 0x0 DUP1 RETURNDATACOPY RETURNDATASIZE PUSH1 0x0 REVERT JUMPDEST POP POP POP POP POP STOP JUMPDEST CALLVALUE DUP1 ISZERO PUSH2 0x132 JUMPI PUSH1 0x0 DUP1 REVERT JUMPDEST POP PUSH2 0x13B PUSH2 0x2A3 JUMP JUMPDEST PUSH1 0x40 MLOAD PUSH2 0x148 SWAP2 SWAP1 PUSH2 0xAEE JUMP JUMPDEST PUSH1 0x40 MLOAD DUP1 SWAP2 SUB SWAP1 RETURN JUMPDEST CALLVALUE DUP1 ISZERO PUSH2 0x15D JUMPI PUSH1 0x0 DUP1 REVERT JUMPDEST POP PUSH2 0x178 PUSH1 0x4 DUP1 CALLDATASIZE SUB DUP2 ADD SWAP1 PUSH2 0x173 SWAP2 SWAP1 PUSH2 0xBEC JUMP JUMPDEST PUSH2 0x2C7 JUMP JUMPDEST PUSH1 0x40 MLOAD PUSH2 0x185 SWAP2 SWAP1 PUSH2 0xCA1 JUMP JUMPDEST PUSH1 0x40 MLOAD DUP1 SWAP2 SUB SWAP1 RETURN JUMPDEST CALLVALUE DUP1 ISZERO PUSH2 0x19A JUMPI PUSH1 0x0 DUP1 REVERT JUMPDEST POP PUSH2 0x1A3 PUSH2 0x58F JUMP JUMPDEST PUSH1 0x40 MLOAD PUSH2 0x1B0 SWAP2 SWAP1 PUSH2 0xCDD JUMP JUMPDEST PUSH1 0x40 MLOAD DUP1 SWAP2 SUB SWAP1 RETURN JUMPDEST CALLVALUE DUP1 ISZERO PUSH2 0x1C5 JUMPI PUSH1 0x0 DUP1 REVERT JUMPDEST POP PUSH2 0x1CE PUSH2 0x5B5 JUMP JUMPDEST PUSH1 0x40 MLOAD PUSH2 0x1DB SWAP2 SWAP1 PUSH2 0xD19 JUMP JUMPDEST PUSH1 0x40 MLOAD DUP1 SWAP2 SUB SWAP1 RETURN JUMPDEST CALLVALUE DUP1 ISZERO PUSH2 0x1F0 JUMPI PUSH1 0x0 DUP1 REVERT JUMPDEST POP PUSH2 0x20B PUSH1 0x4 DUP1 CALLDATASIZE SUB DUP2 ADD SWAP1 PUSH2 0x206 SWAP2 SWAP1 PUSH2 0xD34 JUMP JUMPDEST PUSH2 0x5DB JUMP JUMPDEST STOP JUMPDEST CALLVALUE DUP1 ISZERO PUSH2 0x219 JUMPI PUSH1 0x0 DUP1 REVERT JUMPDEST POP PUSH2 0x222 PUSH2 0x76A JUMP JUMPDEST PUSH1 0x40 MLOAD PUSH2 0x22F SWAP2 SWAP1 PUSH2 0xD82 JUMP JUMPDEST PUSH1 0x40 MLOAD DUP1 SWAP2 SUB SWAP1 RETURN JUMPDEST CALLVALUE DUP1 ISZERO PUSH2 0x244 JUMPI PUSH1 0x0 DUP1 REVERT JUMPDEST POP PUSH2 0x24D PUSH2 0x78E JUMP JUMPDEST PUSH1 0x40 MLOAD PUSH2 0x25A SWAP2 SWAP1 PUSH2 0xDBE JUMP JUMPDEST PUSH1 0x40 MLOAD DUP1 SWAP2 SUB SWAP1 RETURN JUMPDEST CALLVALUE DUP1 ISZERO PUSH2 0x26F JUMPI PUSH1 0x0 DUP1 REVERT JUMPDEST POP PUSH2 0x278 PUSH2 0x7B2 JUMP JUMPDEST STOP JUMPDEST CALLVALUE DUP1 ISZERO PUSH2 0x286 JUMPI PUSH1 0x0 DUP1 REVERT JUMPDEST POP PUSH2 0x2A1 PUSH1 0x4 DUP1 CALLDATASIZE SUB DUP2 ADD SWAP1 PUSH2 0x29C SWAP2 SWAP1 PUSH2 0xDD9 JUMP JUMPDEST PUSH2 0x920 JUMP JUMPDEST STOP JUMPDEST PUSH32 0x0 DUP2 JUMP JUMPDEST PUSH1 0x0 PUSH32 0x0 PUSH20 0xFFFFFFFFFFFFFFFFFFFFFFFFFFFFFFFFFFFFFFFF AND CALLER PUSH20 0xFFFFFFFFFFFFFFFFFFFFFFFFFFFFFFFFFFFFFFFF AND EQ PUSH2 0x357 JUMPI PUSH1 0x40 MLOAD PUSH32 0x8C379A000000000000000000000000000000000000000000000000000000000 DUP2 MSTORE PUSH1 0x4 ADD PUSH2 0x34E SWAP1 PUSH2 0xE76 JUMP JUMPDEST PUSH1 0x40 MLOAD DUP1 SWAP2 SUB SWAP1 REVERT JUMPDEST PUSH1 0x1 PUSH1 0x0 SWAP1 SLOAD SWAP1 PUSH2 0x100 EXP SWAP1 DIV PUSH20 0xFFFFFFFFFFFFFFFFFFFFFFFFFFFFFFFFFFFFFFFF AND PUSH20 0xFFFFFFFFFFFFFFFFFFFFFFFFFFFFFFFFFFFFFFFF AND PUSH4 0x2E1A7D4D DUP8 PUSH1 0x40 MLOAD DUP3 PUSH4 0xFFFFFFFF AND PUSH1 0xE0 SHL DUP2 MSTORE PUSH1 0x4 ADD PUSH2 0x3B2 SWAP2 SWAP1 PUSH2 0xEA5 JUMP JUMPDEST PUSH1 0x0 PUSH1 0x40 MLOAD DUP1 DUP4 SUB DUP2 PUSH1 0x0 DUP8 DUP1 EXTCODESIZE ISZERO DUP1 ISZERO PUSH2 0x3CC JUMPI PUSH1 0x0 DUP1 REVERT JUMPDEST POP GAS CALL ISZERO DUP1 ISZERO PUSH2 0x3E0 JUMPI RETURNDATASIZE PUSH1 0x0 DUP1 RETURNDATACOPY RETURNDATASIZE PUSH1 0x0 REVERT JUMPDEST POP POP POP POP PUSH1 0x2 PUSH1 0x0 SWAP1 SLOAD SWAP1 PUSH2 0x100 EXP SWAP1 DIV PUSH20 0xFFFFFFFFFFFFFFFFFFFFFFFFFFFFFFFFFFFFFFFF AND PUSH20 0xFFFFFFFFFFFFFFFFFFFFFFFFFFFFFFFFFFFFFFFF AND PUSH4 0x3853682C DUP8 PUSH1 0x40 MLOAD DUP3 PUSH4 0xFFFFFFFF AND PUSH1 0xE0 SHL DUP2 MSTORE PUSH1 0x4 ADD PUSH2 0x43E SWAP1 PUSH2 0xF0C JUMP JUMPDEST PUSH1 0x0 PUSH1 0x40 MLOAD DUP1 DUP4 SUB DUP2 DUP6 DUP9 DUP1 EXTCODESIZE ISZERO DUP1 ISZERO PUSH2 0x457 JUMPI PUSH1 0x0 DUP1 REVERT JUMPDEST POP GAS CALL ISZERO DUP1 ISZERO PUSH2 0x46B JUMPI RETURNDATASIZE PUSH1 0x0 DUP1 RETURNDATACOPY RETURNDATASIZE PUSH1 0x0 REVERT JUMPDEST POP POP POP POP POP PUSH1 0x0 DUP6 DUP8 PUSH2 0x47E SWAP2 SWAP1 PUSH2 0xF5B JUMP JUMPDEST SWAP1 POP DUP8 PUSH20 0xFFFFFFFFFFFFFFFFFFFFFFFFFFFFFFFFFFFFFFFF AND PUSH4 0xD0E30DB0 DUP3 PUSH1 0x40 MLOAD DUP3 PUSH4 0xFFFFFFFF AND PUSH1 0xE0 SHL DUP2 MSTORE PUSH1 0x4 ADD PUSH1 0x0 PUSH1 0x40 MLOAD DUP1 DUP4 SUB DUP2 DUP6 DUP9 DUP1 EXTCODESIZE ISZERO DUP1 ISZERO PUSH2 0x4C8 JUMPI PUSH1 0x0 DUP1 REVERT JUMPDEST POP GAS CALL ISZERO DUP1 ISZERO PUSH2 0x4DC JUMPI RETURNDATASIZE PUSH1 0x0 DUP1 RETURNDATACOPY RETURNDATASIZE PUSH1 0x0 REVERT JUMPDEST POP POP POP POP POP DUP8 PUSH20 0xFFFFFFFFFFFFFFFFFFFFFFFFFFFFFFFFFFFFFFFF AND PUSH4 0x95EA7B3 PUSH32 0x0 DUP4 PUSH1 0x40 MLOAD DUP4 PUSH4 0xFFFFFFFF AND PUSH1 0xE0 SHL DUP2 MSTORE PUSH1 0x4 ADD PUSH2 0x53C SWAP3 SWAP2 SWAP1 PUSH2 0xFC0 JUMP JUMPDEST PUSH1 0x20 PUSH1 0x40 MLOAD DUP1 DUP4 SUB DUP2 PUSH1 0x0 DUP8 GAS CALL ISZERO DUP1 ISZERO PUSH2 0x55B JUMPI RETURNDATASIZE PUSH1 0x0 DUP1 RETURNDATACOPY RETURNDATASIZE PUSH1 0x0 REVERT JUMPDEST POP POP POP POP PUSH1 0x40 MLOAD RETURNDATASIZE PUSH1 0x1F NOT PUSH1 0x1F DUP3 ADD AND DUP3 ADD DUP1 PUSH1 0x40 MSTORE POP DUP2 ADD SWAP1 PUSH2 0x57F SWAP2 SWAP1 PUSH2 0x1015 JUMP JUMPDEST POP PUSH1 0x1 SWAP2 POP POP SWAP7 SWAP6 POP POP POP POP POP POP JUMP JUMPDEST PUSH1 0x1 PUSH1 0x0 SWAP1 SLOAD SWAP1 PUSH2 0x100 EXP SWAP1 DIV PUSH20 0xFFFFFFFFFFFFFFFFFFFFFFFFFFFFFFFFFFFFFFFF AND DUP2 JUMP JUMPDEST PUSH1 0x2 PUSH1 0x0 SWAP1 SLOAD SWAP1 PUSH2 0x100 EXP SWAP1 DIV PUSH20 0xFFFFFFFFFFFFFFFFFFFFFFFFFFFFFFFFFFFFFFFF AND DUP2 JUMP JUMPDEST PUSH1 0x0 DUP1 SLOAD SWAP1 PUSH2 0x100 EXP SWAP1 DIV PUSH20 0xFFFFFFFFFFFFFFFFFFFFFFFFFFFFFFFFFFFFFFFF AND PUSH20 0xFFFFFFFFFFFFFFFFFFFFFFFFFFFFFFFFFFFFFFFF AND CALLER PUSH20 0xFFFFFFFFFFFFFFFFFFFFFFFFFFFFFFFFFFFFFFFF AND EQ PUSH2 0x669 JUMPI PUSH1 0x40 MLOAD PUSH32 0x8C379A000000000000000000000000000000000000000000000000000000000 DUP2 MSTORE PUSH1 0x4 ADD PUSH2 0x660 SWAP1 PUSH2 0x10B4 JUMP JUMPDEST PUSH1 0x40 MLOAD DUP1 SWAP2 SUB SWAP1 REVERT JUMPDEST PUSH1 0x0 DUP2 SWAP1 POP DUP1 PUSH20 0xFFFFFFFFFFFFFFFFFFFFFFFFFFFFFFFFFFFFFFFF AND PUSH4 0xA9059CBB CALLER DUP4 PUSH20 0xFFFFFFFFFFFFFFFFFFFFFFFFFFFFFFFFFFFFFFFF AND PUSH4 0x70A08231 ADDRESS PUSH1 0x40 MLOAD DUP3 PUSH4 0xFFFFFFFF AND PUSH1 0xE0 SHL DUP2 MSTORE PUSH1 0x4 ADD PUSH2 0x6C4 SWAP2 SWAP1 PUSH2 0x10D4 JUMP JUMPDEST PUSH1 0x20 PUSH1 0x40 MLOAD DUP1 DUP4 SUB DUP2 DUP7 GAS STATICCALL ISZERO DUP1 ISZERO PUSH2 0x6E1 JUMPI RETURNDATASIZE PUSH1 0x0 DUP1 RETURNDATACOPY RETURNDATASIZE PUSH1 0x0 REVERT JUMPDEST POP POP POP POP PUSH1 0x40 MLOAD RETURNDATASIZE PUSH1 0x1F NOT PUSH1 0x1F DUP3 ADD AND DUP3 ADD DUP1 PUSH1 0x40 MSTORE POP DUP2 ADD SWAP1 PUSH2 0x705 SWAP2 SWAP1 PUSH2 0x1104 JUMP JUMPDEST PUSH1 0x40 MLOAD DUP4 PUSH4 0xFFFFFFFF AND PUSH1 0xE0 SHL DUP2 MSTORE PUSH1 0x4 ADD PUSH2 0x722 SWAP3 SWAP2 SWAP1 PUSH2 0xFC0 JUMP JUMPDEST PUSH1 0x20 PUSH1 0x40 MLOAD DUP1 DUP4 SUB DUP2 PUSH1 0x0 DUP8 GAS CALL ISZERO DUP1 ISZERO PUSH2 0x741 JUMPI RETURNDATASIZE PUSH1 0x0 DUP1 RETURNDATACOPY RETURNDATASIZE PUSH1 0x0 REVERT JUMPDEST POP POP POP POP PUSH1 0x40 MLOAD RETURNDATASIZE PUSH1 0x1F NOT PUSH1 0x1F DUP3 ADD AND DUP3 ADD DUP1 PUSH1 0x40 MSTORE POP DUP2 ADD SWAP1 PUSH2 0x765 SWAP2 SWAP1 PUSH2 0x1015 JUMP JUMPDEST POP POP POP JUMP JUMPDEST PUSH32 0x0 DUP2 JUMP JUMPDEST PUSH1 0x0 DUP1 SLOAD SWAP1 PUSH2 0x100 EXP SWAP1 DIV PUSH20 0xFFFFFFFFFFFFFFFFFFFFFFFFFFFFFFFFFFFFFFFF AND DUP2 JUMP JUMPDEST PUSH1 0x0 DUP1 SLOAD SWAP1 PUSH2 0x100 EXP SWAP1 DIV PUSH20 0xFFFFFFFFFFFFFFFFFFFFFFFFFFFFFFFFFFFFFFFF AND PUSH20 0xFFFFFFFFFFFFFFFFFFFFFFFFFFFFFFFFFFFFFFFF AND CALLER PUSH20 0xFFFFFFFFFFFFFFFFFFFFFFFFFFFFFFFFFFFFFFFF AND EQ PUSH2 0x840 JUMPI PUSH1 0x40 MLOAD PUSH32 0x8C379A000000000000000000000000000000000000000000000000000000000 DUP2 MSTORE PUSH1 0x4 ADD PUSH2 0x837 SWAP1 PUSH2 0x10B4 JUMP JUMPDEST PUSH1 0x40 MLOAD DUP1 SWAP2 SUB SWAP1 REVERT JUMPDEST PUSH1 0x0 SELFBALANCE SWAP1 POP PUSH1 0x0 DUP2 GT ISZERO PUSH2 0x91D JUMPI PUSH1 0x0 DUP1 PUSH1 0x0 SWAP1 SLOAD SWAP1 PUSH2 0x100 EXP SWAP1 DIV PUSH20 0xFFFFFFFFFFFFFFFFFFFFFFFFFFFFFFFFFFFFFFFF AND PUSH20 0xFFFFFFFFFFFFFFFFFFFFFFFFFFFFFFFFFFFFFFFF AND DUP3 PUSH1 0x40 MLOAD PUSH2 0x895 SWAP1 PUSH2 0x1162 JUMP JUMPDEST PUSH1 0x0 PUSH1 0x40 MLOAD DUP1 DUP4 SUB DUP2 DUP6 DUP8 GAS CALL SWAP3 POP POP POP RETURNDATASIZE DUP1 PUSH1 0x0 DUP2 EQ PUSH2 0x8D2 JUMPI PUSH1 0x40 MLOAD SWAP2 POP PUSH1 0x1F NOT PUSH1 0x3F RETURNDATASIZE ADD AND DUP3 ADD PUSH1 0x40 MSTORE RETURNDATASIZE DUP3 MSTORE RETURNDATASIZE PUSH1 0x0 PUSH1 0x20 DUP5 ADD RETURNDATACOPY PUSH2 0x8D7 JUMP JUMPDEST PUSH1 0x60 SWAP2 POP JUMPDEST POP POP SWAP1 POP DUP1 PUSH2 0x91B JUMPI PUSH1 0x40 MLOAD PUSH32 0x8C379A000000000000000000000000000000000000000000000000000000000 DUP2 MSTORE PUSH1 0x4 ADD PUSH2 0x912 SWAP1 PUSH2 0x11C3 JUMP JUMPDEST PUSH1 0x40 MLOAD DUP1 SWAP2 SUB SWAP1 REVERT JUMPDEST POP JUMPDEST POP JUMP JUMPDEST PUSH1 0x0 DUP1 SLOAD SWAP1 PUSH2 0x100 EXP SWAP1 DIV PUSH20 0xFFFFFFFFFFFFFFFFFFFFFFFFFFFFFFFFFFFFFFFF AND PUSH20 0xFFFFFFFFFFFFFFFFFFFFFFFFFFFFFFFFFFFFFFFF AND CALLER PUSH20 0xFFFFFFFFFFFFFFFFFFFFFFFFFFFFFFFFFFFFFFFF AND EQ PUSH2 0x9AE JUMPI PUSH1 0x40 MLOAD PUSH32 0x8C379A000000000000000000000000000000000000000000000000000000000 DUP2 MSTORE PUSH1 0x4 ADD PUSH2 0x9A5 SWAP1 PUSH2 0x10B4 JUMP JUMPDEST PUSH1 0x40 MLOAD DUP1 SWAP2 SUB SWAP1 REVERT JUMPDEST PUSH1 0x0 ADDRESS SWAP1 POP PUSH1 0x0 DUP4 SWAP1 POP PUSH1 0x0 DUP4 SWAP1 POP PUSH1 0x0 PUSH1 0x40 MLOAD DUP1 PUSH1 0x20 ADD PUSH1 0x40 MSTORE DUP1 PUSH1 0x0 DUP2 MSTORE POP SWAP1 POP PUSH1 0x0 PUSH32 0x0 PUSH20 0xFFFFFFFFFFFFFFFFFFFFFFFFFFFFFFFFFFFFFFFF AND PUSH4 0x42B0B77C DUP7 DUP7 DUP7 DUP7 DUP7 PUSH1 0x40 MLOAD DUP7 PUSH4 0xFFFFFFFF AND PUSH1 0xE0 SHL DUP2 MSTORE PUSH1 0x4 ADD PUSH2 0xA34 SWAP6 SWAP5 SWAP4 SWAP3 SWAP2 SWAP1 PUSH2 0x1299 JUMP JUMPDEST PUSH1 0x0 PUSH1 0x40 MLOAD DUP1 DUP4 SUB DUP2 PUSH1 0x0 DUP8 DUP1 EXTCODESIZE ISZERO DUP1 ISZERO PUSH2 0xA4E JUMPI PUSH1 0x0 DUP1 REVERT JUMPDEST POP GAS CALL ISZERO DUP1 ISZERO PUSH2 0xA62 JUMPI RETURNDATASIZE PUSH1 0x0 DUP1 RETURNDATACOPY RETURNDATASIZE PUSH1 0x0 REVERT JUMPDEST POP POP POP POP POP POP POP POP POP POP POP JUMP JUMPDEST PUSH1 0x0 PUSH20 0xFFFFFFFFFFFFFFFFFFFFFFFFFFFFFFFFFFFFFFFF DUP3 AND SWAP1 POP SWAP2 SWAP1 POP JUMP JUMPDEST PUSH1 0x0 DUP2 SWAP1 POP SWAP2 SWAP1 POP JUMP JUMPDEST PUSH1 0x0 PUSH2 0xAB4 PUSH2 0xAAF PUSH2 0xAAA DUP5 PUSH2 0xA6F JUMP JUMPDEST PUSH2 0xA8F JUMP JUMPDEST PUSH2 0xA6F JUMP JUMPDEST SWAP1 POP SWAP2 SWAP1 POP JUMP JUMPDEST PUSH1 0x0 PUSH2 0xAC6 DUP3 PUSH2 0xA99 JUMP JUMPDEST SWAP1 POP SWAP2 SWAP1 POP JUMP JUMPDEST PUSH1 0x0 PUSH2 0xAD8 DUP3 PUSH2 0xABB JUMP JUMPDEST SWAP1 POP SWAP2 SWAP1 POP JUMP JUMPDEST PUSH2 0xAE8 DUP2 PUSH2 0xACD JUMP JUMPDEST DUP3 MSTORE POP POP JUMP JUMPDEST PUSH1 0x0 PUSH1 0x20 DUP3 ADD SWAP1 POP PUSH2 0xB03 PUSH1 0x0 DUP4 ADD DUP5 PUSH2 0xADF JUMP JUMPDEST SWAP3 SWAP2 POP POP JUMP JUMPDEST PUSH1 0x0 DUP1 REVERT JUMPDEST PUSH1 0x0 DUP1 REVERT JUMPDEST PUSH1 0x0 PUSH2 0xB1E DUP3 PUSH2 0xA6F JUMP JUMPDEST SWAP1 POP SWAP2 SWAP1 POP JUMP JUMPDEST PUSH2 0xB2E DUP2 PUSH2 0xB13 JUMP JUMPDEST DUP2 EQ PUSH2 0xB39 JUMPI PUSH1 0x0 DUP1 REVERT JUMPDEST POP JUMP JUMPDEST PUSH1 0x0 DUP2 CALLDATALOAD SWAP1 POP PUSH2 0xB4B DUP2 PUSH2 0xB25 JUMP JUMPDEST SWAP3 SWAP2 POP POP JUMP JUMPDEST PUSH1 0x0 DUP2 SWAP1 POP SWAP2 SWAP1 POP JUMP JUMPDEST PUSH2 0xB64 DUP2 PUSH2 0xB51 JUMP JUMPDEST DUP2 EQ PUSH2 0xB6F JUMPI PUSH1 0x0 DUP1 REVERT JUMPDEST POP JUMP JUMPDEST PUSH1 0x0 DUP2 CALLDATALOAD SWAP1 POP PUSH2 0xB81 DUP2 PUSH2 0xB5B JUMP JUMPDEST SWAP3 SWAP2 POP POP JUMP JUMPDEST PUSH1 0x0 DUP1 REVERT JUMPDEST PUSH1 0x0 DUP1 REVERT JUMPDEST PUSH1 0x0 DUP1 REVERT JUMPDEST PUSH1 0x0 DUP1 DUP4 PUSH1 0x1F DUP5 ADD SLT PUSH2 0xBAC JUMPI PUSH2 0xBAB PUSH2 0xB87 JUMP JUMPDEST JUMPDEST DUP3 CALLDATALOAD SWAP1 POP PUSH8 0xFFFFFFFFFFFFFFFF DUP2 GT ISZERO PUSH2 0xBC9 JUMPI PUSH2 0xBC8 PUSH2 0xB8C JUMP JUMPDEST JUMPDEST PUSH1 0x20 DUP4 ADD SWAP2 POP DUP4 PUSH1 0x1 DUP3 MUL DUP4 ADD GT ISZERO PUSH2 0xBE5 JUMPI PUSH2 0xBE4 PUSH2 0xB91 JUMP JUMPDEST JUMPDEST SWAP3 POP SWAP3 SWAP1 POP JUMP JUMPDEST PUSH1 0x0 DUP1 PUSH1 0x0 DUP1 PUSH1 0x0 DUP1 PUSH1 0xA0 DUP8 DUP10 SUB SLT ISZERO PUSH2 0xC09 JUMPI PUSH2 0xC08 PUSH2 0xB09 JUMP JUMPDEST JUMPDEST PUSH1 0x0 PUSH2 0xC17 DUP10 DUP3 DUP11 ADD PUSH2 0xB3C JUMP JUMPDEST SWAP7 POP POP PUSH1 0x20 PUSH2 0xC28 DUP10 DUP3 DUP11 ADD PUSH2 0xB72 JUMP JUMPDEST SWAP6 POP POP PUSH1 0x40 PUSH2 0xC39 DUP10 DUP3 DUP11 ADD PUSH2 0xB72 JUMP JUMPDEST SWAP5 POP POP PUSH1 0x60 PUSH2 0xC4A DUP10 DUP3 DUP11 ADD PUSH2 0xB3C JUMP JUMPDEST SWAP4 POP POP PUSH1 0x80 DUP8 ADD CALLDATALOAD PUSH8 0xFFFFFFFFFFFFFFFF DUP2 GT ISZERO PUSH2 0xC6B JUMPI PUSH2 0xC6A PUSH2 0xB0E JUMP JUMPDEST JUMPDEST PUSH2 0xC77 DUP10 DUP3 DUP11 ADD PUSH2 0xB96 JUMP JUMPDEST SWAP3 POP SWAP3 POP POP SWAP3 SWAP6 POP SWAP3 SWAP6 POP SWAP3 SWAP6 JUMP JUMPDEST PUSH1 0x0 DUP2 ISZERO ISZERO SWAP1 POP SWAP2 SWAP1 POP JUMP JUMPDEST PUSH2 0xC9B DUP2 PUSH2 0xC86 JUMP JUMPDEST DUP3 MSTORE POP POP JUMP JUMPDEST PUSH1 0x0 PUSH1 0x20 DUP3 ADD SWAP1 POP PUSH2 0xCB6 PUSH1 0x0 DUP4 ADD DUP5 PUSH2 0xC92 JUMP JUMPDEST SWAP3 SWAP2 POP POP JUMP JUMPDEST PUSH1 0x0 PUSH2 0xCC7 DUP3 PUSH2 0xABB JUMP JUMPDEST SWAP1 POP SWAP2 SWAP1 POP JUMP JUMPDEST PUSH2 0xCD7 DUP2 PUSH2 0xCBC JUMP JUMPDEST DUP3 MSTORE POP POP JUMP JUMPDEST PUSH1 0x0 PUSH1 0x20 DUP3 ADD SWAP1 POP PUSH2 0xCF2 PUSH1 0x0 DUP4 ADD DUP5 PUSH2 0xCCE JUMP JUMPDEST SWAP3 SWAP2 POP POP JUMP JUMPDEST PUSH1 0x0 PUSH2 0xD03 DUP3 PUSH2 0xABB JUMP JUMPDEST SWAP1 POP SWAP2 SWAP1 POP JUMP JUMPDEST PUSH2 0xD13 DUP2 PUSH2 0xCF8 JUMP JUMPDEST DUP3 MSTORE POP POP JUMP JUMPDEST PUSH1 0x0 PUSH1 0x20 DUP3 ADD SWAP1 POP PUSH2 0xD2E PUSH1 0x0 DUP4 ADD DUP5 PUSH2 0xD0A JUMP JUMPDEST SWAP3 SWAP2 POP POP JUMP JUMPDEST PUSH1 0x0 PUSH1 0x20 DUP3 DUP5 SUB SLT ISZERO PUSH2 0xD4A JUMPI PUSH2 0xD49 PUSH2 0xB09 JUMP JUMPDEST JUMPDEST PUSH1 0x0 PUSH2 0xD58 DUP5 DUP3 DUP6 ADD PUSH2 0xB3C JUMP JUMPDEST SWAP2 POP POP SWAP3 SWAP2 POP POP JUMP JUMPDEST PUSH1 0x0 PUSH2 0xD6C DUP3 PUSH2 0xABB JUMP JUMPDEST SWAP1 POP SWAP2 SWAP1 POP JUMP JUMPDEST PUSH2 0xD7C DUP2 PUSH2 0xD61 JUMP JUMPDEST DUP3 MSTORE POP POP JUMP JUMPDEST PUSH1 0x0 PUSH1 0x20 DUP3 ADD SWAP1 POP PUSH2 0xD97 PUSH1 0x0 DUP4 ADD DUP5 PUSH2 0xD73 JUMP JUMPDEST SWAP3 SWAP2 POP POP JUMP JUMPDEST PUSH1 0x0 PUSH2 0xDA8 DUP3 PUSH2 0xA6F JUMP JUMPDEST SWAP1 POP SWAP2 SWAP1 POP JUMP JUMPDEST PUSH2 0xDB8 DUP2 PUSH2 0xD9D JUMP JUMPDEST DUP3 MSTORE POP POP JUMP JUMPDEST PUSH1 0x0 PUSH1 0x20 DUP3 ADD SWAP1 POP PUSH2 0xDD3 PUSH1 0x0 DUP4 ADD DUP5 PUSH2 0xDAF JUMP JUMPDEST SWAP3 SWAP2 POP POP JUMP JUMPDEST PUSH1 0x0 DUP1 PUSH1 0x40 DUP4 DUP6 SUB SLT ISZERO PUSH2 0xDF0 JUMPI PUSH2 0xDEF PUSH2 0xB09 JUMP JUMPDEST JUMPDEST PUSH1 0x0 PUSH2 0xDFE DUP6 DUP3 DUP7 ADD PUSH2 0xB3C JUMP JUMPDEST SWAP3 POP POP PUSH1 0x20 PUSH2 0xE0F DUP6 DUP3 DUP7 ADD PUSH2 0xB72 JUMP JUMPDEST SWAP2 POP POP SWAP3 POP SWAP3 SWAP1 POP JUMP JUMPDEST PUSH1 0x0 DUP3 DUP3 MSTORE PUSH1 0x20 DUP3 ADD SWAP1 POP SWAP3 SWAP2 POP POP JUMP JUMPDEST PUSH32 0x43616C6C6572206D75737420626520706F6F6C00000000000000000000000000 PUSH1 0x0 DUP3 ADD MSTORE POP JUMP JUMPDEST PUSH1 0x0 PUSH2 0xE60 PUSH1 0x13 DUP4 PUSH2 0xE19 JUMP JUMPDEST SWAP2 POP PUSH2 0xE6B DUP3 PUSH2 0xE2A JUMP JUMPDEST PUSH1 0x20 DUP3 ADD SWAP1 POP SWAP2 SWAP1 POP JUMP JUMPDEST PUSH1 0x0 PUSH1 0x20 DUP3 ADD SWAP1 POP DUP2 DUP2 SUB PUSH1 0x0 DUP4 ADD MSTORE PUSH2 0xE8F DUP2 PUSH2 0xE53 JUMP JUMPDEST SWAP1 POP SWAP2 SWAP1 POP JUMP JUMPDEST PUSH2 0xE9F DUP2 PUSH2 0xB51 JUMP JUMPDEST DUP3 MSTORE POP POP JUMP JUMPDEST PUSH1 0x0 PUSH1 0x20 DUP3 ADD SWAP1 POP PUSH2 0xEBA PUSH1 0x0 DUP4 ADD DUP5 PUSH2 0xE96 JUMP JUMPDEST SWAP3 SWAP2 POP POP JUMP JUMPDEST PUSH32 0x4120626172626552000000000000000000000000000000000000000000000000 PUSH1 0x0 DUP3 ADD MSTORE POP JUMP JUMPDEST PUSH1 0x0 PUSH2 0xEF6 PUSH1 0x8 DUP4 PUSH2 0xE19 JUMP JUMPDEST SWAP2 POP PUSH2 0xF01 DUP3 PUSH2 0xEC0 JUMP JUMPDEST PUSH1 0x20 DUP3 ADD SWAP1 POP SWAP2 SWAP1 POP JUMP JUMPDEST PUSH1 0x0 PUSH1 0x20 DUP3 ADD SWAP1 POP DUP2 DUP2 SUB PUSH1 0x0 DUP4 ADD MSTORE PUSH2 0xF25 DUP2 PUSH2 0xEE9 JUMP JUMPDEST SWAP1 POP SWAP2 SWAP1 POP JUMP JUMPDEST PUSH32 0x4E487B7100000000000000000000000000000000000000000000000000000000 PUSH1 0x0 MSTORE PUSH1 0x11 PUSH1 0x4 MSTORE PUSH1 0x24 PUSH1 0x0 REVERT JUMPDEST PUSH1 0x0 PUSH2 0xF66 DUP3 PUSH2 0xB51 JUMP JUMPDEST SWAP2 POP PUSH2 0xF71 DUP4 PUSH2 0xB51 JUMP JUMPDEST SWAP3 POP DUP3 PUSH32 0xFFFFFFFFFFFFFFFFFFFFFFFFFFFFFFFFFFFFFFFFFFFFFFFFFFFFFFFFFFFFFFFF SUB DUP3 GT ISZERO PUSH2 0xFA6 JUMPI PUSH2 0xFA5 PUSH2 0xF2C JUMP JUMPDEST JUMPDEST DUP3 DUP3 ADD SWAP1 POP SWAP3 SWAP2 POP POP JUMP JUMPDEST PUSH2 0xFBA DUP2 PUSH2 0xB13 JUMP JUMPDEST DUP3 MSTORE POP POP JUMP JUMPDEST PUSH1 0x0 PUSH1 0x40 DUP3 ADD SWAP1 POP PUSH2 0xFD5 PUSH1 0x0 DUP4 ADD DUP6 PUSH2 0xFB1 JUMP JUMPDEST PUSH2 0xFE2 PUSH1 0x20 DUP4 ADD DUP5 PUSH2 0xE96 JUMP JUMPDEST SWAP4 SWAP3 POP POP POP JUMP JUMPDEST PUSH2 0xFF2 DUP2 PUSH2 0xC86 JUMP JUMPDEST DUP2 EQ PUSH2 0xFFD JUMPI PUSH1 0x0 DUP1 REVERT JUMPDEST POP JUMP JUMPDEST PUSH1 0x0 DUP2 MLOAD SWAP1 POP PUSH2 0x100F DUP2 PUSH2 0xFE9 JUMP JUMPDEST SWAP3 SWAP2 POP POP JUMP JUMPDEST PUSH1 0x0 PUSH1 0x20 DUP3 DUP5 SUB SLT ISZERO PUSH2 0x102B JUMPI PUSH2 0x102A PUSH2 0xB09 JUMP JUMPDEST JUMPDEST PUSH1 0x0 PUSH2 0x1039 DUP5 DUP3 DUP6 ADD PUSH2 0x1000 JUMP JUMPDEST SWAP2 POP POP SWAP3 SWAP2 POP POP JUMP JUMPDEST PUSH32 0x4F6E6C792074686520636F6E7472616374206F776E65722063616E2063616C6C PUSH1 0x0 DUP3 ADD MSTORE PUSH32 0x20746869732066756E6374696F6E000000000000000000000000000000000000 PUSH1 0x20 DUP3 ADD MSTORE POP JUMP JUMPDEST PUSH1 0x0 PUSH2 0x109E PUSH1 0x2E DUP4 PUSH2 0xE19 JUMP JUMPDEST SWAP2 POP PUSH2 0x10A9 DUP3 PUSH2 0x1042 JUMP JUMPDEST PUSH1 0x40 DUP3 ADD SWAP1 POP SWAP2 SWAP1 POP JUMP JUMPDEST PUSH1 0x0 PUSH1 0x20 DUP3 ADD SWAP1 POP DUP2 DUP2 SUB PUSH1 0x0 DUP4 ADD MSTORE PUSH2 0x10CD DUP2 PUSH2 0x1091 JUMP JUMPDEST SWAP1 POP SWAP2 SWAP1 POP JUMP JUMPDEST PUSH1 0x0 PUSH1 0x20 DUP3 ADD SWAP1 POP PUSH2 0x10E9 PUSH1 0x0 DUP4 ADD DUP5 PUSH2 0xFB1 JUMP JUMPDEST SWAP3 SWAP2 POP POP JUMP JUMPDEST PUSH1 0x0 DUP2 MLOAD SWAP1 POP PUSH2 0x10FE DUP2 PUSH2 0xB5B JUMP JUMPDEST SWAP3 SWAP2 POP POP JUMP JUMPDEST PUSH1 0x0 PUSH1 0x20 DUP3 DUP5 SUB SLT ISZERO PUSH2 0x111A JUMPI PUSH2 0x1119 PUSH2 0xB09 JUMP JUMPDEST JUMPDEST PUSH1 0x0 PUSH2 0x1128 DUP5 DUP3 DUP6 ADD PUSH2 0x10EF JUMP JUMPDEST SWAP2 POP POP SWAP3 SWAP2 POP POP JUMP JUMPDEST PUSH1 0x0 DUP2 SWAP1 POP SWAP3 SWAP2 POP POP JUMP JUMPDEST POP JUMP JUMPDEST PUSH1 0x0 PUSH2 0x114C PUSH1 0x0 DUP4 PUSH2 0x1131 JUMP JUMPDEST SWAP2 POP PUSH2 0x1157 DUP3 PUSH2 0x113C JUMP JUMPDEST PUSH1 0x0 DUP3 ADD SWAP1 POP SWAP2 SWAP1 POP JUMP JUMPDEST PUSH1 0x0 PUSH2 0x116D DUP3 PUSH2 0x113F JUMP JUMPDEST SWAP2 POP DUP2 SWAP1 POP SWAP2 SWAP1 POP JUMP JUMPDEST PUSH32 0x4661696C656420746F2073656E64204574686572000000000000000000000000 PUSH1 0x0 DUP3 ADD MSTORE POP JUMP JUMPDEST PUSH1 0x0 PUSH2 0x11AD PUSH1 0x14 DUP4 PUSH2 0xE19 JUMP JUMPDEST SWAP2 POP PUSH2 0x11B8 DUP3 PUSH2 0x1177 JUMP JUMPDEST PUSH1 0x20 DUP3 ADD SWAP1 POP SWAP2 SWAP1 POP JUMP JUMPDEST PUSH1 0x0 PUSH1 0x20 DUP3 ADD SWAP1 POP DUP2 DUP2 SUB PUSH1 0x0 DUP4 ADD MSTORE PUSH2 0x11DC DUP2 PUSH2 0x11A0 JUMP JUMPDEST SWAP1 POP SWAP2 SWAP1 POP JUMP JUMPDEST PUSH1 0x0 DUP2 MLOAD SWAP1 POP SWAP2 SWAP1 POP JUMP JUMPDEST PUSH1 0x0 DUP3 DUP3 MSTORE PUSH1 0x20 DUP3 ADD SWAP1 POP SWAP3 SWAP2 POP POP JUMP JUMPDEST PUSH1 0x0 JUMPDEST DUP4 DUP2 LT ISZERO PUSH2 0x121D JUMPI DUP1 DUP3 ADD MLOAD DUP2 DUP5 ADD MSTORE PUSH1 0x20 DUP2 ADD SWAP1 POP PUSH2 0x1202 JUMP JUMPDEST DUP4 DUP2 GT ISZERO PUSH2 0x122C JUMPI PUSH1 0x0 DUP5 DUP5 ADD MSTORE JUMPDEST POP POP POP POP JUMP JUMPDEST PUSH1 0x0 PUSH1 0x1F NOT PUSH1 0x1F DUP4 ADD AND SWAP1 POP SWAP2 SWAP1 POP JUMP JUMPDEST PUSH1 0x0 PUSH2 0x124E DUP3 PUSH2 0x11E3 JUMP JUMPDEST PUSH2 0x1258 DUP2 DUP6 PUSH2 0x11EE JUMP JUMPDEST SWAP4 POP PUSH2 0x1268 DUP2 DUP6 PUSH1 0x20 DUP7 ADD PUSH2 0x11FF JUMP JUMPDEST PUSH2 0x1271 DUP2 PUSH2 0x1232 JUMP JUMPDEST DUP5 ADD SWAP2 POP POP SWAP3 SWAP2 POP POP JUMP JUMPDEST PUSH1 0x0 PUSH2 0xFFFF DUP3 AND SWAP1 POP SWAP2 SWAP1 POP JUMP JUMPDEST PUSH2 0x1293 DUP2 PUSH2 0x127C JUMP JUMPDEST DUP3 MSTORE POP POP JUMP JUMPDEST PUSH1 0x0 PUSH1 0xA0 DUP3 ADD SWAP1 POP PUSH2 0x12AE PUSH1 0x0 DUP4 ADD DUP9 PUSH2 0xFB1 JUMP JUMPDEST PUSH2 0x12BB PUSH1 0x20 DUP4 ADD DUP8 PUSH2 0xFB1 JUMP JUMPDEST PUSH2 0x12C8 PUSH1 0x40 DUP4 ADD DUP7 PUSH2 0xE96 JUMP JUMPDEST DUP2 DUP2 SUB PUSH1 0x60 DUP4 ADD MSTORE PUSH2 0x12DA DUP2 DUP6 PUSH2 0x1243 JUMP JUMPDEST SWAP1 POP PUSH2 0x12E9 PUSH1 0x80 DUP4 ADD DUP5 PUSH2 0x128A JUMP JUMPDEST SWAP7 SWAP6 POP POP POP POP POP POP JUMP INVALID LOG2 PUSH5 0x6970667358 0x22 SLT KECCAK256 CREATE XOR 0xC7 RETURNDATASIZE PUSH28 0x71EFEBE63AFD7B8935BA38D50F79098FFE11F41894AD16BE68438664 PUSH20 0x6F6C634300080A00330000000000000000000000 "
		},
		"gasEstimates": {
			"creation": {
				"codeDepositCost": "981000",
				"executionCost": "infinite",
				"totalCost": "infinite"
			},
			"external": {
				"": "infinite",
				"ADDRESSES_PROVIDER()": "infinite",
				"POOL()": "infinite",
				"challengeContract()": "infinite",
				"executeOperation(address,uint256,uint256,address,bytes)": "infinite",
				"owner()": "2555",
				"requestFlashLoan(address,uint256)": "infinite",
				"weth()": "infinite",
				"withdraw(address)": "infinite",
				"withdrawAllETH()": "infinite"
			}
		},
		"methodIdentifiers": {
			"ADDRESSES_PROVIDER()": "0542975c",
			"POOL()": "7535d246",
			"challengeContract()": "438031c3",
			"executeOperation(address,uint256,uint256,address,bytes)": "1b11d0ff",
			"owner()": "8da5cb5b",
			"requestFlashLoan(address,uint256)": "d54ba954",
			"weth()": "3fc8cef3",
			"withdraw(address)": "51cff8d9",
			"withdrawAllETH()": "90386bbf"
		}
	},
	"abi": [
		{
			"inputs": [
				{
					"internalType": "address",
					"name": "_addressProvider",
					"type": "address"
				},
				{
					"internalType": "address",
					"name": "_challengeContract",
					"type": "address"
				},
				{
					"internalType": "address",
					"name": "_wethAddress",
					"type": "address"
				}
			],
			"stateMutability": "nonpayable",
			"type": "constructor"
		},
		{
			"stateMutability": "payable",
			"type": "fallback"
		},
		{
			"inputs": [],
			"name": "ADDRESSES_PROVIDER",
			"outputs": [
				{
					"internalType": "contract IPoolAddressesProvider",
					"name": "",
					"type": "address"
				}
			],
			"stateMutability": "view",
			"type": "function"
		},
		{
			"inputs": [],
			"name": "POOL",
			"outputs": [
				{
					"internalType": "contract IPool",
					"name": "",
					"type": "address"
				}
			],
			"stateMutability": "view",
			"type": "function"
		},
		{
			"inputs": [],
			"name": "challengeContract",
			"outputs": [
				{
					"internalType": "contract IChallenge",
					"name": "",
					"type": "address"
				}
			],
			"stateMutability": "view",
			"type": "function"
		},
		{
			"inputs": [
				{
					"internalType": "address",
					"name": "asset",
					"type": "address"
				},
				{
					"internalType": "uint256",
					"name": "amount",
					"type": "uint256"
				},
				{
					"internalType": "uint256",
					"name": "premium",
					"type": "uint256"
				},
				{
					"internalType": "address",
					"name": "initiator",
					"type": "address"
				},
				{
					"internalType": "bytes",
					"name": "params",
					"type": "bytes"
				}
			],
			"name": "executeOperation",
			"outputs": [
				{
					"internalType": "bool",
					"name": "",
					"type": "bool"
				}
			],
			"stateMutability": "nonpayable",
			"type": "function"
		},
		{
			"inputs": [],
			"name": "owner",
			"outputs": [
				{
					"internalType": "address payable",
					"name": "",
					"type": "address"
				}
			],
			"stateMutability": "view",
			"type": "function"
		},
		{
			"inputs": [
				{
					"internalType": "address",
					"name": "_token",
					"type": "address"
				},
				{
					"internalType": "uint256",
					"name": "_amount",
					"type": "uint256"
				}
			],
			"name": "requestFlashLoan",
			"outputs": [],
			"stateMutability": "nonpayable",
			"type": "function"
		},
		{
			"inputs": [],
			"name": "weth",
			"outputs": [
				{
					"internalType": "contract IWETH",
					"name": "",
					"type": "address"
				}
			],
			"stateMutability": "view",
			"type": "function"
		},
		{
			"inputs": [
				{
					"internalType": "address",
					"name": "_tokenAddress",
					"type": "address"
				}
			],
			"name": "withdraw",
			"outputs": [],
			"stateMutability": "nonpayable",
			"type": "function"
		},
		{
			"inputs": [],
			"name": "withdrawAllETH",
			"outputs": [],
			"stateMutability": "nonpayable",
			"type": "function"
		},
		{
			"stateMutability": "payable",
			"type": "receive"
		}
	]
}