{
	"data": {
		"bytecode": {
			"linkReferences": {},
			"object": "60c060405234801561000f575f80fd5b506040516109ec3803806109ec8339818101604052810190610031919061017c565b808073ffffffffffffffffffffffffffffffffffffffff1660808173ffffffffffffffffffffffffffffffffffffffff16815250508073ffffffffffffffffffffffffffffffffffffffff1663026b1d5f6040518163ffffffff1660e01b8152600401602060405180830381865afa1580156100af573d5f803e3d5ffd5b505050506040513d601f19601f820116820180604052508101906100d391906101d1565b73ffffffffffffffffffffffffffffffffffffffff1660a08173ffffffffffffffffffffffffffffffffffffffff168152505050506101fc565b5f80fd5b5f73ffffffffffffffffffffffffffffffffffffffff82169050919050565b5f61013a82610111565b9050919050565b5f61014b82610130565b9050919050565b61015b81610141565b8114610165575f80fd5b50565b5f8151905061017681610152565b92915050565b5f602082840312156101915761019061010d565b5b5f61019e84828501610168565b91505092915050565b6101b081610130565b81146101ba575f80fd5b50565b5f815190506101cb816101a7565b92915050565b5f602082840312156101e6576101e561010d565b5b5f6101f3848285016101bd565b91505092915050565b60805160a0516107c261022a5f395f818161012801526102b801525f818160d801526101b801526107c25ff3fe608060405234801561000f575f80fd5b506004361061004a575f3560e01c80630542975c1461004e5780631b11d0ff1461006c5780635e2c1b3a1461009c5780637535d246146100b8575b5f80fd5b6100566100d6565b6040516100639190610354565b60405180910390f35b61008660048036038101906100819190610444565b6100fa565b60405161009391906104f4565b60405180910390f35b6100b660048036038101906100b1919061050d565b6101b5565b005b6100c06102b6565b6040516100cd919061056b565b60405180910390f35b7f000000000000000000000000000000000000000000000000000000000000000081565b5f80858761010891906105b1565b90508773ffffffffffffffffffffffffffffffffffffffff1663095ea7b37f0000000000000000000000000000000000000000000000000000000000000000836040518363ffffffff1660e01b8152600401610165929190610602565b6020604051808303815f875af1158015610181573d5f803e3d5ffd5b505050506040513d601f19601f820116820180604052508101906101a59190610653565b5060019150509695505050505050565b5f7f000000000000000000000000000000000000000000000000000000000000000073ffffffffffffffffffffffffffffffffffffffff1663026b1d5f6040518163ffffffff1660e01b8152600401602060405180830381865afa15801561021f573d5f803e3d5ffd5b505050506040513d601f19601f820116820180604052508101906102439190610692565b90508073ffffffffffffffffffffffffffffffffffffffff166342b0b77c3085855f6040518563ffffffff1660e01b81526004016102849493929190610736565b5f604051808303815f87803b15801561029b575f80fd5b505af11580156102ad573d5f803e3d5ffd5b50505050505050565b7f000000000000000000000000000000000000000000000000000000000000000081565b5f73ffffffffffffffffffffffffffffffffffffffff82169050919050565b5f819050919050565b5f61031c610317610312846102da565b6102f9565b6102da565b9050919050565b5f61032d82610302565b9050919050565b5f61033e82610323565b9050919050565b61034e81610334565b82525050565b5f6020820190506103675f830184610345565b92915050565b5f80fd5b5f80fd5b5f61037f826102da565b9050919050565b61038f81610375565b8114610399575f80fd5b50565b5f813590506103aa81610386565b92915050565b5f819050919050565b6103c2816103b0565b81146103cc575f80fd5b50565b5f813590506103dd816103b9565b92915050565b5f80fd5b5f80fd5b5f80fd5b5f8083601f840112610404576104036103e3565b5b8235905067ffffffffffffffff811115610421576104206103e7565b5b60208301915083600182028301111561043d5761043c6103eb565b5b9250929050565b5f805f805f8060a0878903121561045e5761045d61036d565b5b5f61046b89828a0161039c565b965050602061047c89828a016103cf565b955050604061048d89828a016103cf565b945050606061049e89828a0161039c565b935050608087013567ffffffffffffffff8111156104bf576104be610371565b5b6104cb89828a016103ef565b92509250509295509295509295565b5f8115159050919050565b6104ee816104da565b82525050565b5f6020820190506105075f8301846104e5565b92915050565b5f80604083850312156105235761052261036d565b5b5f6105308582860161039c565b9250506020610541858286016103cf565b9150509250929050565b5f61055582610323565b9050919050565b6105658161054b565b82525050565b5f60208201905061057e5f83018461055c565b92915050565b7f4e487b71000000000000000000000000000000000000000000000000000000005f52601160045260245ffd5b5f6105bb826103b0565b91506105c6836103b0565b92508282019050808211156105de576105dd610584565b5b92915050565b6105ed81610375565b82525050565b6105fc816103b0565b82525050565b5f6040820190506106155f8301856105e4565b61062260208301846105f3565b9392505050565b610632816104da565b811461063c575f80fd5b50565b5f8151905061064d81610629565b92915050565b5f602082840312156106685761066761036d565b5b5f6106758482850161063f565b91505092915050565b5f8151905061068c81610386565b92915050565b5f602082840312156106a7576106a661036d565b5b5f6106b48482850161067e565b91505092915050565b5f82825260208201905092915050565b50565b5f6106db5f836106bd565b91506106e6826106cd565b5f82019050919050565b5f819050919050565b5f61ffff82169050919050565b5f61072061071b610716846106f0565b6102f9565b6106f9565b9050919050565b61073081610706565b82525050565b5f60a0820190506107495f8301876105e4565b61075660208301866105e4565b61076360408301856105f3565b8181036060830152610774816106d0565b90506107836080830184610727565b9594505050505056fea264697066735822122065b1f4441e624c8ca6f707145b58214dc8988c4cffe5ff09d15ee41e1d808d3664736f6c63430008190033",
			"opcodes": "PUSH1 0xC0 PUSH1 0x40 MSTORE CALLVALUE DUP1 ISZERO PUSH2 0xF JUMPI PUSH0 DUP1 REVERT JUMPDEST POP PUSH1 0x40 MLOAD PUSH2 0x9EC CODESIZE SUB DUP1 PUSH2 0x9EC DUP4 CODECOPY DUP2 DUP2 ADD PUSH1 0x40 MSTORE DUP2 ADD SWAP1 PUSH2 0x31 SWAP2 SWAP1 PUSH2 0x17C JUMP JUMPDEST DUP1 DUP1 PUSH20 0xFFFFFFFFFFFFFFFFFFFFFFFFFFFFFFFFFFFFFFFF AND PUSH1 0x80 DUP2 PUSH20 0xFFFFFFFFFFFFFFFFFFFFFFFFFFFFFFFFFFFFFFFF AND DUP2 MSTORE POP POP DUP1 PUSH20 0xFFFFFFFFFFFFFFFFFFFFFFFFFFFFFFFFFFFFFFFF AND PUSH4 0x26B1D5F PUSH1 0x40 MLOAD DUP2 PUSH4 0xFFFFFFFF AND PUSH1 0xE0 SHL DUP2 MSTORE PUSH1 0x4 ADD PUSH1 0x20 PUSH1 0x40 MLOAD DUP1 DUP4 SUB DUP2 DUP7 GAS STATICCALL ISZERO DUP1 ISZERO PUSH2 0xAF JUMPI RETURNDATASIZE PUSH0 DUP1 RETURNDATACOPY RETURNDATASIZE PUSH0 REVERT JUMPDEST POP POP POP POP PUSH1 0x40 MLOAD RETURNDATASIZE PUSH1 0x1F NOT PUSH1 0x1F DUP3 ADD AND DUP3 ADD DUP1 PUSH1 0x40 MSTORE POP DUP2 ADD SWAP1 PUSH2 0xD3 SWAP2 SWAP1 PUSH2 0x1D1 JUMP JUMPDEST PUSH20 0xFFFFFFFFFFFFFFFFFFFFFFFFFFFFFFFFFFFFFFFF AND PUSH1 0xA0 DUP2 PUSH20 0xFFFFFFFFFFFFFFFFFFFFFFFFFFFFFFFFFFFFFFFF AND DUP2 MSTORE POP POP POP POP PUSH2 0x1FC JUMP JUMPDEST PUSH0 DUP1 REVERT JUMPDEST PUSH0 PUSH20 0xFFFFFFFFFFFFFFFFFFFFFFFFFFFFFFFFFFFFFFFF DUP3 AND SWAP1 POP SWAP2 SWAP1 POP JUMP JUMPDEST PUSH0 PUSH2 0x13A DUP3 PUSH2 0x111 JUMP JUMPDEST SWAP1 POP SWAP2 SWAP1 POP JUMP JUMPDEST PUSH0 PUSH2 0x14B DUP3 PUSH2 0x130 JUMP JUMPDEST SWAP1 POP SWAP2 SWAP1 POP JUMP JUMPDEST PUSH2 0x15B DUP2 PUSH2 0x141 JUMP JUMPDEST DUP2 EQ PUSH2 0x165 JUMPI PUSH0 DUP1 REVERT JUMPDEST POP JUMP JUMPDEST PUSH0 DUP2 MLOAD SWAP1 POP PUSH2 0x176 DUP2 PUSH2 0x152 JUMP JUMPDEST SWAP3 SWAP2 POP POP JUMP JUMPDEST PUSH0 PUSH1 0x20 DUP3 DUP5 SUB SLT ISZERO PUSH2 0x191 JUMPI PUSH2 0x190 PUSH2 0x10D JUMP JUMPDEST JUMPDEST PUSH0 PUSH2 0x19E DUP5 DUP3 DUP6 ADD PUSH2 0x168 JUMP JUMPDEST SWAP2 POP POP SWAP3 SWAP2 POP POP JUMP JUMPDEST PUSH2 0x1B0 DUP2 PUSH2 0x130 JUMP JUMPDEST DUP2 EQ PUSH2 0x1BA JUMPI PUSH0 DUP1 REVERT JUMPDEST POP JUMP JUMPDEST PUSH0 DUP2 MLOAD SWAP1 POP PUSH2 0x1CB DUP2 PUSH2 0x1A7 JUMP JUMPDEST SWAP3 SWAP2 POP POP JUMP JUMPDEST PUSH0 PUSH1 0x20 DUP3 DUP5 SUB SLT ISZERO PUSH2 0x1E6 JUMPI PUSH2 0x1E5 PUSH2 0x10D JUMP JUMPDEST JUMPDEST PUSH0 PUSH2 0x1F3 DUP5 DUP3 DUP6 ADD PUSH2 0x1BD JUMP JUMPDEST SWAP2 POP POP SWAP3 SWAP2 POP POP JUMP JUMPDEST PUSH1 0x80 MLOAD PUSH1 0xA0 MLOAD PUSH2 0x7C2 PUSH2 0x22A PUSH0 CODECOPY PUSH0 DUP2 DUP2 PUSH2 0x128 ADD MSTORE PUSH2 0x2B8 ADD MSTORE PUSH0 DUP2 DUP2 PUSH1 0xD8 ADD MSTORE PUSH2 0x1B8 ADD MSTORE PUSH2 0x7C2 PUSH0 RETURN INVALID PUSH1 0x80 PUSH1 0x40 MSTORE CALLVALUE DUP1 ISZERO PUSH2 0xF JUMPI PUSH0 DUP1 REVERT JUMPDEST POP PUSH1 0x4 CALLDATASIZE LT PUSH2 0x4A JUMPI PUSH0 CALLDATALOAD PUSH1 0xE0 SHR DUP1 PUSH4 0x542975C EQ PUSH2 0x4E JUMPI DUP1 PUSH4 0x1B11D0FF EQ PUSH2 0x6C JUMPI DUP1 PUSH4 0x5E2C1B3A EQ PUSH2 0x9C JUMPI DUP1 PUSH4 0x7535D246 EQ PUSH2 0xB8 JUMPI JUMPDEST PUSH0 DUP1 REVERT JUMPDEST PUSH2 0x56 PUSH2 0xD6 JUMP JUMPDEST PUSH1 0x40 MLOAD PUSH2 0x63 SWAP2 SWAP1 PUSH2 0x354 JUMP JUMPDEST PUSH1 0x40 MLOAD DUP1 SWAP2 SUB SWAP1 RETURN JUMPDEST PUSH2 0x86 PUSH1 0x4 DUP1 CALLDATASIZE SUB DUP2 ADD SWAP1 PUSH2 0x81 SWAP2 SWAP1 PUSH2 0x444 JUMP JUMPDEST PUSH2 0xFA JUMP JUMPDEST PUSH1 0x40 MLOAD PUSH2 0x93 SWAP2 SWAP1 PUSH2 0x4F4 JUMP JUMPDEST PUSH1 0x40 MLOAD DUP1 SWAP2 SUB SWAP1 RETURN JUMPDEST PUSH2 0xB6 PUSH1 0x4 DUP1 CALLDATASIZE SUB DUP2 ADD SWAP1 PUSH2 0xB1 SWAP2 SWAP1 PUSH2 0x50D JUMP JUMPDEST PUSH2 0x1B5 JUMP JUMPDEST STOP JUMPDEST PUSH2 0xC0 PUSH2 0x2B6 JUMP JUMPDEST PUSH1 0x40 MLOAD PUSH2 0xCD SWAP2 SWAP1 PUSH2 0x56B JUMP JUMPDEST PUSH1 0x40 MLOAD DUP1 SWAP2 SUB SWAP1 RETURN JUMPDEST PUSH32 0x0 DUP2 JUMP JUMPDEST PUSH0 DUP1 DUP6 DUP8 PUSH2 0x108 SWAP2 SWAP1 PUSH2 0x5B1 JUMP JUMPDEST SWAP1 POP DUP8 PUSH20 0xFFFFFFFFFFFFFFFFFFFFFFFFFFFFFFFFFFFFFFFF AND PUSH4 0x95EA7B3 PUSH32 0x0 DUP4 PUSH1 0x40 MLOAD DUP4 PUSH4 0xFFFFFFFF AND PUSH1 0xE0 SHL DUP2 MSTORE PUSH1 0x4 ADD PUSH2 0x165 SWAP3 SWAP2 SWAP1 PUSH2 0x602 JUMP JUMPDEST PUSH1 0x20 PUSH1 0x40 MLOAD DUP1 DUP4 SUB DUP2 PUSH0 DUP8 GAS CALL ISZERO DUP1 ISZERO PUSH2 0x181 JUMPI RETURNDATASIZE PUSH0 DUP1 RETURNDATACOPY RETURNDATASIZE PUSH0 REVERT JUMPDEST POP POP POP POP PUSH1 0x40 MLOAD RETURNDATASIZE PUSH1 0x1F NOT PUSH1 0x1F DUP3 ADD AND DUP3 ADD DUP1 PUSH1 0x40 MSTORE POP DUP2 ADD SWAP1 PUSH2 0x1A5 SWAP2 SWAP1 PUSH2 0x653 JUMP JUMPDEST POP PUSH1 0x1 SWAP2 POP POP SWAP7 SWAP6 POP POP POP POP POP POP JUMP JUMPDEST PUSH0 PUSH32 0x0 PUSH20 0xFFFFFFFFFFFFFFFFFFFFFFFFFFFFFFFFFFFFFFFF AND PUSH4 0x26B1D5F PUSH1 0x40 MLOAD DUP2 PUSH4 0xFFFFFFFF AND PUSH1 0xE0 SHL DUP2 MSTORE PUSH1 0x4 ADD PUSH1 0x20 PUSH1 0x40 MLOAD DUP1 DUP4 SUB DUP2 DUP7 GAS STATICCALL ISZERO DUP1 ISZERO PUSH2 0x21F JUMPI RETURNDATASIZE PUSH0 DUP1 RETURNDATACOPY RETURNDATASIZE PUSH0 REVERT JUMPDEST POP POP POP POP PUSH1 0x40 MLOAD RETURNDATASIZE PUSH1 0x1F NOT PUSH1 0x1F DUP3 ADD AND DUP3 ADD DUP1 PUSH1 0x40 MSTORE POP DUP2 ADD SWAP1 PUSH2 0x243 SWAP2 SWAP1 PUSH2 0x692 JUMP JUMPDEST SWAP1 POP DUP1 PUSH20 0xFFFFFFFFFFFFFFFFFFFFFFFFFFFFFFFFFFFFFFFF AND PUSH4 0x42B0B77C ADDRESS DUP6 DUP6 PUSH0 PUSH1 0x40 MLOAD DUP6 PUSH4 0xFFFFFFFF AND PUSH1 0xE0 SHL DUP2 MSTORE PUSH1 0x4 ADD PUSH2 0x284 SWAP5 SWAP4 SWAP3 SWAP2 SWAP1 PUSH2 0x736 JUMP JUMPDEST PUSH0 PUSH1 0x40 MLOAD DUP1 DUP4 SUB DUP2 PUSH0 DUP8 DUP1 EXTCODESIZE ISZERO DUP1 ISZERO PUSH2 0x29B JUMPI PUSH0 DUP1 REVERT JUMPDEST POP GAS CALL ISZERO DUP1 ISZERO PUSH2 0x2AD JUMPI RETURNDATASIZE PUSH0 DUP1 RETURNDATACOPY RETURNDATASIZE PUSH0 REVERT JUMPDEST POP POP POP POP POP POP POP JUMP JUMPDEST PUSH32 0x0 DUP2 JUMP JUMPDEST PUSH0 PUSH20 0xFFFFFFFFFFFFFFFFFFFFFFFFFFFFFFFFFFFFFFFF DUP3 AND SWAP1 POP SWAP2 SWAP1 POP JUMP JUMPDEST PUSH0 DUP2 SWAP1 POP SWAP2 SWAP1 POP JUMP JUMPDEST PUSH0 PUSH2 0x31C PUSH2 0x317 PUSH2 0x312 DUP5 PUSH2 0x2DA JUMP JUMPDEST PUSH2 0x2F9 JUMP JUMPDEST PUSH2 0x2DA JUMP JUMPDEST SWAP1 POP SWAP2 SWAP1 POP JUMP JUMPDEST PUSH0 PUSH2 0x32D DUP3 PUSH2 0x302 JUMP JUMPDEST SWAP1 POP SWAP2 SWAP1 POP JUMP JUMPDEST PUSH0 PUSH2 0x33E DUP3 PUSH2 0x323 JUMP JUMPDEST SWAP1 POP SWAP2 SWAP1 POP JUMP JUMPDEST PUSH2 0x34E DUP2 PUSH2 0x334 JUMP JUMPDEST DUP3 MSTORE POP POP JUMP JUMPDEST PUSH0 PUSH1 0x20 DUP3 ADD SWAP1 POP PUSH2 0x367 PUSH0 DUP4 ADD DUP5 PUSH2 0x345 JUMP JUMPDEST SWAP3 SWAP2 POP POP JUMP JUMPDEST PUSH0 DUP1 REVERT JUMPDEST PUSH0 DUP1 REVERT JUMPDEST PUSH0 PUSH2 0x37F DUP3 PUSH2 0x2DA JUMP JUMPDEST SWAP1 POP SWAP2 SWAP1 POP JUMP JUMPDEST PUSH2 0x38F DUP2 PUSH2 0x375 JUMP JUMPDEST DUP2 EQ PUSH2 0x399 JUMPI PUSH0 DUP1 REVERT JUMPDEST POP JUMP JUMPDEST PUSH0 DUP2 CALLDATALOAD SWAP1 POP PUSH2 0x3AA DUP2 PUSH2 0x386 JUMP JUMPDEST SWAP3 SWAP2 POP POP JUMP JUMPDEST PUSH0 DUP2 SWAP1 POP SWAP2 SWAP1 POP JUMP JUMPDEST PUSH2 0x3C2 DUP2 PUSH2 0x3B0 JUMP JUMPDEST DUP2 EQ PUSH2 0x3CC JUMPI PUSH0 DUP1 REVERT JUMPDEST POP JUMP JUMPDEST PUSH0 DUP2 CALLDATALOAD SWAP1 POP PUSH2 0x3DD DUP2 PUSH2 0x3B9 JUMP JUMPDEST SWAP3 SWAP2 POP POP JUMP JUMPDEST PUSH0 DUP1 REVERT JUMPDEST PUSH0 DUP1 REVERT JUMPDEST PUSH0 DUP1 REVERT JUMPDEST PUSH0 DUP1 DUP4 PUSH1 0x1F DUP5 ADD SLT PUSH2 0x404 JUMPI PUSH2 0x403 PUSH2 0x3E3 JUMP JUMPDEST JUMPDEST DUP3 CALLDATALOAD SWAP1 POP PUSH8 0xFFFFFFFFFFFFFFFF DUP2 GT ISZERO PUSH2 0x421 JUMPI PUSH2 0x420 PUSH2 0x3E7 JUMP JUMPDEST JUMPDEST PUSH1 0x20 DUP4 ADD SWAP2 POP DUP4 PUSH1 0x1 DUP3 MUL DUP4 ADD GT ISZERO PUSH2 0x43D JUMPI PUSH2 0x43C PUSH2 0x3EB JUMP JUMPDEST JUMPDEST SWAP3 POP SWAP3 SWAP1 POP JUMP JUMPDEST PUSH0 DUP1 PUSH0 DUP1 PUSH0 DUP1 PUSH1 0xA0 DUP8 DUP10 SUB SLT ISZERO PUSH2 0x45E JUMPI PUSH2 0x45D PUSH2 0x36D JUMP JUMPDEST JUMPDEST PUSH0 PUSH2 0x46B DUP10 DUP3 DUP11 ADD PUSH2 0x39C JUMP JUMPDEST SWAP7 POP POP PUSH1 0x20 PUSH2 0x47C DUP10 DUP3 DUP11 ADD PUSH2 0x3CF JUMP JUMPDEST SWAP6 POP POP PUSH1 0x40 PUSH2 0x48D DUP10 DUP3 DUP11 ADD PUSH2 0x3CF JUMP JUMPDEST SWAP5 POP POP PUSH1 0x60 PUSH2 0x49E DUP10 DUP3 DUP11 ADD PUSH2 0x39C JUMP JUMPDEST SWAP4 POP POP PUSH1 0x80 DUP8 ADD CALLDATALOAD PUSH8 0xFFFFFFFFFFFFFFFF DUP2 GT ISZERO PUSH2 0x4BF JUMPI PUSH2 0x4BE PUSH2 0x371 JUMP JUMPDEST JUMPDEST PUSH2 0x4CB DUP10 DUP3 DUP11 ADD PUSH2 0x3EF JUMP JUMPDEST SWAP3 POP SWAP3 POP POP SWAP3 SWAP6 POP SWAP3 SWAP6 POP SWAP3 SWAP6 JUMP JUMPDEST PUSH0 DUP2 ISZERO ISZERO SWAP1 POP SWAP2 SWAP1 POP JUMP JUMPDEST PUSH2 0x4EE DUP2 PUSH2 0x4DA JUMP JUMPDEST DUP3 MSTORE POP POP JUMP JUMPDEST PUSH0 PUSH1 0x20 DUP3 ADD SWAP1 POP PUSH2 0x507 PUSH0 DUP4 ADD DUP5 PUSH2 0x4E5 JUMP JUMPDEST SWAP3 SWAP2 POP POP JUMP JUMPDEST PUSH0 DUP1 PUSH1 0x40 DUP4 DUP6 SUB SLT ISZERO PUSH2 0x523 JUMPI PUSH2 0x522 PUSH2 0x36D JUMP JUMPDEST JUMPDEST PUSH0 PUSH2 0x530 DUP6 DUP3 DUP7 ADD PUSH2 0x39C JUMP JUMPDEST SWAP3 POP POP PUSH1 0x20 PUSH2 0x541 DUP6 DUP3 DUP7 ADD PUSH2 0x3CF JUMP JUMPDEST SWAP2 POP POP SWAP3 POP SWAP3 SWAP1 POP JUMP JUMPDEST PUSH0 PUSH2 0x555 DUP3 PUSH2 0x323 JUMP JUMPDEST SWAP1 POP SWAP2 SWAP1 POP JUMP JUMPDEST PUSH2 0x565 DUP2 PUSH2 0x54B JUMP JUMPDEST DUP3 MSTORE POP POP JUMP JUMPDEST PUSH0 PUSH1 0x20 DUP3 ADD SWAP1 POP PUSH2 0x57E PUSH0 DUP4 ADD DUP5 PUSH2 0x55C JUMP JUMPDEST SWAP3 SWAP2 POP POP JUMP JUMPDEST PUSH32 0x4E487B7100000000000000000000000000000000000000000000000000000000 PUSH0 MSTORE PUSH1 0x11 PUSH1 0x4 MSTORE PUSH1 0x24 PUSH0 REVERT JUMPDEST PUSH0 PUSH2 0x5BB DUP3 PUSH2 0x3B0 JUMP JUMPDEST SWAP2 POP PUSH2 0x5C6 DUP4 PUSH2 0x3B0 JUMP JUMPDEST SWAP3 POP DUP3 DUP3 ADD SWAP1 POP DUP1 DUP3 GT ISZERO PUSH2 0x5DE JUMPI PUSH2 0x5DD PUSH2 0x584 JUMP JUMPDEST JUMPDEST SWAP3 SWAP2 POP POP JUMP JUMPDEST PUSH2 0x5ED DUP2 PUSH2 0x375 JUMP JUMPDEST DUP3 MSTORE POP POP JUMP JUMPDEST PUSH2 0x5FC DUP2 PUSH2 0x3B0 JUMP JUMPDEST DUP3 MSTORE POP POP JUMP JUMPDEST PUSH0 PUSH1 0x40 DUP3 ADD SWAP1 POP PUSH2 0x615 PUSH0 DUP4 ADD DUP6 PUSH2 0x5E4 JUMP JUMPDEST PUSH2 0x622 PUSH1 0x20 DUP4 ADD DUP5 PUSH2 0x5F3 JUMP JUMPDEST SWAP4 SWAP3 POP POP POP JUMP JUMPDEST PUSH2 0x632 DUP2 PUSH2 0x4DA JUMP JUMPDEST DUP2 EQ PUSH2 0x63C JUMPI PUSH0 DUP1 REVERT JUMPDEST POP JUMP JUMPDEST PUSH0 DUP2 MLOAD SWAP1 POP PUSH2 0x64D DUP2 PUSH2 0x629 JUMP JUMPDEST SWAP3 SWAP2 POP POP JUMP JUMPDEST PUSH0 PUSH1 0x20 DUP3 DUP5 SUB SLT ISZERO PUSH2 0x668 JUMPI PUSH2 0x667 PUSH2 0x36D JUMP JUMPDEST JUMPDEST PUSH0 PUSH2 0x675 DUP5 DUP3 DUP6 ADD PUSH2 0x63F JUMP JUMPDEST SWAP2 POP POP SWAP3 SWAP2 POP POP JUMP JUMPDEST PUSH0 DUP2 MLOAD SWAP1 POP PUSH2 0x68C DUP2 PUSH2 0x386 JUMP JUMPDEST SWAP3 SWAP2 POP POP JUMP JUMPDEST PUSH0 PUSH1 0x20 DUP3 DUP5 SUB SLT ISZERO PUSH2 0x6A7 JUMPI PUSH2 0x6A6 PUSH2 0x36D JUMP JUMPDEST JUMPDEST PUSH0 PUSH2 0x6B4 DUP5 DUP3 DUP6 ADD PUSH2 0x67E JUMP JUMPDEST SWAP2 POP POP SWAP3 SWAP2 POP POP JUMP JUMPDEST PUSH0 DUP3 DUP3 MSTORE PUSH1 0x20 DUP3 ADD SWAP1 POP SWAP3 SWAP2 POP POP JUMP JUMPDEST POP JUMP JUMPDEST PUSH0 PUSH2 0x6DB PUSH0 DUP4 PUSH2 0x6BD JUMP JUMPDEST SWAP2 POP PUSH2 0x6E6 DUP3 PUSH2 0x6CD JUMP JUMPDEST PUSH0 DUP3 ADD SWAP1 POP SWAP2 SWAP1 POP JUMP JUMPDEST PUSH0 DUP2 SWAP1 POP SWAP2 SWAP1 POP JUMP JUMPDEST PUSH0 PUSH2 0xFFFF DUP3 AND SWAP1 POP SWAP2 SWAP1 POP JUMP JUMPDEST PUSH0 PUSH2 0x720 PUSH2 0x71B PUSH2 0x716 DUP5 PUSH2 0x6F0 JUMP JUMPDEST PUSH2 0x2F9 JUMP JUMPDEST PUSH2 0x6F9 JUMP JUMPDEST SWAP1 POP SWAP2 SWAP1 POP JUMP JUMPDEST PUSH2 0x730 DUP2 PUSH2 0x706 JUMP JUMPDEST DUP3 MSTORE POP POP JUMP JUMPDEST PUSH0 PUSH1 0xA0 DUP3 ADD SWAP1 POP PUSH2 0x749 PUSH0 DUP4 ADD DUP8 PUSH2 0x5E4 JUMP JUMPDEST PUSH2 0x756 PUSH1 0x20 DUP4 ADD DUP7 PUSH2 0x5E4 JUMP JUMPDEST PUSH2 0x763 PUSH1 0x40 DUP4 ADD DUP6 PUSH2 0x5F3 JUMP JUMPDEST DUP2 DUP2 SUB PUSH1 0x60 DUP4 ADD MSTORE PUSH2 0x774 DUP2 PUSH2 0x6D0 JUMP JUMPDEST SWAP1 POP PUSH2 0x783 PUSH1 0x80 DUP4 ADD DUP5 PUSH2 0x727 JUMP JUMPDEST SWAP6 SWAP5 POP POP POP POP POP JUMP INVALID LOG2 PUSH5 0x6970667358 0x22 SLT KECCAK256 PUSH6 0xB1F4441E624C DUP13 0xA6 0xF7 SMOD EQ JUMPDEST PC 0x21 0x4D 0xC8 SWAP9 DUP13 0x4C SELFDESTRUCT 0xE5 SELFDESTRUCT MULMOD 0xD1 MCOPY 0xE4 0x1E SAR DUP1 DUP14 CALLDATASIZE PUSH5 0x736F6C6343 STOP ADDMOD NOT STOP CALLER "
		},
		"gasEstimates": {
			"creation": {
				"codeDepositCost": "397200",
				"executionCost": "infinite",
				"totalCost": "infinite"
			},
			"external": {
				"ADDRESSES_PROVIDER()": "infinite",
				"POOL()": "infinite",
				"executeOperation(address,uint256,uint256,address,bytes)": "infinite",
				"initiateFlashLoan(address,uint256)": "infinite"
			}
		},
		"methodIdentifiers": {
			"ADDRESSES_PROVIDER()": "0542975c",
			"POOL()": "7535d246",
			"executeOperation(address,uint256,uint256,address,bytes)": "1b11d0ff",
			"initiateFlashLoan(address,uint256)": "5e2c1b3a"
		}
	},
	"abi": [
		{
			"inputs": [
				{
					"internalType": "contract IPoolAddressesProvider",
					"name": "provider",
					"type": "address"
				}
			],
			"stateMutability": "nonpayable",
			"type": "constructor"
		},
		{
			"inputs": [],
			"name": "ADDRESSES_PROVIDER",
			"outputs": [
				{
					"internalType": "contract IPoolAddressesProvider",
					"name": "",
					"type": "address"
				}
			],
			"stateMutability": "view",
			"type": "function"
		},
		{
			"inputs": [],
			"name": "POOL",
			"outputs": [
				{
					"internalType": "contract IPool",
					"name": "",
					"type": "address"
				}
			],
			"stateMutability": "view",
			"type": "function"
		},
		{
			"inputs": [
				{
					"internalType": "address",
					"name": "asset",
					"type": "address"
				},
				{
					"internalType": "uint256",
					"name": "amount",
					"type": "uint256"
				},
				{
					"internalType": "uint256",
					"name": "premium",
					"type": "uint256"
				},
				{
					"internalType": "address",
					"name": "initiator",
					"type": "address"
				},
				{
					"internalType": "bytes",
					"name": "params",
					"type": "bytes"
				}
			],
			"name": "executeOperation",
			"outputs": [
				{
					"internalType": "bool",
					"name": "",
					"type": "bool"
				}
			],
			"stateMutability": "nonpayable",
			"type": "function"
		},
		{
			"inputs": [
				{
					"internalType": "address",
					"name": "asset",
					"type": "address"
				},
				{
					"internalType": "uint256",
					"name": "amount",
					"type": "uint256"
				}
			],
			"name": "initiateFlashLoan",
			"outputs": [],
			"stateMutability": "nonpayable",
			"type": "function"
		}
	]
}